:020000040000fa
:080000000002040000000000f2
:020000040000fa
:04000800620300008f
:020000040000fa
:04000c004a030000a3
:020000040000fa
:040010005003000099
:020000040000fa
:04001400560300008f
:020000040000fa
:040018005c03000085
:020000040000fa
:04001c00620300007b
:020000040000fa
:040020006203000077
:020000040000fa
:040024006203000073
:020000040000fa
:04002800620300006f
:020000040000fa
:04002c00620300006b
:020000040000fa
:040030006203000067
:020000040000fa
:040034001c030000a9
:020000040000fa
:04003800620300005f
:020000040000fa
:04003c00620300005b
:020000040000fa
:040040006203000057
:020000040000fa
:040044006203000053
:020000040000fa
:04004800620300004f
:020000040000fa
:04004c00620300004b
:020000040000fa
:040050006203000047
:020000040000fa
:04005400ac020000fa
:020000040000fa
:04005800620300003f
:020000040000fa
:04005c00620300003b
:020000040000fa
:040060006203000037
:020000040000fa
:040064006203000033
:020000040000fa
:04006800620300002f
:020000040000fa
:04006c00620300002b
:020000040000fa
:040070006203000027
:020000040000fa
:040074006203000023
:020000040000fa
:04007800620300001f
:020000040000fa
:04007c00620300001b
:020000040000fa
:040080006203000017
:020000040000fa
:040084006203000013
:020000040000fa
:04008800620300000f
:020000040000fa
:04008c00620300000b
:020000040000fa
:040090006203000007
:020000040000fa
:040094006203000003
:020000040000fa
:0400980062030000ff
:020000040000fa
:04009c0062030000fb
:020000040000fa
:0400a00062030000f7
:020000040000fa
:0400a40062030000f3
:020000040000fa
:0400a80062030000ef
:020000040000fa
:0400ac0062030000eb
:020000040000fa
:0400b00062030000e7
:020000040000fa
:0400b40062030000e3
:020000040000fa
:0400b80062030000df
:020000040000fa
:0400bc0062030000db
:020000040000fa
:0400c00062030000d7
:020000040000fa
:0400c40062030000d3
:020000040000fa
:0400c80062030000cf
:020000040000fa
:0400cc0062030000cb
:020000040000fa
:0400d00062030000c7
:020000040000fa
:0400d40062030000c3
:020000040000fa
:0400d80062030000bf
:020000040000fa
:0400dc0062030000bb
:020000040000fa
:0400e00062030000b7
:020000040000fa
:0400e40062030000b3
:020000040000fa
:0400e80062030000af
:020000040000fa
:0400ec0062030000ab
:020000040000fa
:0400f00062030000a7
:020000040000fa
:0400f40062030000a3
:020000040000fa
:0400f800620300009f
:020000040000fa
:0400fc00620300009b
:020000040000fa
:040100006203000096
:020000040000fa
:040104006203000092
:020000040000fa
:04010800620300008e
:020000040000fa
:04010c00620300008a
:020000040000fa
:040110006203000086
:020000040000fa
:040114006203000082
:020000040000fa
:04011800620300007e
:020000040000fa
:04011c00620300007a
:020000040000fa
:040120006203000076
:020000040000fa
:040124006203000072
:020000040000fa
:04012800620300006e
:020000040000fa
:04012c00620300006a
:020000040000fa
:040130006203000066
:020000040000fa
:040134006203000062
:020000040000fa
:04013800620300005e
:020000040000fa
:04013c00620300005a
:020000040000fa
:040140006203000056
:020000040000fa
:040144006203000052
:020000040000fa
:04014800620300004e
:020000040000fa
:04014c00620300004a
:020000040000fa
:040150006203000046
:020000040000fa
:040154006203000042
:020000040000fa
:04015800620300003e
:020000040000fa
:04015c00620300003a
:020000040000fa
:040160006203000036
:020000040000fa
:040164006203000032
:020000040000fa
:04016800620300002e
:020000040000fa
:04016c00620300002a
:020000040000fa
:040170006203000026
:020000040000fa
:040174006203000022
:020000040000fa
:04017800620300001e
:020000040000fa
:04017c00620300001a
:020000040000fa
:040180006203000016
:020000040000fa
:040184006203000012
:020000040000fa
:04018800620300000e
:020000040000fa
:04018c00620300000a
:020000040000fa
:040190006203000006
:020000040000fa
:040194006203000002
:020000040000fa
:0401980062030000fe
:020000040000fa
:04019c0062030000fa
:020000040000fa
:0401a00062030000f6
:020000040000fa
:0401a40062030000f2
:020000040000fa
:0401a80062030000ee
:020000040000fa
:0401ac0062030000ea
:020000040000fa
:04020800620300008d
:020000040000fa
:04020c006203000089
:020000040000fa
:040210006203000085
:020000040000fa
:040214006203000081
:020000040000fa
:04021800620300007d
:020000040000fa
:04021c006203000079
:020000040000fa
:040220006203000075
:020000040000fa
:040224006203000071
:020000040000fa
:04022800620300006d
:020000040000fa
:04022c006203000069
:020000040000fa
:040230006203000065
:020000040000fa
:040234006203000061
:020000040000fa
:04023800620300005d
:020000040000fa
:04023c006203000059
:020000040000fa
:040240006203000055
:020000040000fa
:040244006203000051
:020000040000fa
:04024800620300004d
:020000040000fa
:04024c006203000049
:020000040000fa
:040250006203000045
:020000040000fa
:040254006203000041
:020000040000fa
:04025800620300003d
:020000040000fa
:04025c006203000039
:020000040000fa
:040260006203000035
:020000040000fa
:040264006203000031
:020000040000fa
:04026800620300002d
:020000040000fa
:04026c006203000029
:020000040000fa
:040270006203000025
:020000040000fa
:040274006203000021
:020000040000fa
:04027800620300001d
:020000040000fa
:04027c006203000019
:020000040000fa
:040280006203000015
:020000040000fa
:040284006203000011
:020000040000fa
:04028800620300000d
:020000040000fa
:04028c006203000009
:020000040000fa
:040290006203000005
:020000040000fa
:040294006203000001
:020000040000fa
:0402980062030000fd
:020000040000fa
:04029c0062030000f9
:020000040000fa
:0402a00062030000f5
:020000040000fa
:0402a40062030000f1
:020000040000fa
:0402a80062030000ed
:020000040000fa
:0402ac0062030000e9
:020000040000fa
:0402b00062030000e5
:020000040000fa
:0402b40062030000e1
:020000040000fa
:0402b80062030000dd
:020000040000fa
:0402bc0062030000d9
:020000040000fa
:0402c00062030000d5
:020000040000fa
:0402c40062030000d1
:020000040000fa
:0402c80062030000cd
:020000040000fa
:0402cc0062030000c9
:020000040000fa
:0402d00062030000c5
:020000040000fa
:0402d40062030000c1
:020000040000fa
:0402d80062030000bd
:020000040000fa
:0402dc0062030000b9
:020000040000fa
:0402e00062030000b5
:020000040000fa
:0402e40062030000b1
:020000040000fa
:0402e80062030000ad
:020000040000fa
:0402ec0062030000a9
:020000040000fa
:0402f00062030000a5
:020000040000fa
:0402f40062030000a1
:020000040000fa
:0402f800620300009d
:020000040000fa
:0402fc006203000099
:020000040000fa
:040300006203000094
:020000040000fa
:040304006203000090
:020000040000fa
:04030800620300008c
:020000040000fa
:04030c006203000088
:020000040000fa
:040310006203000084
:020000040000fa
:040314006203000080
:020000040000fa
:04031800620300007c
:020000040000fa
:04031c006203000078
:020000040000fa
:040320006203000074
:020000040000fa
:040324006203000070
:020000040000fa
:04032800620300006c
:020000040000fa
:04032c006203000068
:020000040000fa
:040330006203000064
:020000040000fa
:040334006203000060
:020000040000fa
:04033800620300005c
:020000040000fa
:04033c006203000058
:020000040000fa
:040340006203000054
:020000040000fa
:040344006203000050
:020000040000fa
:04034800620300004c
:020000040000fa
:04034c006203000048
:020000040000fa
:040350006203000044
:020000040000fa
:040354006203000040
:020000040000fa
:04035800620300003c
:020000040000fa
:04035c006203000038
:020000040000fa
:040360006203000034
:020000040000fa
:040364006203000030
:020000040000fa
:04036800620300002c
:020000040000fa
:04036c006203000028
:020000040000fa
:040370006203000024
:020000040000fa
:040374006203000020
:020000040000fa
:04037800620300001c
:020000040000fa
:04037c006203000018
:020000040000fa
:040380006203000014
:020000040000fa
:040384006203000010
:020000040000fa
:04038800620300000c
:020000040000fa
:04038c006203000008
:020000040000fa
:040390006203000004
:020000040000fa
:040394006203000000
:020000040000fa
:0403980062030000fc
:020000040000fa
:04039c0062030000f8
:020000040000fa
:0403a00062030000f4
:020000040000fa
:0403a40062030000f0
:020000040000fa
:0403a80062030000ec
:020000040000fa
:0403ac0062030000e8
:020000040000fa
:10040000cf8220000eff20000e01880000000000b7
:10041000000020000000e000020032000001200087
:10042000200288000c000700e0f9200001002000f5
:1004300011000700000020000000e0000200320070
:1004400000000200000000000a0f0200000000008f
:100450000040da000000fe004440a900c000200077
:100460000000e0000300320000002000a00188002e
:100470004440a80000000600910188008000780038
:100480000000eb0015003700e280400032a0b4000d
:100490009101ba00e280400032a0b4009102ba009b
:1004a000e280400032a0b4000002eb00472bde00e7
:1004b000f507b200602ce10004003a000059eb009f
:1004c0008301e900fdff3e00040037006128e100e0
:1004d000010032000082eb000b00070011c3ba00dc
:1004e0001101ba000604e00003003a000200e00037
:1004f000e5ff3a0000000600f607b200960188000a
:1005000082007800f5ff37003159ba008301e90015
:100510000c0032002159ba008301e90008003200c2
:100520000400e00003003a00e280400032a0b40082
:10053000f5ff370011d9ba008301e900faff3a004c
:100540008100e800e180400032a0b4000000060015
:1005500000000000000000003600f800809fbe0090
:10056000829fbe00849fbe00869fbe003400f800bc
:1005700000002000a00188000000fa002104800093
:10058000f07f2f0000806000200488000000000041
:100590002104800000802000008060000000e00056
:1005a000fbff3a00e50507000040780020e8b700af
:1005b00024c8bf000004e0000a003a0020c8bf00c1
:1005c0000080fb0010418800104180004800dd00e1
:1005d0001041880024c8bf000040e80024e8b700ac
:1005e0000900370024c8bf00e14f500006003a0060
:1005f00020c8bf008080fb001041800000804000c8
:10060000104188002468ef0021048000f07f2f0053
:1006100000806000200488000080fa003400f900a7
:100620004f03be004f02be004f01be004f00be0090
:100630003600f90000400600809fbe003400f8003c
:1006400000002000a00188000000fa0020168000b1
:10065000620060000000e00004003a00c422a8002c
:10066000404180001008880005003700c422a9001e
:100670004041800031c929000080500010088800e6
:100680008460a9000080fa003400f9004f00be0029
:10069000004006000000fa008020a900ffff37009c
:1006a0000000fa008060a900ffff37000000fa0098
:1006b0008040a900ffff37000000fa008080a900f9
:1006c000ffff37000000fa00ffff370003f0a20031
:1006d000889fbe008a9fbe008c1f78007a010700a9
:1006e000810133006450e1004f0032006420e100da
:1006f0005200320003826c0007003b000905d00065
:100700000306d000820f54000c065d000200390081
:1007100002003200890178000306780085825500c6
:1007200004003d000003fd008103fd008502ea0096
:100730008b854200840f720002003b0060001000b5
:10074000e08018006011b8000005eb007a28e10095
:100750000a00390006007800c75ddd00f707b20027
:10076000878075002d003700828171000a017800b2
:10077000610560008180d1000080d3008502e9001e
:10078000f9ff3b00060440008784480002003b005c
:1007900060041400e0841c000988a30007003200f4
:1007a0008a81710082817100610164008904d10035
:1007b0000884d3008b05e800170037000978a300f0
:1007c00013003a000b00e000130034008b05e90031
:1007d0000804440089844c000a4474000978a3008a
:1007e0000d003a000b00e000070034008b05e90023
:1007f0000804440089844c0001003a000b002000ea
:100800000978a300f7ff32000001eb000200370077
:10081000828171000a017800f00007000cf0a70047
:1008200001f0a000390137006420e10002003a0025
:10083000838f6c00390133000801be000200be0046
:1008400032013700889fbe008a9fbe008c1f78004f
:100850001d0107001002200002003b0050418800eb
:10086000210137008a0062006408e10002003a00ba
:1008700050418800290137006108e100fcff320087
:100880000800be00030478007000070001f0a1001a
:100890000900070008f0a600040037000001be00b0
:1008a00091042400b0fd200088ff070009f0a70094
:1008b00001f0a20015013700889fbe008a9fbe008c
:1008c0008c9fbe000004be00ea0007000800be00c6
:1008d000890678006420e100080039000400320035
:1008e0000160a0001202200052418800530037002e
:1008f00091fc2300b0fd20004e0037000006eb0005
:1009000009f0a10003f82300020020000800be0047
:10091000900007000600340001f8230000002000ca
:100920000801be00490007000004be002c002000a2
:100930000800be0093e82300320a23008500070068
:10094000120034000801be00d1fd2300703d2b00d1
:100950005fff07000005be00b3f32300f27a260014
:100960000800be00f000070003f82300020020008a
:1009700056ff07000801be0055ff07000a01be0030
:10098000320007000004be000c06e8000800be00ac
:1009900001f0a10002002000039823006d00070071
:1009a0000800be00160035000801be00de0007008a
:1009b0000005be0032cd2c0043fb230044ff07009e
:1009c000809fbe001269280003d52b000a00be00dc
:1009d000d5000700620f210013ef2b003cff07003a
:1009e0000a01be00d00007004f01be00170007003b
:1009f0000801be00cc0007000801be0034ff07005c
:100a00000c00e0000b0032000c10a70001f0a20067
:100a1000b2fd200093fc23006260e100040032007c
:100a200022a9200063f023000c10a70063f8230024
:100a300027ff07000df0a70001f0a2004f06be003f
:100a40004f05be004f04be0000000600889fbe0098
:100a50008a9fbe008c1f78009b000700a200330015
:100a600003866c006450e1002e0032006420e10037
:100a7000330032006150e1002f0032006120e100bc
:100a80003100320085855500eb07b00009002000d9
:100a900008042000050037000804440089844c0045
:100aa0000a0031000603430087834b000001530016
:100ab00081815b00f8ff33000203be000800a00044
:100ac0000804440089844c00f6ff3900c639dd0073
:100ad0008301730001003200130020008904d1005b
:100ae0000884d3000998a300050032000800a7007d
:100af0000300a0008904d1000884d3008b05e8001e
:100b00008904d1000884d3000001eb000281d200e7
:100b10003200070001f0a1000cf0a70001f0a000d6
:100b20007a0037006420e1007c0032000801be003a
:100b30000200be00f7ff37006120e10077003200bd
:100b40006000b800f3ff37000000200001f8270024
:100b5000f0ff370014002000ba0037000001be008b
:100b6000440007000470a70003f0a10003f8a300ed
:100b700013003a006509b100100032000900350089
:100b80006928e1000200350001002800000005008e
:100b900000004000818048008502e900fcff3a0027
:100ba00000000600f88f4200050035008100d100ea
:100bb0000080d3008502e800fcff3a000000060038
:100bc0008000eb00000005004f89de008201780004
:100bd000b70037006011b800c50037008100200061
:100be000618055000b003d000b00200061fe2f00ce
:100bf0000100e1001d003400828171006101640088
:100c00008904d1000884d3000000e800faff3a000c
:100c100071002000610064000300700002006000a9
:100c20000900320061044400e0844c000988a500fa
:100c3000050032008b05e8006808e10002003a0078
:100c40008904d1000884d300f20f20000258e1008b
:100c500005003d00c75ddd00f907b2008980750021
:100c600008007800000006000bf827008b007800d1
:100c700000000500c70ade00f107b200f50fb20060
:100c800008003200e1cf4200020032000170a000f3
:100c900024000500810f70000100320004080500e7
:100ca00044000500810f700002003a0014000500a6
:100cb0008502e9000000400081c04800fcff3b00c5
:100cc0000170a000240005000004be00e9ff070039
:100cd0000003be000405be000200be00e5ff0700e1
:100ce000844f7500000006000200be006450e10061
:100cf000050036006420e100020036000968a30008
:100d000001003a000800be000160a0004f06780014
:100d10004f05be004f04be0000000600f0ff2f008c
:100d2000f1ff2700f9ff3700889fbe008a9fbe00b1
:100d30008c1f7800e4ff0700ebff330003866c0094
:100d40006450e100240032006420e10027003200fa
:100d50006150e100220032006120e10021003200f8
:100d60008b854200eb07b1000134b800003ab800af
:100d70000804420089844a00013ab8000030b800f3
:100d80008880400009014a00040033000000400050
:100d900081804800020149008b05e900c909dd0096
:100da000830170000100320013002000c814de002f
:100db0004814dd004709de001200b200c808de005a
:100dc0000884700085ff070001f0a1000cf0a70067
:100dd00001f0a000cdff37006120e100cfff32001d
:100de0000801be000200be00f7ff37006150e100bd
:100df000fcff3a00c9ff37006022b800060220005d
:100e00000000d0008180d2000482d2008582d2000e
:100e10000000a0000202520083825a000300310049
:100e20000202420083824a000000a1000603e9009a
:100e3000f3ff3a0000000600efff07000400be00c9
:100e400000000600889fbe008a9fbe00841f7800b5
:100e50009dff07004f00780011003300f0ff2f00c6
:100e6000838f6c0006003b00040565000a00a700a4
:100e70000800370009f0a600100020000800370025
:100e8000820f5400838f5c000300390010002000a3
:100e900001003e000000200009f0a7000000ea0069
:100ea0004f05be004f04be000000e0000000060039
:100eb000881f7800030478000300e00007003d006d
:100ec00060001000e080180060011900e081190046
:100ed00002003b0001f02d00030037000400070072
:100ee00008f0a70001f0a0004f0478000000060001
:100ef000889fbe008a9fbe000082700004027100bd
:100f000004827100260032000004be000200be0010
:100f10006011b8006b092000950220000182cf000b
:100f20000a0039000541b1000082cf0007003900f6
:100f30000541b1000982cf00040039000541b1002c
:100f40000882cf00010039000541b100054252007e
:100f5000120032000a003b008281710061016400ce
:100f60008100d1000080d3008984d3000884d3009d
:100f70008b05e8000442e800f7ff3a00070037005d
:100f80000804440089844c00000048008180480027
:100f90008b05e9000442e900f9ff3a000fff070062
:100fa0004f05be004f04be0000000600800178001f
:100fb00002003700815978000201e9000200e000d8
:080fc000fcff3a0000000600ee
:020000040000fa
:100fc800303100003233000034350000363700007d
:080fd8003839000000000000a0
:020000040000fa
:100fe0000000fa00cda2a90000982a0031002000dc
:100ff000e6030700c482a900cc82a900c462a8004d
:10100000c442a800cd42a800cd42a9000088230018
:1010100011002000dd030700cd42a800cd42a90049
:101020000064200001002000d8030700cd42a80082
:10103000cd42a9000088230011002000d30307003f
:10104000c482a900cc82a900c462a800c442a9003d
:10105000cd42a800cd42a90000402c009100200004
:10106000ca03070080c2b3000800070080c0b300b5
:1010700006000700c0c0b3000400070060c0b30052
:10108000020007000080fa00000006000200fa00db
:10109000004f7800cda2a9001e4078000004e000b7
:1010a00002003d00c482a80001003700c482a900ec
:1010b0009e80fb0000042000008060000000e00033
:1010c00002003200cc82a80001003700cc82a900c7
:1010d0009e80fb0000022000008060000000e00015
:1010e00002003200c462a80001003700c462a900f7
:1010f0001e80fb00700060000000e0000200320073
:10110000c442a80001003700c442a900cd42a80093
:10111000cd42a9001e80fb00680060000000e000d6
:1011200002003200c482a80001003700c482a90076
:101130001e80fb00640060000000e000020032003e
:10114000cc82a80001003700cc82a9001e80fb00e1
:10115000620060000000e00002003200c462a800eb
:1011600001003700c462a9001e80fb00610060001e
:10117000004078000004e00002003200c442a800f1
:1011800001003700c442a900cd42a800cd42a90009
:1011900000282000010020007c0307000080fa00e6
:1011a000000006000200fa00004f7800cda2a8005f
:1011b0001e4078000004e00002003d00c482a80048
:1011c00001003700c482a9009e80fb0000042000bb
:1011d000008060000000e00002003200cc82a80025
:1011e00001003700cc82a9009e80fb000002200095
:1011f000008060000000e00002003200c462a8002d
:1012000001003700c462a9001e80fb00700060006e
:101210000000e00002003200c442a80001003700d4
:10122000c442a900cd42a800cd42a9001e80fb0007
:10123000680060000000e00002003200c482a800e4
:1012400001003700c482a9001e80fb00640060001a
:101250000000e00002003200cc82a800010037004c
:10126000cc82a9001e80fb00620060000000e0004c
:1012700002003200c462a80001003700c462a90065
:101280001e80fb0061006000004078000004e00068
:1012900002003200c442a80001003700c442a90085
:1012a000cd42a800cd42a900002820000100200066
:1012b000360307000080fa00000006000000fa0074
:1012c00010c0b30071ff070000d02700010020000c
:1012d0002e0307000080fa00000006000200fa005a
:1012e000000f78000c0037001e00780010407800d6
:1012f000ed4f500004003a0021c0b30010c0b3000d
:1013000011000700030037001e007800104078002d
:10131000a4ff07001e0fe8001e00780010407800b0
:101320000004e000f0ff3a000080fa000000060030
:101330000200fa00004f78001e40780099ff070075
:101340000080fa00000006000200fa00004f78005a
:10135000114798001e409000e14f500003003a00f2
:10136000f1c7b3001ec0400048ff07001e409000b8
:10137000e24f500003003a00f0cbb3001e404000a3
:1013800042ff07000080fa00000006000200fa0099
:10139000004f78001e407800e14f500003003a00f3
:1013a000c0c0b30039ff07000200370080c0b3009f
:1013b00036ff07000080fa00000006001000fa0067
:1013c000889fbe005007980061079800624f980000
:1013d000a00020000100200030079800410798007d
:1013e00018c0b3006011b8005e009000ee009000dd
:1013f000d8fd07000000e000010035000044eb00cc
:101400000804e00007003200d0c2b300c8ff0700a4
:101410005e009000ee00900001f0a20050079800de
:10142000610798000040eb00004f78001100370082
:101430004e0090006a00b900000178003e00900064
:101440006000b9000000780000014100be0090007b
:10145000a00020000008b8000101410082007800cf
:10146000300798004107980030079800410798001e
:101470001e4fe8006e4890009e40780080cf5000dc
:10148000ebff39003e009000ce009000d1fd070038
:101490000004be005e009000ee009000affd07006b
:1014a000ccfd07000001be005e009000ee00900041
:1014b00086fc07000001be000800be001afe0700ff
:1014c000a6fd070010079800210798001e00900055
:1014d000ae009000a20020000300200056fe07008e
:1014e0000001be004000200001002000800f5100dc
:1014f000818f5900060036001e009000ae0090005b
:101500006a004000e080480010079800210798001a
:101510003e009000ce00900061015000e081580034
:101520001e009000ae009000800f5100818f590086
:101530000a0031000200200003f823005e00900042
:10154000ee00900062fc07005007980061079800c9
:101550006000b80010079800210798005e00900016
:10156000ee0090007dfd0700310007006e489000fe
:101570000004e0002b003200c0c2b3006cff070083
:101580003e009000ce0090004206200003002000a4
:1015900019fe070030079800410798001e009000d0
:1015a000ae009000a20020000300200012fe070001
:1015b00010079800210798000c00370000c3b30003
:1015c0005bff07003e009000ce009000a2002000cc
:1015d0000300200008fe070030079800410798002c
:1015e0006e4890000040e900604f98003e01900076
:1015f000ce0190001e009000ae009000fefd07009e
:10160000e00f5000e08f580003003a006e48900051
:10161000e14f5000e9ff3e001e009000ae00900038
:10162000030007004f04be000080fa00000006001f
:101630000600fa00889fbe00100798002107980056
:101640000040eb00004f78001e84fb003941800011
:101650001e009000ae009000a200200003002000b9
:10166000f5fd07000000780000804400104078007d
:10167000804078000080200000004400014878008d
:101680001e009000ae009000a20020000300200089
:10169000d9fd070010079800210798001e4fe800a9
:1016a0001e009000ae009000e00f5000e08f580048
:1016b000e5ff3a001e4fe9009e80fb0000802000fd
:1016c000008040001040780019ff07001e4078009d
:1016d0000004e000f7ff3a004f04be000080fa006b
:1016e000000006000a00fa00300798004107980041
:1016f000620020008000eb000e0078002bfe070047
:1017000060bc2000000001000070270011002000d4
:101710001e0207000e007800480007001e407800f7
:101720000080fb008000ea003e0090000108780085
:101730003e00900010007800c800dd001e409000c0
:101740000080fb00808050003e009000010878007f
:101750004e4090000080fb008000ea004e009000a8
:10176000010878004e00900010007800c800dd00ed
:101770005e4090000080fb00808050004e00900092
:10178000010878000080fa00000006000000fa005e
:101790007d000700c0032000001088008600a9001b
:1017a0000000000030048000610060000000e000e4
:1017b000fcff32009b0007000004e00018003a0024
:1017c00020002000001088008600a9000000000012
:1017d00030048000610060000000e000fcff320087
:1017e000900007000004e0000f003a001000200005
:1017f000001088008600a90000000000300480006e
:10180000610060000000e000fcff3200850007007e
:101810000004e00006003a006700070005003700fa
:101820000000000003003700000000000100370046
:10183000000000000080fa00000006000400fa002a
:101840001007980050000700d00320000010880007
:101850008600a900000000003004800061006000e4
:101860000000e000fcff32006e0007000004e00012
:1018700036003a000040eb00004f78002e003700a1
:10188000350007008600a9000462a80000000000df
:1018900030048000610060000000e000fcff3200c6
:1018a0000000000040108000610060000000e000c7
:1018b000fcff32001e407800e54f500009003a005e
:1018c0002500070004a2a8000482a8000000000070
:1018d00020108000700060000000e000fcff3a0073
:1018e0000e0037001c00070004a2a9000482a80013
:1018f0000000000020108000700060000000e00088
:10190000fcff3a00000000001110800000042000dd
:10191000008060000000e000fbff3a001e80fb003a
:101920009e009000008040000110800081407800ff
:10193000014878001e4fe8001e407800e54f500037
:10194000cfff36001c000700010037000000000038
:101950000080fa00000006000000fa00000000000d
:10196000201080007f0060000000e000fcff3a00d3
:1019700040108000640060000000e000f8ff3a00c2
:101980000080fa00000006000000fa0002e2a90050
:10199000f1ff07008600a9000402a8000000000073
:1019a00020108000610060000000e000fcff3a00b1
:1019b0000080fa00000006000000fa000442a800bf
:1019c0000000000020108000640060000000e000c3
:1019d000fcff3a000080fa00000006000000fa0058
:1019e000f0c9b3000ae2b70002e2a90002c2a900ee
:1019f0000282a900101080000000a1000010a100c8
:101a00000020a1000030a0001010880002a2a80051
:101a10000422ef000822ef0008e2a8000080fa008c
:101a2000000006000000fa002110800000042000e1
:101a3000008060000000e0000200320010c0b3002f
:101a4000010037000040eb000080fa0000000600b3
:101a50000000fa00ccff0700c0032000001088003f
:101a60008600a900000000003004800061006000d2
:101a70000000e000fcff3200eaff07000004e00085
:101a80003a003a000022ef008600a90000000000a2
:101a900030048000610060000000e000fcff3200c4
:101aa000e0ff07000004e00032003a0000072000d9
:101ab000001088008600a9000000000030048000ab
:101ac000610060000000e000fcff3200d5ff07006d
:101ad0000004e00029003a00b7ff0700aaff070052
:101ae000c0032000001088008600a900000000004c
:101af00030048000610060000000e000fcff320064
:101b0000c8ff07000004e0001e003a00100020009b
:101b1000001088008600a90000000000300480004a
:101b2000610060000000e000fcff3200bdff070024
:101b30000004e00015003a000002200000108800b8
:101b40008600a900000000003004800061006000f1
:101b50000000e000fcff3200b2ff07000004e000dc
:101b60000c003a0094ff07000b0037000000000053
:101b700009003700000000000700370000000000e7
:101b800005003700000000000300370000000000df
:101b900001003700000000000080fa00000006008d
:101ba0000200fa00004f78008021ef0065e1a900f3
:101bb0006b01a8006b21a9001e80fb00e20f500002
:101bc0000e003200e30f500016003200e10f50000b
:101bd0001e003a00c00b80008000eb00fdfb0700f8
:101be000c2cc2c00c3ec23004ffc0700dbfb07003a
:101bf00000007800e00b880015003700c00b800063
:101c00008000eb00f3fb0700c2cc2c00c3ec2300e8
:101c100045fc0700d1fb070000007800e00b8800be
:101c20000b003700c00b80008000eb00e9fb0700d1
:101c3000c2cc2c00c3ec23003bfc0700c7fb070011
:101c400000007800e00b8800010037000000000071
:101c5000c4e2a80065e1a8000080fa0000000600c8
:101c60000200fa00004f78007c21ef0065e1a90036
:101c70006b01a9006b21a8001e80fb00e20f500041
:101c80000e003200e30f500016003200e10f50004a
:101c90001e003a00c00b80008000eb00cdfb070067
:101ca000f2282c0053ef23001ffc0700abfb0700ba
:101cb00000007800000c880015003700c00b800081
:101cc0008000eb00c3fb0700f2282c0053ef230039
:101cd00015fc0700a1fb070000007800000c88003d
:101ce0000b003700c00b80008000eb00b9fb070041
:101cf000f2282c0053ef23000bfc070097fb070092
:101d000000007800000c880001003700000000008f
:101d1000c4e2a80065e1a8000080fa000000060007
:101d20000000fa00c4e2a80065e1a9006b21a90047
:101d30006b01a9000080fa00000006000200fa0012
:101d400030118000004f78001e4078000080fa00bb
:101d5000000006000200fa00004f780000000000ba
:101d60001111800000202000008060000000e000d1
:101d7000fbff3a001e80fb00201188000080fa0063
:101d8000000006000400fa00100798000000eb00b5
:101d9000000f7800070037001e0090001040780008
:101da0009e0090008100e80011079800e9ff0700fd
:101db0001e0fe8001e0090000000e000f6ff3a0051
:101dc0000080fa00000006000400fa0010079800e6
:101dd0001e009000004f78009e00900000f02f0041
:101de00000806000100798001e0090004800de0090
:101df000100798001e009000104798001e409000a9
:101e0000d4ff07001e407800d2ff07000080fa00d0
:101e1000000006000400fa00889fbe00750007005d
:101e20002700070031000700ecfe070008ff07004d
:101e30000000eb00000f78000000eb001007980096
:101e40000e80e800800078000e00780025fe070074
:101e50001e009000cf80de005bfb07000004be0088
:101e60001e007800cf80de0057fb07000801be008f
:101e700074fa070001f0a20002002000433324009e
:101e8000a9fb0700325c2f0083042400effa07004f
:101e900002002000433324000dfa07002ffb070047
:101ea000000078001041880010418000c6ff070044
:101eb00000202100a107200034000700e0ff3700c8
:101ec0000000fa00c902a800e304a900c922a80082
:101ed000e324a900e244a900c842a800e2e4a90062
:101ee000c8e2a9000080fa00000006000000fa0025
:101ef0009001200040118800500580000000a100e2
:101f00000010a1000020a0005005880040058000be
:101f100000c0a10000d0a10000e0a00040058800a2
:101f20002222ef002022ef0021e2a8002342a80095
:0c1f30009560a8000080fa000000060088
:020000040000fa
:101f3c00240800000200000000000000200800003f
:101f4c000400000000000000260800000200000051
:101f5c0002000000e48700000008000020000000e0
:101f6c000000000028080000020000000000000033
:101f7c002a08000002000000000000000a10800087
:020000040000fa
:101f8c00f03fb1000180b10006003500ee030900fe
:101f9c0000000000403fb1000180b100fbff3d009c
:101fac001000b000203fb000020035000080090096
:081fbc00000000000000060017
:020000040000fa
:101fc4000200fa00000f780005e1a9001e00780065
:101fd4007400b90080007800e0bb2000008040005d
:101fe4004041880005e1a8000080fa0000000600d6
:101ff4000000fa00203a80000080a1000090a100b7
:1020040000a0a100203a88000080fa000000060029
:020000040000fa
:0420140000000000c8
:020000040000fa
:0200000401f009
:04000000ffff0000fe
:020000040000fa
:0200000401f009
:04000800ffff0000f6
:020000040000fa
:0200000401f009
:04000c0059ff000098
:020000040000fa
:0200000401f009
:04001000bbff000032
:020000040000fa
:0200000401f009
:040014005fff00008a
:020000040000fa
:0200000401f009
:04001800ffff0000e6
:020000040000fa
:0200000401f009
:04001c00fdff0000e4
:00000001FF
