:020000040000fa
:080000000002040000000000f2
:020000040000fa
:04000800c002000032
:020000040000fa
:04000c00a802000046
:020000040000fa
:04001000ae0200003c
:020000040000fa
:04001400b402000032
:020000040000fa
:04001800ba02000028
:020000040000fa
:04001c00c00200001e
:020000040000fa
:04002000c00200001a
:020000040000fa
:04002400c002000016
:020000040000fa
:04002800c002000012
:020000040000fa
:04002c00c00200000e
:020000040000fa
:04003000c00200000a
:020000040000fa
:04003400c002000006
:020000040000fa
:04003800c002000002
:020000040000fa
:04003c00c0020000fe
:020000040000fa
:04004000c0020000fa
:020000040000fa
:04004400c0020000f6
:020000040000fa
:04004800c0020000f2
:020000040000fa
:04004c00c0020000ee
:020000040000fa
:04005000c0020000ea
:020000040000fa
:04005400c0020000e6
:020000040000fa
:04005800c0020000e2
:020000040000fa
:04005c00c0020000de
:020000040000fa
:04006000c0020000da
:020000040000fa
:04006400c0020000d6
:020000040000fa
:04006800c0020000d2
:020000040000fa
:04006c00c0020000ce
:020000040000fa
:04007000c0020000ca
:020000040000fa
:04007400c0020000c6
:020000040000fa
:04007800c0020000c2
:020000040000fa
:04007c00c0020000be
:020000040000fa
:04008000c0020000ba
:020000040000fa
:04008400c0020000b6
:020000040000fa
:04008800c0020000b2
:020000040000fa
:04008c00c0020000ae
:020000040000fa
:04009000c0020000aa
:020000040000fa
:04009400c0020000a6
:020000040000fa
:04009800c0020000a2
:020000040000fa
:04009c00c00200009e
:020000040000fa
:0400a000c00200009a
:020000040000fa
:0400a400c002000096
:020000040000fa
:0400a800c002000092
:020000040000fa
:0400ac00c00200008e
:020000040000fa
:0400b000c00200008a
:020000040000fa
:0400b400c002000086
:020000040000fa
:0400b800c002000082
:020000040000fa
:0400bc00c00200007e
:020000040000fa
:0400c000c00200007a
:020000040000fa
:0400c400c002000076
:020000040000fa
:0400c800c002000072
:020000040000fa
:0400cc00c00200006e
:020000040000fa
:0400d000c00200006a
:020000040000fa
:0400d400c002000066
:020000040000fa
:0400d800c002000062
:020000040000fa
:0400dc00c00200005e
:020000040000fa
:0400e000c00200005a
:020000040000fa
:0400e400c002000056
:020000040000fa
:0400e800c002000052
:020000040000fa
:0400ec00c00200004e
:020000040000fa
:0400f000c00200004a
:020000040000fa
:0400f400c002000046
:020000040000fa
:0400f800c002000042
:020000040000fa
:0400fc00c00200003e
:020000040000fa
:04010000c002000039
:020000040000fa
:04010400c002000035
:020000040000fa
:04010800c002000031
:020000040000fa
:04010c00c00200002d
:020000040000fa
:04011000c002000029
:020000040000fa
:04011400c002000025
:020000040000fa
:04011800c002000021
:020000040000fa
:04011c00c00200001d
:020000040000fa
:04012000c002000019
:020000040000fa
:04012400c002000015
:020000040000fa
:04012800c002000011
:020000040000fa
:04012c00c00200000d
:020000040000fa
:04013000c002000009
:020000040000fa
:04013400c002000005
:020000040000fa
:04013800c002000001
:020000040000fa
:04013c00c0020000fd
:020000040000fa
:04014000c0020000f9
:020000040000fa
:04014400c0020000f5
:020000040000fa
:04014800c0020000f1
:020000040000fa
:04014c00c0020000ed
:020000040000fa
:04015000c0020000e9
:020000040000fa
:04015400c0020000e5
:020000040000fa
:04015800c0020000e1
:020000040000fa
:04015c00c0020000dd
:020000040000fa
:04016000c0020000d9
:020000040000fa
:04016400c0020000d5
:020000040000fa
:04016800c0020000d1
:020000040000fa
:04016c00c0020000cd
:020000040000fa
:04017000c0020000c9
:020000040000fa
:04017400c0020000c5
:020000040000fa
:04017800c0020000c1
:020000040000fa
:04017c00c0020000bd
:020000040000fa
:04018000c0020000b9
:020000040000fa
:04018400c0020000b5
:020000040000fa
:04018800c0020000b1
:020000040000fa
:04018c00c0020000ad
:020000040000fa
:04019000c0020000a9
:020000040000fa
:04019400c0020000a5
:020000040000fa
:04019800c0020000a1
:020000040000fa
:04019c00c00200009d
:020000040000fa
:0401a000c002000099
:020000040000fa
:0401a400c002000095
:020000040000fa
:0401a800c002000091
:020000040000fa
:0401ac00c00200008d
:020000040000fa
:04020800c002000030
:020000040000fa
:04020c00c00200002c
:020000040000fa
:04021000c002000028
:020000040000fa
:04021400c002000024
:020000040000fa
:04021800c002000020
:020000040000fa
:04021c00c00200001c
:020000040000fa
:04022000c002000018
:020000040000fa
:04022400c002000014
:020000040000fa
:04022800c002000010
:020000040000fa
:04022c00c00200000c
:020000040000fa
:04023000c002000008
:020000040000fa
:04023400c002000004
:020000040000fa
:04023800c002000000
:020000040000fa
:04023c00c0020000fc
:020000040000fa
:04024000c0020000f8
:020000040000fa
:04024400c0020000f4
:020000040000fa
:04024800c0020000f0
:020000040000fa
:04024c00c0020000ec
:020000040000fa
:04025000c0020000e8
:020000040000fa
:04025400c0020000e4
:020000040000fa
:04025800c0020000e0
:020000040000fa
:04025c00c0020000dc
:020000040000fa
:04026000c0020000d8
:020000040000fa
:04026400c0020000d4
:020000040000fa
:04026800c0020000d0
:020000040000fa
:04026c00c0020000cc
:020000040000fa
:04027000c0020000c8
:020000040000fa
:04027400c0020000c4
:020000040000fa
:04027800c0020000c0
:020000040000fa
:04027c00c0020000bc
:020000040000fa
:04028000c0020000b8
:020000040000fa
:04028400c0020000b4
:020000040000fa
:04028800c0020000b0
:020000040000fa
:04028c00c0020000ac
:020000040000fa
:04029000c0020000a8
:020000040000fa
:04029400c0020000a4
:020000040000fa
:04029800c0020000a0
:020000040000fa
:04029c00c00200009c
:020000040000fa
:0402a000c002000098
:020000040000fa
:0402a400c002000094
:020000040000fa
:0402a800c002000090
:020000040000fa
:0402ac00c00200008c
:020000040000fa
:0402b000c002000088
:020000040000fa
:0402b400c002000084
:020000040000fa
:0402b800c002000080
:020000040000fa
:0402bc00c00200007c
:020000040000fa
:0402c000c002000078
:020000040000fa
:0402c400c002000074
:020000040000fa
:0402c800c002000070
:020000040000fa
:0402cc00c00200006c
:020000040000fa
:0402d000c002000068
:020000040000fa
:0402d400c002000064
:020000040000fa
:0402d800c002000060
:020000040000fa
:0402dc00c00200005c
:020000040000fa
:0402e000c002000058
:020000040000fa
:0402e400c002000054
:020000040000fa
:0402e800c002000050
:020000040000fa
:0402ec00c00200004c
:020000040000fa
:0402f000c002000048
:020000040000fa
:0402f400c002000044
:020000040000fa
:0402f800c002000040
:020000040000fa
:0402fc00c00200003c
:020000040000fa
:04030000c002000037
:020000040000fa
:04030400c002000033
:020000040000fa
:04030800c00200002f
:020000040000fa
:04030c00c00200002b
:020000040000fa
:04031000c002000027
:020000040000fa
:04031400c002000023
:020000040000fa
:04031800c00200001f
:020000040000fa
:04031c00c00200001b
:020000040000fa
:04032000c002000017
:020000040000fa
:04032400c002000013
:020000040000fa
:04032800c00200000f
:020000040000fa
:04032c00c00200000b
:020000040000fa
:04033000c002000007
:020000040000fa
:04033400c002000003
:020000040000fa
:04033800c0020000ff
:020000040000fa
:04033c00c0020000fb
:020000040000fa
:04034000c0020000f7
:020000040000fa
:04034400c0020000f3
:020000040000fa
:04034800c0020000ef
:020000040000fa
:04034c00c0020000eb
:020000040000fa
:04035000c0020000e7
:020000040000fa
:04035400c0020000e3
:020000040000fa
:04035800c0020000df
:020000040000fa
:04035c00c0020000db
:020000040000fa
:04036000c0020000d7
:020000040000fa
:04036400c0020000d3
:020000040000fa
:04036800c0020000cf
:020000040000fa
:04036c00c0020000cb
:020000040000fa
:04037000c0020000c7
:020000040000fa
:04037400c0020000c3
:020000040000fa
:04037800c0020000bf
:020000040000fa
:04037c00c0020000bb
:020000040000fa
:04038000c0020000b7
:020000040000fa
:04038400c0020000b3
:020000040000fa
:04038800c0020000af
:020000040000fa
:04038c00c0020000ab
:020000040000fa
:04039000c0020000a7
:020000040000fa
:04039400c0020000a3
:020000040000fa
:04039800c00200009f
:020000040000fa
:04039c00c00200009b
:020000040000fa
:0403a000c002000097
:020000040000fa
:0403a400c002000093
:020000040000fa
:0403a800c00200008f
:020000040000fa
:0403ac00c00200008b
:020000040000fa
:100400002f8020000eff20000e0188000000000059
:10041000000020000000e000020032000001200087
:10042000200288000c000700407520000100200019
:1004300011000700000020000000e0000200320070
:100440000000020000000000d206020000000000d0
:100450000040da000000fe004440a9000000200037
:100460000000e0000300320000002000a00188002e
:100470004440a80000000600910188008000780038
:100480000000eb0015003700e280400032a0b4000d
:100490009101ba00e280400032a0b4009102ba009b
:1004a000e280400032a0b4000002eb00472bde00e7
:1004b000f507b200602ce10004003a000059eb009f
:1004c0008301e900fdff3e00040037006128e100e0
:1004d000010032000082eb000b00070011c3ba00dc
:1004e0001101ba000604e00003003a000200e00037
:1004f000e5ff3a0000000600f607b200960188000a
:1005000082007800f5ff37003159ba008301e90015
:100510000c0032002159ba008301e90008003200c2
:100520000400e00003003a00e280400032a0b40082
:10053000f5ff370011d9ba008301e900faff3a004c
:100540008100e800e180400032a0b4000000060015
:100550000000fa008020a900ffff37000000fa0029
:100560008060a900ffff37000000fa008040a9006a
:10057000ffff37000000fa008080a900ffff37006e
:080580000000fa00ffff370044
:020000040000fa
:100588000000fa000080fa00000006000000fa00ef
:10059800c002a800c802a800c822a800e004a80059
:1005a800e204a800e224a800c862a800e264a80047
:1005b8004023ef005023ef0020002000201a88007d
:1005c8004223ef000080fa00000006001000fa0045
:1005d800500798006107980001c8bf000040e80074
:1005e80001e8b7000040eb00004f78001100370029
:1005f8001e00fb0000004000ee00900080804000dc
:100608001e00fb00000040006e0190000000410049
:10061800100178001e00fb0000004000de01900081
:100628000080410010007800000041008008780038
:100638001e4fe8001e407800e24f5000ecff3400e7
:1006480001c8bf00f44f50007e003a000040eb00a4
:10065800004f7800120037001e00fb000000400029
:10066800ee00900080804000710798001e00fb009b
:10067800000040006e019000000041001001780069
:1006880001c8bf000080fb0080017800110009004c
:100698000381d800fe009000800878001e4fe80013
:1006a8001e407800e34f5000ebff34006000b800b4
:1006b8006011b800100798002107980032079800c9
:1006c800430798000040eb00004f780059003700be
:1006d8001e00fb0000004000ee009000008040007b
:1006e80090007800e0072000808f50000e003e0048
:1006f8001e00fb0000004000ee009000008040005b
:1007080090007800c00b2000808f50000600360053
:100718001e00fb0000004000000047000080e800c9
:1007280011002000010878001e00fb0000004000b6
:10073800ee0090000080400090007800c00b200080
:10074800808f50000e003e001e00fb00000040009d
:10075800ee0090000080400090007800b00e20006d
:10076800808f5000060036001e00fb00000040008d
:10077800000047000080e800210020000108780000
:100788001e00fb0000004000ee00900000804000ca
:1007980090007800b00e2000808f50000e003e00c0
:1007a8001e00fb0000004000ee00900000804000aa
:1007b80090007800a0112000808f500006003600bd
:1007c8001e00fb0000004000000047000080e80019
:1007d80031002000010878001e00fb0000004000e6
:1007e800ee0090000080400090007800a0112000ea
:1007f800808f50000e003e001e00fb0000004000ed
:10080800ee0090000080400090007800801a2000e0
:10081800808f5000060036001e00fb0000004000dc
:10082800000047000080e80041002000010878002f
:100838001e4fe8001e407800e34f5000a4ff34002c
:100848000168ef000080fa00000006000200fa00cc
:10085800000f780000c8bf000080fb00e10f5000c7
:1008680013003200e10f500003003c000000e000dc
:100878000600320028003700e20f50001400320052
:10088800e30f50001b0032002300370041e3a900aa
:10089800411a800000fe2f00008060000010a000b8
:1008a800401a880041e3a800001a80001a003700a7
:1008b80041e3a900411a800000fe2f00008060007b
:1008c800401a880041e3a800001a8000120037008f
:1008d80041e3a900411a800000fe2f00008060005b
:1008e8005000b300401a880041e3a800001a8000b5
:1008f8000900370041e3a900411a800000fe2f00db
:10090800008060003000b300401a880041e3a8006e
:10091800001a8000000000004023a80000fa200010
:1009280001002000500107004023a900000000003a
:10093800001a8000610060000000e000fcff320047
:1009480000c8bf000080fb00e10f50000e0032001d
:10095800e10f500003003c000000e00006003200f8
:1009680017003700e20f50000b003200e30f500071
:100978000e00320012003700011880001e007800b7
:10098800010878000e0037001e80e800011880007a
:10099800010878000a0037009e0078006480400053
:1009a8000118800001087800050037001e01780052
:1009b800660041000118800001087800000000006e
:1009c80000c8bf000080fb008000e8004000200055
:1009d80000017800110009008200d8008000fd00a5
:1009e8000040780000e8b7000080fa000000060028
:1009f8000000fa006481a900200b80000000a0001c
:100a08000010a1000020a0000030a100200b8800e9
:100a180064a1a9006561a900200b80000080a100e5
:100a28000090a10000a0a100200b8800200b8000ee
:100a38000060a1000070a100200b880066e1a900f9
:100a4800310b800000fe2f0000806000300b880012
:100a58006b01a8006b21a800700b80000080a1002a
:100a68000090a10000a0a100700b88006ea1a90051
:100a78006e81a8007421ef000080eb00c00b880095
:100a880000002100e00b880000002800000c88000e
:100a980065e1a8000080fa00000006000000fa00e6
:100aa800cd62a900004c2d0011002000ee000700c7
:100ab800c442a800c462a800cd42a800cd42a90043
:100ac800c0c2b3001100070080022000010020000e
:100ad800e5000700c0c0b3000c000700800220003a
:100ae80001002000e000070010c0b3000700070065
:100af80000f4210001002000db00070070c0b300f3
:100b0800020007000080fa00000006000200fa0058
:100b1800004f78001e4078000004e00002003d000d
:100b2800c482a80001003700c482a9009e80fb008f
:100b380000042000008060000000e0000200320095
:100b4800cc82a80001003700cc82a9009e80fb005f
:100b580000022000008060000000e0000200320077
:100b6800c462a80001003700c462a9001e80fb000f
:100b7800700060000000e00002003200c442a800db
:100b880001003700c442a900cd42a800cd42a90007
:100b98001e80fb00680060000000e00002003200d8
:100ba800c482a80001003700c482a9001e80fb008f
:100bb800640060000000e00002003200cc82a8005f
:100bc80001003700cc82a9001e80fb006200600093
:100bd8000000e00002003200c462a80001003700f3
:100be800c462a9001e80fb0061006000004078001c
:100bf8000004e00002003200c442a80001003700ef
:100c0800c442a900cd42a800cd42a900000a200094
:100c180001002000940007000080fa000000060090
:100c28000000fa00cd62a90010c0b300b7ff0700aa
:100c380000f42100010020008b0007000080fa006a
:100c4800000006000200fa00000f7800cd62a8003c
:100c5800040037001e007800104078001e0fe800de
:100c6800aaff07001e007800104078000004e0008a
:100c7800f8ff3a000080fa00000006000200fa00bf
:100c8800004f7800cd62a8001e4078009fff070043
:100c98000080fa00000006000200fa00004f780009
:100ca800cd62a90000c8b3001e40400097ff0700ae
:100cb8000080fa00000006000200fa00004f7800e9
:100cc800e384a900c982a900cd82a9006b01a8000c
:100cd8001e80fb00e20f500008003200e30f5000b6
:100ce8000a003200e10f50000c003a007421ef00b6
:100cf8000080eb00c00b8800090037007421ef006a
:100d08000080eb00c00b8800050037007421ef005d
:100d18000080eb00c00b88000100370000000000d5
:100d280065e1a8000080fa00000006000200fa0051
:100d3800004f7800c962a900cd62a9006b21a80004
:100d48001e80fb00e20f500008003200e30f500045
:100d58000a003200e10f50000c003a007421ef0045
:100d68000080eb00c00b8800090037007421ef00f9
:100d78000080eb00c00b8800050037007421ef00ed
:100d88000080eb00c00b8800010037000000000065
:100d980065e1a8000080fa00000006000a00fa00d9
:100da80043000700f6fd0700f8fd070010ff0700e5
:100db8000040eb00004f7800070037001e80fb0062
:100dc80000004000000047000080e8008000eb00c1
:100dd800010878001e4fe8001e407800e34f5000dd
:100de800f6ff36000300370000000000010037005e
:100df800000000000040eb00004f780003003700bf
:100e08000e80e80091fe07001e4fe8001e407800a3
:100e1800e34f5000faff36004e009000ee0f5000ee
:100e280007003e004e0090000000e0000400320081
:100e380020002000a0ff070000000000edff3700a1
:100e4800ce009000e00f2000808f5000e6ff3e00ab
:100e58004e009000ef0f5000e5ff360030002000f4
:080e680095ff0700e3ff3700ce
:020000040000fa
:100e7000f03fb1000180b10006003500ee0309002b
:100e800000000000403fb1000180b100fbff3d00c9
:100e90001000b000203fb0000200350000800900c3
:080ea000000000000000060044
:020000040000fa
:100ea8000008000002000000000000006207800047
:020000040000fa
:0c0eb8000000fa000080fa0000000600b4
:020000040000fa
:040ec400000000002a
:020000040000fa
:0200000401f009
:04000000ffff0000fe
:020000040000fa
:0200000401f009
:04000800ffff0000f6
:020000040000fa
:0200000401f009
:04000c00ffff0000f2
:020000040000fa
:0200000401f009
:04001000bfff00002e
:020000040000fa
:0200000401f009
:04001400ffff0000ea
:020000040000fa
:0200000401f009
:04001800ffff0000e6
:020000040000fa
:0200000401f009
:04001c00fdff0000e4
:00000001FF
