:020000040000fa
:080000000002040000000000f2
:020000040000fa
:04000800620300008f
:020000040000fa
:04000c004a030000a3
:020000040000fa
:040010005003000099
:020000040000fa
:04001400560300008f
:020000040000fa
:040018005c03000085
:020000040000fa
:04001c00620300007b
:020000040000fa
:040020006203000077
:020000040000fa
:040024006203000073
:020000040000fa
:04002800620300006f
:020000040000fa
:04002c00620300006b
:020000040000fa
:040030006203000067
:020000040000fa
:040034001c030000a9
:020000040000fa
:04003800620300005f
:020000040000fa
:04003c00620300005b
:020000040000fa
:040040006203000057
:020000040000fa
:040044006203000053
:020000040000fa
:04004800620300004f
:020000040000fa
:04004c00620300004b
:020000040000fa
:040050006203000047
:020000040000fa
:04005400ac020000fa
:020000040000fa
:04005800620300003f
:020000040000fa
:04005c00620300003b
:020000040000fa
:040060006203000037
:020000040000fa
:040064006203000033
:020000040000fa
:04006800620300002f
:020000040000fa
:04006c00620300002b
:020000040000fa
:040070006203000027
:020000040000fa
:040074006203000023
:020000040000fa
:04007800620300001f
:020000040000fa
:04007c00620300001b
:020000040000fa
:040080006203000017
:020000040000fa
:040084006203000013
:020000040000fa
:04008800620300000f
:020000040000fa
:04008c00620300000b
:020000040000fa
:040090006203000007
:020000040000fa
:040094006203000003
:020000040000fa
:0400980062030000ff
:020000040000fa
:04009c0062030000fb
:020000040000fa
:0400a00062030000f7
:020000040000fa
:0400a40062030000f3
:020000040000fa
:0400a80062030000ef
:020000040000fa
:0400ac0062030000eb
:020000040000fa
:0400b00062030000e7
:020000040000fa
:0400b40062030000e3
:020000040000fa
:0400b80062030000df
:020000040000fa
:0400bc0062030000db
:020000040000fa
:0400c00062030000d7
:020000040000fa
:0400c40062030000d3
:020000040000fa
:0400c80062030000cf
:020000040000fa
:0400cc0062030000cb
:020000040000fa
:0400d00062030000c7
:020000040000fa
:0400d40062030000c3
:020000040000fa
:0400d80062030000bf
:020000040000fa
:0400dc0062030000bb
:020000040000fa
:0400e00062030000b7
:020000040000fa
:0400e40062030000b3
:020000040000fa
:0400e80062030000af
:020000040000fa
:0400ec0062030000ab
:020000040000fa
:0400f00062030000a7
:020000040000fa
:0400f40062030000a3
:020000040000fa
:0400f800620300009f
:020000040000fa
:0400fc00620300009b
:020000040000fa
:040100006203000096
:020000040000fa
:040104006203000092
:020000040000fa
:04010800620300008e
:020000040000fa
:04010c00620300008a
:020000040000fa
:040110006203000086
:020000040000fa
:040114006203000082
:020000040000fa
:04011800620300007e
:020000040000fa
:04011c00620300007a
:020000040000fa
:040120006203000076
:020000040000fa
:040124006203000072
:020000040000fa
:04012800620300006e
:020000040000fa
:04012c00620300006a
:020000040000fa
:040130006203000066
:020000040000fa
:040134006203000062
:020000040000fa
:04013800620300005e
:020000040000fa
:04013c00620300005a
:020000040000fa
:040140006203000056
:020000040000fa
:040144006203000052
:020000040000fa
:04014800620300004e
:020000040000fa
:04014c00620300004a
:020000040000fa
:040150006203000046
:020000040000fa
:040154006203000042
:020000040000fa
:04015800620300003e
:020000040000fa
:04015c00620300003a
:020000040000fa
:040160006203000036
:020000040000fa
:040164006203000032
:020000040000fa
:04016800620300002e
:020000040000fa
:04016c00620300002a
:020000040000fa
:040170006203000026
:020000040000fa
:040174006203000022
:020000040000fa
:04017800620300001e
:020000040000fa
:04017c00620300001a
:020000040000fa
:040180006203000016
:020000040000fa
:040184006203000012
:020000040000fa
:04018800620300000e
:020000040000fa
:04018c00620300000a
:020000040000fa
:040190006203000006
:020000040000fa
:040194006203000002
:020000040000fa
:0401980062030000fe
:020000040000fa
:04019c0062030000fa
:020000040000fa
:0401a00062030000f6
:020000040000fa
:0401a40062030000f2
:020000040000fa
:0401a80062030000ee
:020000040000fa
:0401ac0062030000ea
:020000040000fa
:04020800620300008d
:020000040000fa
:04020c006203000089
:020000040000fa
:040210006203000085
:020000040000fa
:040214006203000081
:020000040000fa
:04021800620300007d
:020000040000fa
:04021c006203000079
:020000040000fa
:040220006203000075
:020000040000fa
:040224006203000071
:020000040000fa
:04022800620300006d
:020000040000fa
:04022c006203000069
:020000040000fa
:040230006203000065
:020000040000fa
:040234006203000061
:020000040000fa
:04023800620300005d
:020000040000fa
:04023c006203000059
:020000040000fa
:040240006203000055
:020000040000fa
:040244006203000051
:020000040000fa
:04024800620300004d
:020000040000fa
:04024c006203000049
:020000040000fa
:040250006203000045
:020000040000fa
:040254006203000041
:020000040000fa
:04025800620300003d
:020000040000fa
:04025c006203000039
:020000040000fa
:040260006203000035
:020000040000fa
:040264006203000031
:020000040000fa
:04026800620300002d
:020000040000fa
:04026c006203000029
:020000040000fa
:040270006203000025
:020000040000fa
:040274006203000021
:020000040000fa
:04027800620300001d
:020000040000fa
:04027c006203000019
:020000040000fa
:040280006203000015
:020000040000fa
:040284006203000011
:020000040000fa
:04028800620300000d
:020000040000fa
:04028c006203000009
:020000040000fa
:040290006203000005
:020000040000fa
:040294006203000001
:020000040000fa
:0402980062030000fd
:020000040000fa
:04029c0062030000f9
:020000040000fa
:0402a00062030000f5
:020000040000fa
:0402a40062030000f1
:020000040000fa
:0402a80062030000ed
:020000040000fa
:0402ac0062030000e9
:020000040000fa
:0402b00062030000e5
:020000040000fa
:0402b40062030000e1
:020000040000fa
:0402b80062030000dd
:020000040000fa
:0402bc0062030000d9
:020000040000fa
:0402c00062030000d5
:020000040000fa
:0402c40062030000d1
:020000040000fa
:0402c80062030000cd
:020000040000fa
:0402cc0062030000c9
:020000040000fa
:0402d00062030000c5
:020000040000fa
:0402d40062030000c1
:020000040000fa
:0402d80062030000bd
:020000040000fa
:0402dc0062030000b9
:020000040000fa
:0402e00062030000b5
:020000040000fa
:0402e40062030000b1
:020000040000fa
:0402e80062030000ad
:020000040000fa
:0402ec0062030000a9
:020000040000fa
:0402f00062030000a5
:020000040000fa
:0402f40062030000a1
:020000040000fa
:0402f800620300009d
:020000040000fa
:0402fc006203000099
:020000040000fa
:040300006203000094
:020000040000fa
:040304006203000090
:020000040000fa
:04030800620300008c
:020000040000fa
:04030c006203000088
:020000040000fa
:040310006203000084
:020000040000fa
:040314006203000080
:020000040000fa
:04031800620300007c
:020000040000fa
:04031c006203000078
:020000040000fa
:040320006203000074
:020000040000fa
:040324006203000070
:020000040000fa
:04032800620300006c
:020000040000fa
:04032c006203000068
:020000040000fa
:040330006203000064
:020000040000fa
:040334006203000060
:020000040000fa
:04033800620300005c
:020000040000fa
:04033c006203000058
:020000040000fa
:040340006203000054
:020000040000fa
:040344006203000050
:020000040000fa
:04034800620300004c
:020000040000fa
:04034c006203000048
:020000040000fa
:040350006203000044
:020000040000fa
:040354006203000040
:020000040000fa
:04035800620300003c
:020000040000fa
:04035c006203000038
:020000040000fa
:040360006203000034
:020000040000fa
:040364006203000030
:020000040000fa
:04036800620300002c
:020000040000fa
:04036c006203000028
:020000040000fa
:040370006203000024
:020000040000fa
:040374006203000020
:020000040000fa
:04037800620300001c
:020000040000fa
:04037c006203000018
:020000040000fa
:040380006203000014
:020000040000fa
:040384006203000010
:020000040000fa
:04038800620300000c
:020000040000fa
:04038c006203000008
:020000040000fa
:040390006203000004
:020000040000fa
:040394006203000000
:020000040000fa
:0403980062030000fc
:020000040000fa
:04039c0062030000f8
:020000040000fa
:0403a00062030000f4
:020000040000fa
:0403a40062030000f0
:020000040000fa
:0403a80062030000ec
:020000040000fa
:0403ac0062030000e8
:020000040000fa
:100400000f8320000eff20000e0188000000000076
:10041000000020000000e000020032000001200087
:10042000200288000c000700003421000100200099
:1004300011000700000020000000e0000200320070
:100440000000020000000000201202000000000076
:100450000040da000000fe004440a90040022000f5
:100460000000e0000300320000002000a00188002e
:100470004440a80000000600910188008000780038
:100480000000eb0015003700e280400032a0b4000d
:100490009101ba00e280400032a0b4009102ba009b
:1004a000e280400032a0b4000002eb00472bde00e7
:1004b000f507b200602ce10004003a000059eb009f
:1004c0008301e900fdff3e00040037006128e100e0
:1004d000010032000082eb000b00070011c3ba00dc
:1004e0001101ba000604e00003003a000200e00037
:1004f000e5ff3a0000000600f607b200960188000a
:1005000082007800f5ff37003159ba008301e90015
:100510000c0032002159ba008301e90008003200c2
:100520000400e00003003a00e280400032a0b40082
:10053000f5ff370011d9ba008301e900faff3a004c
:100540008100e800e180400032a0b4000000060015
:1005500000000000000000003600f800809fbe0090
:10056000829fbe00849fbe00869fbe003400f800bc
:1005700000002000a00188000000fa002104800093
:10058000f07f2f0000806000200488000000000041
:100590002104800000802000008060000000e00056
:1005a000fbff3a00e30707000040780020e8b700af
:1005b00028c8bf000004e0000a003a0020c8bf00bd
:1005c0000080fb0010418800104180004800dd00e1
:1005d0001041880028c8bf000040e80028e8b700a4
:1005e0000900370028c8bf00e14f500006003a005c
:1005f00020c8bf008080fb001041800000804000c8
:10060000104188002868ef0021048000f07f2f004f
:1006100000806000200488000080fa003400f900a7
:100620004f03be004f02be004f01be004f00be0090
:100630003600f90000400600809fbe003400f8003c
:1006400000002000a00188000000fa0020168000b1
:10065000620060000000e00004003a00c422a8002c
:10066000604180001008880005003700c422a900fe
:100670006041800031c929000080500010088800c6
:100680008460a9000080fa003400f9004f00be0029
:10069000004006000000fa008020a900ffff37009c
:1006a0000000fa008060a900ffff37000000fa0098
:1006b0008040a900ffff37000000fa008080a900f9
:1006c000ffff37000000fa00ffff370003f0a20031
:1006d000889fbe008a9fbe008c1f78007c010700a7
:1006e000830133006450e1004f0032006420e100d8
:1006f0005200320003826c0007003b000905d00065
:100700000306d000820f54000c065d000200390081
:1007100002003200890178000306780085825500c6
:1007200004003d000003fd008103fd008502ea0096
:100730008b854200840f720002003b0060001000b5
:10074000e08018006011b8000005eb007a28e10095
:100750000a00390006007800c75ddd00f707b20027
:10076000878075002d003700828171000a017800b2
:10077000610560008180d1000080d3008502e9001e
:10078000f9ff3b00060440008784480002003b005c
:1007900060041400e0841c000988a30007003200f4
:1007a0008a81710082817100610164008904d10035
:1007b0000884d3008b05e800170037000978a300f0
:1007c00013003a000b00e000130034008b05e90031
:1007d0000804440089844c000a4474000978a3008a
:1007e0000d003a000b00e000070034008b05e90023
:1007f0000804440089844c0001003a000b002000ea
:100800000978a300f7ff32000001eb000200370077
:10081000828171000a017800f20007000cf0a70045
:1008200001f0a0003b0137006420e10002003a0023
:10083000838f6c003b0133000801be000200be0044
:1008400034013700889fbe008a9fbe008c1f78004d
:100850001f0107001002200002003b0070418800c9
:10086000230137008a0062006408e10002003a00b8
:10087000704188002b0137006108e100fcff320065
:100880000800be00030478007000070001f0a1001a
:100890000900070008f0a600040037000001be00b0
:1008a00091042400b0fd200088ff070009f0a70094
:1008b00001f0a20017013700889fbe008a9fbe008a
:1008c0008c9fbe000004be00ec0007000800be00c4
:1008d000890678006420e100080039000400320035
:1008e0000160a0001202200072418800530037000e
:1008f00091fc2300b0fd20004e0037000006eb0005
:1009000009f0a10003f82300020020000800be0047
:10091000900007000600340001f8230000002000ca
:100920000801be00490007000004be002c002000a2
:100930000800be0093e82300320a23008500070068
:10094000120034000801be00d1fd2300703d2b00d1
:100950005fff07000005be00b3f32300f27a260014
:100960000800be00f200070003f823000200200088
:1009700056ff07000801be0055ff07000a01be0030
:10098000320007000004be000c06e8000800be00ac
:1009900001f0a10002002000039823006d00070071
:1009a0000800be00160035000801be00e000070088
:1009b0000005be0032cd2c0043fb230044ff07009e
:1009c000809fbe001269280003d52b000a00be00dc
:1009d000d7000700620f210013ef2b003cff070038
:1009e0000a01be00d20007004f01be001700070039
:1009f0000801be00ce0007000801be0034ff07005a
:100a00000c00e0000b0032000c10a70001f0a20067
:100a1000b2fd200093fc23006260e100040032007c
:100a200022a9200063f023000c10a70063f8230024
:100a300027ff07000df0a70001f0a2004f06be003f
:100a40004f05be004f04be0000000600889fbe0098
:100a50008a9fbe008c1f78009d000700a400330011
:100a600003866c006450e1002e0032006420e10037
:100a7000330032006150e1002f0032006120e100bc
:100a80003100320085855500eb07b00009002000d9
:100a900008042000050037000804440089844c0045
:100aa0000a0031000603430087834b000001530016
:100ab00081815b00f8ff33000203be000800a00044
:100ac0000804440089844c00f6ff3900c639dd0073
:100ad0008301730001003200130020008904d1005b
:100ae0000884d3000998a300050032000800a7007d
:100af0000300a0008904d1000884d3008b05e8001e
:100b00008904d1000884d3000001eb000281d200e7
:100b10003400070001f0a1000cf0a70001f0a000d4
:100b20007c0037006420e1007e0032000801be0036
:100b30000200be00f7ff37006120e10079003200bb
:100b40006000b800f3ff37000000200001f8270024
:100b5000f0ff370014002000bc003700f4ff2f0026
:100b6000ba0037000001be00440007000470a7006f
:100b700003f0a10003f8a30013003a006509b100d7
:100b800010003200090035006928e100020035003c
:100b9000010028000000050000004000818048009e
:100ba0008502e900fcff3a0000000600f88f4200d1
:100bb000050035008100d1000080d3008502e800e7
:100bc000fcff3a00000006008000eb00000005007a
:100bd0004f89de0082017800b70037006011b8004d
:100be000c500370081002000618055000b003d00ea
:100bf0000b00200061fe2f000100e1001d00340009
:100c000082817100610164008904d1000884d300ed
:100c10000000e800faff3a00710020006100640063
:100c2000030070000200600009003200610444000b
:100c3000e0844c000988a500050032008b05e8001f
:100c40006808e10002003a008904d1000884d3005a
:100c5000f20f20000258e10005003d00c75ddd00f5
:100c6000f907b200898075000800780000000600ce
:100c70000bf827008b00780000000500c70ade0093
:100c8000f107b200f50fb20008003200e1cf4200d8
:100c9000020032000170a00024000500810f7000e6
:100ca000010032000408050044000500810f7000b7
:100cb00002003a00140005008502e900000040002f
:100cc00081c04800fcff3b000170a000240005002b
:100cd0000004be00e9ff07000003be000405be00db
:100ce0000200be00e5ff0700844f7500000006000b
:100cf0000200be006450e100050036006420e100ff
:100d0000020036000968a30001003a000800be0096
:100d10000160a0004f0678004f05be004f04be00e2
:100d200000000600f0ff2f00f1ff2700f9ff370059
:100d3000889fbe008a9fbe008c1f7800e4ff0700da
:100d4000ebff330003866c006450e10024003200a6
:100d50006420e100270032006150e10022003200ef
:100d60006120e100210032008b854200eb07b100d9
:100d70000134b800003ab8000804420089844a00ef
:100d8000013ab8000030b8008880400009014a00ec
:100d90000400330000004000818048000201490047
:100da0008b05e900c909dd008301700001003200f4
:100db00013002000c814de004814dd004709de00df
:100dc0001200b200c808de000884700085ff07002a
:100dd00001f0a1000cf0a70001f0a000cdff37004a
:100de0006120e100cfff32000801be000200be001a
:100df000f7ff37006150e100fcff3a00c9ff370000
:100e00006022b800060220000000d0008180d200dd
:100e10000482d2008582d2000000a00002025200ab
:100e200083825a00030031000202420083824a009a
:100e30000000a1000603e900f3ff3a0000000600ed
:100e4000efff07000400be0000000600889fbe0000
:100e50008a9fbe00841f78009dff07004f00780026
:100e600011003300f0ff2f00838f6c0006003b0061
:100e7000040565000a00a7000800370009f0a60075
:100e80001000200008003700820f5400838f5c00a0
:100e9000030039001000200001003e000000200087
:100ea00009f0a7000000ea004f05be004f04be0095
:100eb0000000e00000000600881f780003047800ae
:100ec0000300e00007003d0060001000e080180013
:100ed00060011900e081190002003b0001f02d00c3
:100ee000030037000400070008f0a70001f0a0008d
:100ef0004f04780000000600889fbe008a9fbe0055
:100f00000082700004027100048271002600320029
:100f10000004be000200be006011b8006b09200092
:100f2000950220000182cf000a0039000541b1007e
:100f30000082cf00070039000541b1000982cf00cf
:100f4000040039000541b1000882cf0001003900da
:100f50000541b10005425200120032000a003b0078
:100f600082817100610164008100d1000080d300a2
:100f70008984d3000884d3008b05e8000442e8008c
:100f8000f7ff3a00070037000804440089844c004a
:100f900000004800818048008b05e9000442e90018
:100fa000f9ff3a000fff07004f05be004f04be00d7
:100fb00000000600800178000200370081597800a7
:100fc0000201e9000200e000fcff3a000000060018
:020000040000fa
:100fd000646f0000776e0000207300006c6f0000eb
:100fe0007700000055500000207300006c6f000077
:100ff00077000000737400006f7000002100000093
:101000003031000032330000343500003637000044
:08101000383900000000000067
:020000040000fa
:101018000000fa00cda2a90000982a0031002000a3
:10102800ac050700c482a900cc82a900c462a8004c
:10103800c442a800cd42a800cd42a90000882300e0
:1010480011002000a3050700cd42a800cd42a90049
:1010580000642000010020009e050700cd42a80082
:10106800cd42a9000088230011002000990507003f
:10107800c482a900cc82a900c462a800c442a90005
:10108800cd42a800cd42a90000402c0091002000cc
:101098009005070080c2b3000800070080c0b300b5
:1010a80006000700c0c0b3000400070060c0b3001a
:1010b800020007000080fa00000006000200fa00a3
:1010c800004f7800cda2a9001e4078000004e0007f
:1010d80002003d00c482a80001003700c482a900b4
:1010e8009e80fb0000042000008060000000e000fb
:1010f80002003200cc82a80001003700cc82a9008f
:101108009e80fb0000022000008060000000e000dc
:1011180002003200c462a80001003700c462a900be
:101128001e80fb00700060000000e000020032003a
:10113800c442a80001003700c442a900cd42a8005b
:10114800cd42a9001e80fb00680060000000e0009e
:1011580002003200c482a80001003700c482a9003e
:101168001e80fb00640060000000e0000200320006
:10117800cc82a80001003700cc82a9001e80fb00a9
:10118800620060000000e00002003200c462a800b3
:1011980001003700c462a9001e80fb0061006000e6
:1011a800004078000004e00002003200c442a800b9
:1011b80001003700c442a900cd42a800cd42a900d1
:1011c8000028200001002000420507000080fa00e6
:1011d800000006000200fa00004f7800cda2a80027
:1011e8001e4078000004e00002003d00c482a80010
:1011f80001003700c482a9009e80fb000004200083
:10120800008060000000e00002003200cc82a800ec
:1012180001003700cc82a9009e80fb00000220005c
:10122800008060000000e00002003200c462a800f4
:1012380001003700c462a9001e80fb007000600036
:101248000000e00002003200c442a800010037009c
:10125800c442a900cd42a800cd42a9001e80fb00cf
:10126800680060000000e00002003200c482a800ac
:1012780001003700c482a9001e80fb0064006000e2
:101288000000e00002003200cc82a8000100370014
:10129800cc82a9001e80fb00620060000000e00014
:1012a80002003200c462a80001003700c462a9002d
:1012b8001e80fb0061006000004078000004e00030
:1012c80002003200c442a80001003700c442a9004d
:1012d800cd42a800cd42a90000282000010020002e
:1012e800fc0407000080fa00000006000000fa0075
:1012f80010c0b30071ff070000d0270001002000d4
:10130800f40407000080fa00000006000200fa005a
:10131800000f78000c0037001e007800104078009d
:10132800ed4f500004003a0021c0b30010c0b300d4
:1013380011000700030037001e00780010407800f5
:10134800a4ff07001e0fe8001e0078001040780078
:101358000004e000f0ff3a000080fa0000000600f8
:101368000200fa00004f78001e40780099ff07003d
:101378000080fa00000006000200fa00004f780022
:10138800114798001e409000e14f500003003a00ba
:10139800f1c7b3001ec0400048ff07001e40900080
:1013a800e24f500003003a00f0cbb3001e4040006b
:1013b80042ff07000080fa00000006000200fa0061
:1013c800004f78001e407800e14f500003003a00bb
:1013d800c0c0b30039ff07000200370080c0b30067
:1013e80036ff07000080fa00000006001000fa002f
:1013f800889fbe005007980061079800624f9800c8
:10140800a000200001002000300798004107980044
:1014180018c0b3006011b8005e009000ee009000a4
:10142800cafd07000000e000010035000044eb00a1
:101438000804e00007003200d0c2b300c8ff07006c
:101448005e009000ee00900001f0a20050079800a6
:10145800610798000040eb00004f7800110037004a
:101468004e0090006a00b900000178003e0090002c
:101478006000b9000000780000014100be00900043
:10148800a00020000008b800010141008200780097
:1014980030079800410798003007980041079800e6
:1014a8001e4fe8006e4890009e40780080cf5000a4
:1014b800ebff39003e009000ce009000c5fd07000c
:1014c8000004be005e009000ee009000a3fd07003f
:1014d800c0fd07000001be005e009000ee00900015
:1014e80078fc07000001be000800be000efe0700e1
:1014f8009afd070010079800210798001e00900029
:10150800ae009000a2002000030020004afe070061
:101518000001be004000200001002000800f5100a3
:10152800818f5900060036001e009000ae00900022
:101538006a004000e08048001007980021079800e2
:101548003e009000ce00900061015000e0815800fc
:101558001e009000ae009000800f5100818f59004e
:101568000a0031000200200003f823005e0090000a
:10157800ee00900054fc070050079800610798009f
:101588006000b80010079800210798005e009000de
:10159800ee00900071fd0700310007006e489000d2
:1015a8000004e0002b003200c0c2b3006cff07004b
:1015b8003e009000ce00900042062000030020006c
:1015c8000dfe070030079800410798001e009000a4
:1015d800ae009000a20020000300200006fe0700d5
:1015e80010079800210798000c00370000c3b300cb
:1015f8005bff07003e009000ce009000a200200094
:1016080003002000fcfd0700300798004107980000
:101618006e4890000040e900604f98003e0190003d
:10162800ce0190001e009000ae009000f2fd070071
:10163800e00f5000e08f580003003a006e48900019
:10164800e14f5000e9ff3e001e009000ae00900000
:10165800030007004f04be000080fa0000000600e7
:101668000600fa00889fbe0010079800210798001e
:101678000040eb00004f78001e84fb0059418000b9
:101688001e009000ae009000a20020000300200081
:10169800e9fd070000007800008044001040780051
:1016a8008040780000802000000044000148780055
:1016b8001e009000ae009000a20020000300200051
:1016c800cdfd070010079800210798001e4fe8007d
:1016d8001e009000ae009000e00f5000e08f580010
:1016e800e5ff3a001e4fe9009e80fb0000802000c5
:1016f800008040001040780019ff07001e40780065
:101708000004e000f7ff3a004f04be000080fa0032
:10171800000006000000fa00c002a800e004a800cb
:10172800c802a800e204a800c822a800e224a80071
:10173800c862a800e264a800c982a900e384a900dd
:10174800c962a900c0e2a900c9a2a900e3a4a9002e
:10175800c942a900c042a900e044a900c062a9008a
:10176800e064a900c882a900e284a900c082a90097
:10177800e084a900c022a900e024a900c902a800a9
:10178800e304a900c922a800e324a900e244a900af
:10179800c842a800e2e4a900c8e2a9000080fa0053
:1017a800000006000000fa004023ef005023ef007d
:1017b80020002000201a88004223ef000080fa0051
:1017c800000006000800fa0010079800210798009a
:1017d80026c8bf000040e80026e8b7000040eb003c
:1017e800004f7800110037001e00fb000000400089
:1017f800ae009000808040001e00fb00000040000a
:101808002e01900000004100100178001e00fb002e
:10181800000040009e019000008041001000780008
:1018280000004100800878001e4fe8001e40780044
:10183800e34f5000ecff340026c8bf00ea4f5000c9
:1018480019003a000040eb00004f78001200370002
:101858001e00fb0000004000ae00900080804000a9
:10186800310798001e00fb00000040002e01900088
:10187800000041001001780026c8bf000080fb006e
:1018880080017800110009000381d800be00900093
:10189800800878001e4fe8001e407800e34f500093
:1018a800ebff34002668ef002e00900002000700ce
:1018b8000080fa00000006000200fa00881f780085
:1018c800000f78001e007800100078008000eb0000
:1018d800c0fc0700020020000305240012fd0700d9
:1018e80002002c00f347240056fc070018c0b30080
:1018f8006266260063fa230096fc07000000e000f9
:1019080001003d000044eb000804e0000100320043
:101918002408a8001e80e800100078008000eb0072
:10192800acfc07000200200003052400fefc0700b1
:1019380002002c00f347240042fc070018c0b30043
:101948006266260063fa230082fc07000000e000bc
:1019580001003d000044eb000804e00001003200f3
:101968002428a8009e0078006480400010007800b9
:101978008000eb0097fc070002002000030524000c
:10198800e9fc070002002c00f34724002dfc0700a7
:1019980018c0b3006266260063fa23006dfc0700d6
:1019a8000000e00001003d000044eb000804e000f6
:1019b800010032002448a8004f0478000080fa0093
:1019c800000006000200fa00000f780025c8bf00da
:1019d8000080fb00e10f500013003200e10f5000bf
:1019e80003003c000000e000060032002800370039
:1019f800e20f500014003200e30f50001b003200c9
:101a08002300370041e3a900411a800000fe2f009f
:101a1800008060000010a000401a880041e3a80080
:101a2800001a80001a00370041e3a900411a80001b
:101a380000fe2f0000806000401a880041e3a800e3
:101a4800001a80001200370041e3a900411a800003
:101a580000fe2f00008060005000b300401a88008c
:101a680041e3a800001a80000900370041e3a900fb
:101a7800411a800000fe2f00008060003000b30093
:101a8800401a880041e3a800001a80000000000006
:101a98004023a80000e82300010020000d030700f0
:101aa8004023a90000000000001a800061006000c7
:101ab8000000e000fcff320025c8bf000080fb00ea
:101ac800e10f50000e003200e10f500003003c000f
:101ad8000000e0000600320017003700e20f500057
:101ae8000b003200e30f50000e00320012003700e6
:101af800011880001e007800010878000e003700e9
:101b08001e80e80001188000010878000a003700ec
:101b18009e00780064804000011880000108780069
:101b2800050037001e01780066004100011880009a
:101b3800010878000000000025c8bf000080fb00f5
:101b48008000e80040002000000178001100090032
:101b58008200d8008000fd000040780025e8b7002a
:101b68000080fa00000006000600fa00200798002e
:101b78002e0090008000eb0016fc070002002000f9
:101b88000305240068fc070002002c00f34724002a
:101b9800acfb0700008fbe0032c0b3001e00be00c1
:101ba80012fe07000080fa00000006000000fa009c
:101bb8006481a900200b80000000a0000010a10093
:101bc8000020a0000030a100200b880064a1a9001b
:101bd8006561a900200b80000080a1000090a10091
:101be80000a0a100200b8800200b80000060a1004d
:101bf8000070a100200b880066e1a900310b80006d
:101c080000fe2f0000806000300b88006b01a800e8
:101c18006b21a800700b80000080a1000090a1003b
:101c280000a0a100700b88006ea1a9006e81a90018
:101c38007421ef00800c2000c00b88007c21ef008d
:101c48008021ef0065e1a8000080fa00000006008e
:101c58000000fa000421ef000021ef0020088000b6
:101c68000040a0000050a1002008880030c92900c9
:101c780010088800e0bb2000604188002005800033
:101c880000c0a00000d0a10000e0a100200588004d
:101c98008460a9009460a80005e1a8000080fa000b
:101ca800000006000200fa00881f7800000f780084
:101cb8009e00780066804000100078008000eb00ed
:101cc800c4fb0700020020000305240016fc0700df
:101cd80002002c00f34724005afb070018c0b30089
:101ce800323323003301240098fb07000000e00092
:101cf800010035000044eb000804e0000500320054
:101d0800807e280081fd0700100020009301070055
:101d18001c0037009e0078006680400010007800a4
:101d28008000eb00abfb0700020020000305240045
:101d3800fdfb070002002c00f347240041fb0700cd
:101d480018c0b300d2cc2c00c302240081fb0700ca
:101d58000000e00001003c000044eb000804e00043
:101d68000500320010c0b3004c010700207f280096
:101d780066fd070003003700a07f280063fd070009
:101d8800a60107004f0478000080fa000000060052
:101d98000000fa00900120004011880050058000e2
:101da8000000a1000010a1000020a000500588003c
:101db8004005800000c0a10000d0a10000e0a00004
:101dc800400588002222ef002022ef0021e2a8002f
:101dd8002342a8009560a8000080fa0000000600d1
:101de8000a00fa00300798004107980062002000b6
:101df8008000eb000e0078006cfc070080f42000e7
:101e080000000100007027001100200031020700c7
:101e18000e007800480007001e4078000080fb0094
:101e28008000ea003e009000010878003e00900023
:101e380010007800c800dd001e4090000080fb0004
:101e4800808050003e009000010878004e409000cd
:101e58000080fb008000ea004e0090000108780036
:101e68004e00900010007800c800dd005e40900031
:101e78000080fb00808050004e0090000108780030
:101e88000080fa00000006000000fa007d0007004c
:101e9800c0032000001088008600a9000000000090
:101ea80030048000610060000000e000fcff3200a8
:101eb8009b0007000004e00018003a002000200002
:101ec800001088008600a90000000000300480008f
:101ed800610060000000e000fcff32009000070095
:101ee8000004e0000f003a001000200000108800f5
:101ef8008600a90000000000300480006100600036
:101f08000000e000fcff3200850007000004e0004c
:101f180006003a00670007000500370000000000cf
:101f28000300370000000000010037000000000037
:101f38000080fa00000006000400fa00100798006c
:101f480050000700d0032000001088008600a90078
:101f58000000000030048000610060000000e00024
:101f6800fcff32006e0007000004e00036003a0073
:101f78000040eb00004f78002e00370035000700c6
:101f88008600a9000462a800000000003004800058
:101f9800610060000000e000fcff3200000000006b
:101fa80040108000610060000000e000fcff32008b
:101fb8001e407800e54f500009003a002500070050
:101fc80004a2a8000482a8000000000020108000dd
:101fd800700060000000e000fcff3a000e003700cf
:101fe8001c00070004a2a9000482a8000000000049
:101ff80020108000700060000000e000fcff3a0044
:102008000000000011108000000420000080600023
:102018000000e000fbff3a001e80fb009e009000dd
:10202800008040000110800081407800014878005d
:102038001e4fe8001e407800e54f5000cfff3600e5
:102048001c00070001003700000000000080fa00b3
:10205800000006000000fa000000000020108000c8
:102068007f0060000000e000fcff3a0040108000a4
:10207800640060000000e000f8ff3a000080fa0009
:10208800000006000000fa0002e2a900f1ff0700c4
:102098008600a9000402a8000000000020108000ab
:1020a800610060000000e000fcff3a000080fa00d8
:1020b800000006000000fa000442a800000000002a
:1020c80020108000640060000000e000fcff3a007f
:1020d8000080fa00000006000000fa00f0c9b30012
:1020e8000ae2b70002e2a90002c2a9000282a9001e
:1020f800101080000000a1000010a1000020a10025
:102108000030a0001010880002a2a8000422ef00ee
:102118000822ef0008e2a8000080fa00000006008c
:102128000000fa00211080000004200000806000f8
:102138000000e0000200320010c0b30001003700c8
:102148000040eb000080fa00000006000000fa00e2
:10215800ccff0700c0032000001088008600a900fb
:102168000000000030048000610060000000e00012
:10217800fcff3200eaff07000004e0003a003a00e2
:102188000022ef008600a900000000003004800053
:10219800610060000000e000fcff3200e0ff070083
:1021a8000004e00032003a00000720000010880018
:1021b8008600a90000000000300480006100600073
:1021c8000000e000fcff3200d5ff07000004e0003b
:1021d80029003a00b7ff0700aaff0700c003200044
:1021e800001088008600a90000000000300480006c
:1021f800610060000000e000fcff3200c8ff07003b
:102208000004e0001e003a001000200000108800c2
:102218008600a90000000000300480006100600012
:102228000000e000fcff3200bdff07000004e000f2
:1022380015003a0000022000001088008600a9005e
:102248000000000030048000610060000000e00031
:10225800fcff3200b2ff07000004e0000c003a0067
:1022680094ff07000b00370000000000090037004a
:1022780000000000070037000000000005003700dc
:1022880000000000030037000000000001003700d4
:10229800000000000080fa00000006000200fa00ba
:1022a800004f78008021ef0065e1a9006b01a800cc
:1022b8006b21a9001e80fb00e20f50000e003200c7
:1022c800e30f500016003200e10f50001e003a00e4
:1022d800c00b80008000eb003efa0700c2cc2c0047
:1022e800c3ec230090fa07001cfa070000007800ee
:1022f800e00b880015003700c00b80008000eb0061
:1023080034fa0700c2cc2c00c3ec230086fa07007d
:1023180012fa070000007800e00b88000b00370075
:10232800c00b80008000eb002afa0700c2cc2c000a
:10233800c3ec23007cfa070008fa070000007800c5
:10234800e00b88000100370000000000c4e2a8008c
:1023580065e1a8000080fa00000006000200fa000b
:10236800004f78007c21ef0065e1a9006b01a9000e
:102378006b21a8001e80fb00e20f50000e00320007
:10238800e30f500016003200e10f50001e003a0023
:10239800c00b80008000eb000efa0700f2282c002a
:1023a80053ef230060fa0700ecf9070000007800fb
:1023b800000c880015003700c00b80008000eb007f
:1023c80004fa0700f2282c0053ef230056fa0700fe
:1023d800e2f9070000007800000c88000b003700c5
:1023e800c00b80008000eb00faf90700f2282c00ef
:1023f80053ef23004cfa0700d8f9070000007800d3
:10240800000c88000100370000000000c4e2a800aa
:1024180065e1a8000080fa00000006000000fa004c
:10242800c4e2a80065e1a9006b21a9006b01a9001d
:102438000080fa00000006001c00fa00889fbe0019
:10244800b2000700b3fc070051fe070022ff070097
:102458003eff0700d3fc0700d4fd0700ecfa070095
:10246800fbfd07000000eb00100f98000000eb00d8
:10247800200f98000000eb00000f78000e80e800a5
:10248800820020008000eb00c8fa07006a004700bd
:10249800820020008000eb00c4fa070093fb0700cd
:1024a800f4004700720047004dfe07002e08900018
:1024b800cf80de00c4f907000004be001e089000ab
:1024c800cf80de00c0f907000801be00dbf8070076
:1024d80001f0a200020020004333240012fa070092
:1024e800325c2f008304240056f907000200200004
:1024f8004333240074f8070098f90700000f7800a8
:10250800104180001e0010008000eb00b1f90700a8
:102518000041eb00b5fb070000202100a1072000c7
:102528006c00070071fb0700ddff37000200fa00ae
:1025380030118000004f78001e4078000080fa00bb
:10254800000006000200fa00004f780000000000ba
:102558001111800000202000008060000000e000d1
:10256800fbff3a001e80fb00201188000080fa0063
:10257800000006000400fa00100798000000eb00b5
:10258800000f7800070037001e0090001040780008
:102598009e0090008100e80011079800e9ff0700fd
:1025a8001e0fe8001e0090000000e000f6ff3a0051
:1025b8000080fa00000006000400fa0010079800e6
:1025c8001e009000004f78009e00900000f02f0041
:1025d80000806000100798001e0090004800de0090
:1025e800100798001e009000104798001e409000a9
:1025f800d4ff07001e407800d2ff07000080fa00d1
:10260800000006000200fa00000f780005e1a900aa
:10261800400b20009e007800808f5000010034009d
:102628001e0fea001e007800f40f5000030034006b
:10263800e0d42000604188000c0037001e007800bc
:10264800f40f400003003d00e0a220006041880034
:10265800060037001e0078007400b900800078007a
:10266800e0bb2000008040006041880005e1a80030
:082678000080fa0000000600da
:020000040000fa
:1026800028080000020000000000000020080000f0
:102690000400000000000000240800000400000006
:1026a000000000002a0800000200000002000000f4
:1026b000008800000008000020000000000000006a
:1026c0002c08000002000000000000002e0800009e
:0c26d00002000000000000009a138000cf
:020000040000fa
:1026dc00f03fb1000180b10006003500ee030900a7
:1026ec0000000000403fb1000180b100fbff3d0045
:1026fc001000b000203fb00002003500008009003f
:08270c000000000000000600bf
:020000040000fa
:102714000000fa00203a80000080a1000090a1008f
:1027240000a0a100203a88000080fa000000060002
:020000040000fa
:0427340000000000a1
:020000040000fa
:0200000401f009
:04000000ffff0000fe
:020000040000fa
:0200000401f009
:04000800ffff0000f6
:020000040000fa
:0200000401f009
:04000c0059ff000098
:020000040000fa
:0200000401f009
:04001000bbff000032
:020000040000fa
:0200000401f009
:040014005fff00008a
:020000040000fa
:0200000401f009
:04001800ffff0000e6
:020000040000fa
:0200000401f009
:04001c00fdff0000e4
:00000001FF
