:020000040000fa
:080000000002040000000000f2
:020000040000fa
:04000800e60200000c
:020000040000fa
:04000c00ce02000020
:020000040000fa
:04001000d402000016
:020000040000fa
:04001400da0200000c
:020000040000fa
:04001800e002000002
:020000040000fa
:04001c00e6020000f8
:020000040000fa
:04002000e6020000f4
:020000040000fa
:04002400e6020000f0
:020000040000fa
:04002800e6020000ec
:020000040000fa
:04002c00e6020000e8
:020000040000fa
:04003000e6020000e4
:020000040000fa
:04003400e6020000e0
:020000040000fa
:04003800e6020000dc
:020000040000fa
:04003c00e6020000d8
:020000040000fa
:04004000e6020000d4
:020000040000fa
:04004400e6020000d0
:020000040000fa
:04004800e6020000cc
:020000040000fa
:04004c00e6020000c8
:020000040000fa
:04005000e6020000c4
:020000040000fa
:04005400a8020000fe
:020000040000fa
:04005800e6020000bc
:020000040000fa
:04005c00e6020000b8
:020000040000fa
:04006000e6020000b4
:020000040000fa
:04006400e6020000b0
:020000040000fa
:04006800e6020000ac
:020000040000fa
:04006c00e6020000a8
:020000040000fa
:04007000e6020000a4
:020000040000fa
:04007400e6020000a0
:020000040000fa
:04007800e60200009c
:020000040000fa
:04007c00e602000098
:020000040000fa
:04008000e602000094
:020000040000fa
:04008400e602000090
:020000040000fa
:04008800e60200008c
:020000040000fa
:04008c00e602000088
:020000040000fa
:04009000e602000084
:020000040000fa
:04009400e602000080
:020000040000fa
:04009800e60200007c
:020000040000fa
:04009c00e602000078
:020000040000fa
:0400a000e602000074
:020000040000fa
:0400a400e602000070
:020000040000fa
:0400a800e60200006c
:020000040000fa
:0400ac00e602000068
:020000040000fa
:0400b000e602000064
:020000040000fa
:0400b400e602000060
:020000040000fa
:0400b800e60200005c
:020000040000fa
:0400bc00e602000058
:020000040000fa
:0400c000e602000054
:020000040000fa
:0400c400e602000050
:020000040000fa
:0400c800e60200004c
:020000040000fa
:0400cc00e602000048
:020000040000fa
:0400d000e602000044
:020000040000fa
:0400d400e602000040
:020000040000fa
:0400d800e60200003c
:020000040000fa
:0400dc00e602000038
:020000040000fa
:0400e000e602000034
:020000040000fa
:0400e400e602000030
:020000040000fa
:0400e800e60200002c
:020000040000fa
:0400ec00e602000028
:020000040000fa
:0400f000e602000024
:020000040000fa
:0400f400e602000020
:020000040000fa
:0400f800e60200001c
:020000040000fa
:0400fc00e602000018
:020000040000fa
:04010000e602000013
:020000040000fa
:04010400e60200000f
:020000040000fa
:04010800e60200000b
:020000040000fa
:04010c00e602000007
:020000040000fa
:04011000e602000003
:020000040000fa
:04011400e6020000ff
:020000040000fa
:04011800e6020000fb
:020000040000fa
:04011c00e6020000f7
:020000040000fa
:04012000e6020000f3
:020000040000fa
:04012400e6020000ef
:020000040000fa
:04012800e6020000eb
:020000040000fa
:04012c00e6020000e7
:020000040000fa
:04013000e6020000e3
:020000040000fa
:04013400e6020000df
:020000040000fa
:04013800e6020000db
:020000040000fa
:04013c00e6020000d7
:020000040000fa
:04014000e6020000d3
:020000040000fa
:04014400e6020000cf
:020000040000fa
:04014800e6020000cb
:020000040000fa
:04014c00e6020000c7
:020000040000fa
:04015000e6020000c3
:020000040000fa
:04015400e6020000bf
:020000040000fa
:04015800e6020000bb
:020000040000fa
:04015c00e6020000b7
:020000040000fa
:04016000e6020000b3
:020000040000fa
:04016400e6020000af
:020000040000fa
:04016800e6020000ab
:020000040000fa
:04016c00e6020000a7
:020000040000fa
:04017000e6020000a3
:020000040000fa
:04017400e60200009f
:020000040000fa
:04017800e60200009b
:020000040000fa
:04017c00e602000097
:020000040000fa
:04018000e602000093
:020000040000fa
:04018400e60200008f
:020000040000fa
:04018800e60200008b
:020000040000fa
:04018c00e602000087
:020000040000fa
:04019000e602000083
:020000040000fa
:04019400e60200007f
:020000040000fa
:04019800e60200007b
:020000040000fa
:04019c00e602000077
:020000040000fa
:0401a000e602000073
:020000040000fa
:0401a400e60200006f
:020000040000fa
:0401a800e60200006b
:020000040000fa
:0401ac00e602000067
:020000040000fa
:04020800e60200000a
:020000040000fa
:04020c00e602000006
:020000040000fa
:04021000e602000002
:020000040000fa
:04021400e6020000fe
:020000040000fa
:04021800e6020000fa
:020000040000fa
:04021c00e6020000f6
:020000040000fa
:04022000e6020000f2
:020000040000fa
:04022400e6020000ee
:020000040000fa
:04022800e6020000ea
:020000040000fa
:04022c00e6020000e6
:020000040000fa
:04023000e6020000e2
:020000040000fa
:04023400e6020000de
:020000040000fa
:04023800e6020000da
:020000040000fa
:04023c00e6020000d6
:020000040000fa
:04024000e6020000d2
:020000040000fa
:04024400e6020000ce
:020000040000fa
:04024800e6020000ca
:020000040000fa
:04024c00e6020000c6
:020000040000fa
:04025000e6020000c2
:020000040000fa
:04025400e6020000be
:020000040000fa
:04025800e6020000ba
:020000040000fa
:04025c00e6020000b6
:020000040000fa
:04026000e6020000b2
:020000040000fa
:04026400e6020000ae
:020000040000fa
:04026800e6020000aa
:020000040000fa
:04026c00e6020000a6
:020000040000fa
:04027000e6020000a2
:020000040000fa
:04027400e60200009e
:020000040000fa
:04027800e60200009a
:020000040000fa
:04027c00e602000096
:020000040000fa
:04028000e602000092
:020000040000fa
:04028400e60200008e
:020000040000fa
:04028800e60200008a
:020000040000fa
:04028c00e602000086
:020000040000fa
:04029000e602000082
:020000040000fa
:04029400e60200007e
:020000040000fa
:04029800e60200007a
:020000040000fa
:04029c00e602000076
:020000040000fa
:0402a000e602000072
:020000040000fa
:0402a400e60200006e
:020000040000fa
:0402a800e60200006a
:020000040000fa
:0402ac00e602000066
:020000040000fa
:0402b000e602000062
:020000040000fa
:0402b400e60200005e
:020000040000fa
:0402b800e60200005a
:020000040000fa
:0402bc00e602000056
:020000040000fa
:0402c000e602000052
:020000040000fa
:0402c400e60200004e
:020000040000fa
:0402c800e60200004a
:020000040000fa
:0402cc00e602000046
:020000040000fa
:0402d000e602000042
:020000040000fa
:0402d400e60200003e
:020000040000fa
:0402d800e60200003a
:020000040000fa
:0402dc00e602000036
:020000040000fa
:0402e000e602000032
:020000040000fa
:0402e400e60200002e
:020000040000fa
:0402e800e60200002a
:020000040000fa
:0402ec00e602000026
:020000040000fa
:0402f000e602000022
:020000040000fa
:0402f400e60200001e
:020000040000fa
:0402f800e60200001a
:020000040000fa
:0402fc00e602000016
:020000040000fa
:04030000e602000011
:020000040000fa
:04030400e60200000d
:020000040000fa
:04030800e602000009
:020000040000fa
:04030c00e602000005
:020000040000fa
:04031000e602000001
:020000040000fa
:04031400e6020000fd
:020000040000fa
:04031800e6020000f9
:020000040000fa
:04031c00e6020000f5
:020000040000fa
:04032000e6020000f1
:020000040000fa
:04032400e6020000ed
:020000040000fa
:04032800e6020000e9
:020000040000fa
:04032c00e6020000e5
:020000040000fa
:04033000e6020000e1
:020000040000fa
:04033400e6020000dd
:020000040000fa
:04033800e6020000d9
:020000040000fa
:04033c00e6020000d5
:020000040000fa
:04034000e6020000d1
:020000040000fa
:04034400e6020000cd
:020000040000fa
:04034800e6020000c9
:020000040000fa
:04034c00e6020000c5
:020000040000fa
:04035000e6020000c1
:020000040000fa
:04035400e6020000bd
:020000040000fa
:04035800e6020000b9
:020000040000fa
:04035c00e6020000b5
:020000040000fa
:04036000e6020000b1
:020000040000fa
:04036400e6020000ad
:020000040000fa
:04036800e6020000a9
:020000040000fa
:04036c00e6020000a5
:020000040000fa
:04037000e6020000a1
:020000040000fa
:04037400e60200009d
:020000040000fa
:04037800e602000099
:020000040000fa
:04037c00e602000095
:020000040000fa
:04038000e602000091
:020000040000fa
:04038400e60200008d
:020000040000fa
:04038800e602000089
:020000040000fa
:04038c00e602000085
:020000040000fa
:04039000e602000081
:020000040000fa
:04039400e60200007d
:020000040000fa
:04039800e602000079
:020000040000fa
:04039c00e602000075
:020000040000fa
:0403a000e602000071
:020000040000fa
:0403a400e60200006d
:020000040000fa
:0403a800e602000069
:020000040000fa
:0403ac00e602000065
:020000040000fa
:100400008f8220000eff20000e01880000000000f7
:10041000000020000000e000020032000001200087
:10042000200288000c00070060f32000010020007b
:1004300011000700000020000000e0000200320070
:100440000000020000000000960d02000000000005
:100450000040da000000fe004440a900a002200095
:100460000000e0000300320000002000a00188002e
:100470004440a80000000600910188008000780038
:100480000000eb0015003700e280400032a0b4000d
:100490009101ba00e280400032a0b4009102ba009b
:1004a000e280400032a0b4000002eb00472bde00e7
:1004b000f507b200602ce10004003a000059eb009f
:1004c0008301e900fdff3e00040037006128e100e0
:1004d000010032000082eb000b00070011c3ba00dc
:1004e0001101ba000604e00003003a000200e00037
:1004f000e5ff3a0000000600f607b200960188000a
:1005000082007800f5ff37003159ba008301e90015
:100510000c0032002159ba008301e90008003200c2
:100520000400e00003003a00e280400032a0b40082
:10053000f5ff370011d9ba008301e900faff3a004c
:100540008100e800e180400032a0b4000000060015
:10055000809fbe003400f80000002000a001880049
:100560000000fa000000000011118000e0ff2f00e1
:1005700001007000e10f4000fbff32002104800009
:10058000f07f2f0000806000200488000080fa00c7
:100590003400f9004f00be00004006000000fa00e1
:1005a0008020a900ffff37000000fa008060a9004a
:1005b000ffff37000000fa008040a900ffff37006e
:1005c0000000fa008080a900ffff37000000fa0059
:1005d000ffff370003f0a200889fbe008a9fbe0085
:1005e0008c1f7800f7000700fe0033006450e10024
:1005f0004f0032006420e1005200320003826c00a0
:1006000007003b000905d0000306d000820f54000c
:100610000c065d00020039000200320089017800fa
:10062000030678008582550004003d000003fd00ac
:100630008103fd008502ea008b854200840f720071
:1006400002003b0060001000e08018006011b8005c
:100650000005eb007a28e1000a0039000600780066
:10066000c75ddd00f707b200878075002d003700f9
:10067000828171000a017800610560008180d100eb
:100680000080d3008502e900f9ff3b00060440002a
:100690008784480002003b0060041400e0841c00d2
:1006a0000988a300070032008a81710082817100ed
:1006b000610164008904d1000884d3008b05e8003f
:1006c000170037000978a30013003a000b00e00080
:1006d000130034008b05e9000804440089844c00b1
:1006e0000a4474000978a3000d003a000b00e000f2
:1006f000070034008b05e9000804440089844c009d
:1007000001003a000b0020000978a300f7ff320037
:100710000001eb0002003700828171000a017800bd
:100720006d0007000cf0a70001f0a000b600370034
:100730006420e10002003a00838f6c00b6003300b1
:100740000801be000200be00af003700889fbe0057
:100750008a9fbe008c1f78009a000700a10033001a
:1007600003866c006450e1002e0032006420e1003a
:10077000330032006150e1002f0032006120e100bf
:100780003100320085855500eb07b00009002000dc
:1007900008042000050037000804440089844c0048
:1007a0000a0031000603430087834b000001530019
:1007b00081815b00f8ff33000203be000800a00047
:1007c0000804440089844c00f6ff3900c639dd0076
:1007d0008301730001003200130020008904d1005e
:1007e0000884d3000998a300050032000800a70080
:1007f0000300a0008904d1000884d3008b05e80021
:100800008904d1000884d3000001eb000281d200ea
:100810003100070001f0a1000cf0a70001f0a000da
:10082000790037006420e1007b0032000801be003f
:100830000200be00f7ff37006120e10076003200c1
:100840006000b800f3ff37000000200001f8270027
:10085000f0ff370014002000b9003700f4ff2f002c
:10086000b70037000001be00410007000470a70078
:1008700003f0a10003f8a30013003a006509b100da
:1008800010003200090035006928e100020035003f
:1008900001002800000005000000400081804800a1
:1008a0008502e900fcff3a0000000600f88f4200d4
:1008b000050035008100d1000080d3008502e800ea
:1008c000fcff3a00000006008000eb00000005007d
:1008d0006011b800b500370081002000618055002c
:1008e0000b003d000b00200061fe2f000100e10025
:1008f0001d00340082817100610164008904d1000f
:100900000884d3000000e800faff3a0071002000dc
:100910006100640003007000020060000900320002
:1009200061044400e0844c000988a5000500320001
:100930008b05e8006808e10002003a008904d10054
:100940000884d300f20f20000258e10005003d00aa
:10095000c75ddd00f907b2008980750008007800e6
:10096000000006000bf827008b007800000005004f
:10097000c70ade00f107b200f50fb200080032002e
:10098000e1cf4200020032000170a0002400050007
:10099000810f7000010032000408050044000500ca
:1009a000810f700002003a00140005008502e90082
:1009b0000000400081c04800fcff3b000170a00027
:1009c000240005000004be00e9ff07000003be008c
:1009d0000405be000200be00e5ff0700844f75005d
:1009e000000006000200be006450e1000500360071
:1009f0006420e100020036000968a30001003a000b
:100a00000800be000160a0004f0678004f05be0040
:100a10004f04be0000000600f0ff2f00f1ff27008a
:100a2000f9ff3700889fbe008a9fbe008c1f7800a8
:100a3000e4ff0700ebff330003866c006450e10025
:100a4000240032006420e100270032006150e10000
:100a5000220032006120e100210032008b8542003b
:100a6000eb07b1000134b800003ab80008044200b6
:100a700089844a00013ab8000030b80088804000fc
:100a800009014a0004003300000040008180480052
:100a9000020149008b05e900c909dd0083017000ee
:100aa0000100320013002000c814de004814dd00ed
:100ab0004709de001200b200c808de00088470009a
:100ac00085ff070001f0a1000cf0a70001f0a000d5
:100ad000cdff37006120e100cfff32000801be00ea
:100ae0000200be00f7ff37006150e100fcff3a0052
:100af000c9ff37006022b800060220000000d000c5
:100b00008180d2000482d2008582d2000000a00041
:100b10000202520083825a000300310002024200a6
:100b200083824a000000a1000603e900f3ff3a00b7
:100b300000000600efff07000400be0000000600f2
:100b4000889fbe008a9fbe00841f78009dff07001b
:100b50004f00780011003300f0ff2f00838f6c00ee
:100b600006003b00040565000a00a70008003700e6
:100b700009f0a6001000200008003700820f540082
:100b8000838f5c00030039001000200001003e004c
:100b90000000200009f0a7000000ea004f05be0099
:100ba0004f04be000000e00000000600889fbe0069
:100bb0008a9fbe00008270000402710004827100ee
:100bc000260032000004be000200be006011b80022
:100bd0006b092000950220000182cf000a00390035
:100be0000541b1000082cf00070039000541b10086
:100bf0000982cf00040039000541b1000882cf000e
:100c0000010039000541b1000542520012003200d6
:100c10000a003b0082817100610164008100d10003
:100c20000080d3008984d3000884d3008b05e800ba
:100c30000442e800f7ff3a000700370008044400c8
:100c400089844c0000004800818048008b05e90041
:100c50000442e900f9ff3a001fff07004f05be00fc
:100c60004f04be000000060080017800020037003b
:100c7000815978000201e9000200e000fcff3a001f
:040c8000000006006a
:020000040000fa
:100c8400534c00004f5700002e2e00002e00000091
:100c9400535400004f50000020210000004e00007b
:100ca4006f7200006d6100006c2000007370000022
:100cb40065650000642e0000000000003031000073
:100cc4003233000034350000363700003839000074
:040cd400000000001c
:020000040000fa
:100cd8000000fa00cda2a90000982a0031002000e7
:100ce80052040700c482a900cc82a900c462a800eb
:100cf800c442a800cd42a800cd42a9000088230024
:100d08001100200049040700cd42a800cd42a900e7
:100d1800006420000100200044040700cd42a80020
:100d2800cd42a90000882300110020003f040700dd
:100d3800c482a900cc82a900c462a800c442a90048
:100d4800cd42a800cd42a90000402c00910020000f
:100d58003604070080c2b3000800070080c0b30053
:100d680006000700c0c0b3000400070060c0b3005d
:100d7800020007000080fa00000006000200fa00e6
:100d8800004f7800cda2a9001e4078000004e000c2
:100d980002003d00c482a80001003700c482a900f7
:100da8009e80fb0000042000008060000000e0003e
:100db80002003200cc82a80001003700cc82a900d2
:100dc8009e80fb0000022000008060000000e00020
:100dd80002003200c462a80001003700c462a90002
:100de8001e80fb00700060000000e000020032007e
:100df800c442a80001003700c442a900cd42a8009f
:100e0800cd42a9001e80fb00680060000000e000e1
:100e180002003200c482a80001003700c482a90081
:100e28001e80fb00640060000000e0000200320049
:100e3800cc82a80001003700cc82a9001e80fb00ec
:100e4800620060000000e00002003200c462a800f6
:100e580001003700c462a9001e80fb006100600029
:100e6800004078000004e00002003200c442a800fc
:100e780001003700c442a900cd42a800cd42a90014
:100e88000028200001002000e80307000080fa0085
:100e9800000006000200fa00004f7800cda2a8006a
:100ea8001e4078000004e00002003d00c482a80053
:100eb80001003700c482a9009e80fb0000042000c6
:100ec800008060000000e00002003200cc82a80030
:100ed80001003700cc82a9009e80fb0000022000a0
:100ee800008060000000e00002003200c462a80038
:100ef80001003700c462a9001e80fb00700060007a
:100f08000000e00002003200c442a80001003700df
:100f1800c442a900cd42a800cd42a9001e80fb0012
:100f2800680060000000e00002003200c482a800ef
:100f380001003700c482a9001e80fb006400600025
:100f48000000e00002003200cc82a8000100370057
:100f5800cc82a9001e80fb00620060000000e00057
:100f680002003200c462a80001003700c462a90070
:100f78001e80fb0061006000004078000004e00073
:100f880002003200c442a80001003700c442a90090
:100f9800cd42a800cd42a900002820000100200071
:100fa800a20307000080fa00000006000000fa0013
:100fb80010c0b30071ff070000d027000100200017
:100fc8009a0307000080fa00000006000200fa00f9
:100fd800000f78000c0037001e00780010407800e1
:100fe800ed4f500004003a0021c0b30010c0b30018
:100ff80011000700030037001e0078001040780039
:10100800a4ff07001e0fe8001e00780010407800bb
:101018000004e000f0ff3a000080fa00000006003b
:101028000200fa00004f78001e40780099ff070080
:101038000080fa00000006000200fa00004f780065
:10104800114798001e409000e14f500003003a00fd
:10105800f1c7b3001ec0400048ff07001e409000c3
:10106800e24f500003003a00f0cbb3001e404000ae
:1010780042ff07000080fa00000006000200fa00a4
:10108800004f78001e407800e14f500003003a00fe
:10109800c0c0b30039ff07000200370080c0b300aa
:1010a80036ff07000080fa00000006001000fa0072
:1010b800889fbe005007980061079800624f98000b
:1010c800a000200001002000300798004107980088
:1010d80018c0b3006011b8005e009000ee009000e8
:1010e800dafd07000000e000010035000044eb00d5
:1010f8000804e00007003200d0c2b300c8ff0700b0
:101108005e009000ee00900001f0a20050079800e9
:10111800610798000040eb00004f7800110037008d
:101128004e0090006a00b900000178003e0090006f
:101138006000b9000000780000014100be00900086
:10114800a00020000008b8000101410082007800da
:101158003007980041079800300798004107980029
:101168001e4fe8006e4890009e40780080cf5000e7
:10117800ebff39003e009000ce009000d2fd070042
:101188000004be005e009000ee009000b3fd070072
:10119800cdfd07000001be005e009000ee0090004b
:1011a8000afd07000001be000800be001bfe070084
:1011b800aafd070010079800210798001e0090005c
:1011c800ae009000a20020000300200057fe070098
:1011d8000001be004000200001002000800f5100e7
:1011e800818f5900060036001e009000ae00900066
:1011f8006a004000e0804800100798002107980026
:101208003e009000ce00900061015000e08158003f
:101218001e009000ae009000800f5100818f590091
:101228000a0031000200200003f823005e0090004d
:10123800ee009000e6fc0700500798006107980050
:101248006000b80010079800210798005e00900021
:10125800ee00900081fd0700310007006e48900005
:101268000004e0002b003200c0c2b3006cff07008e
:101278003e009000ce0090004206200003002000af
:101288001afe070030079800410798001e009000da
:10129800ae009000a20020000300200013fe07000b
:1012a80010079800210798000c00370000c3b3000e
:1012b8005bff07003e009000ce009000a2002000d7
:1012c8000300200009fe0700300798004107980036
:1012d8006e4890000040e900604f98003e01900081
:1012e800ce0190001e009000ae009000fffd0700a8
:1012f800e00f5000e08f580003003a006e4890005d
:10130800e14f5000e9ff3e001e009000ae00900043
:10131800030007004f04be000080fa00000006002a
:101328000600fa00889fbe00100798002107980061
:101338000040eb00004f78001e84fb00394180001c
:101348001e009000ae009000a200200003002000c4
:10135800f6fd070000007800008044001040780087
:101368008040780000802000000044000148780098
:101378001e009000ae009000a20020000300200094
:10138800dafd070010079800210798001e4fe800b3
:101398001e009000ae009000e00f5000e08f580053
:1013a800e5ff3a001e4fe9009e80fb000080200008
:1013b800008040001040780019ff07001e407800a8
:1013c8000004e000f7ff3a004f04be000080fa0076
:1013d800000006000000fa00c002a800e004a8000f
:1013e800c802a800e204a800c822a800e224a800b5
:1013f800c862a800e264a800c982a900e384a90021
:10140800c962a900c0e2a900c9a2a900e3a4a90071
:10141800c942a900c042a900e044a900c062a900cd
:10142800e064a900c882a900e284a900c082a900da
:10143800e084a900c902a800e304a900c922a80001
:10144800e324a900e244a900c842a800e2e4a900f4
:10145800c8e2a9000080fa00000006000000fa00b7
:101468004023ef005023ef0020002000201a8800be
:101478004223ef000080fa00000006000800fa008e
:10148800100798002107980025c8bf000040e80011
:1014980025e8b7000040eb00004f78001100370046
:1014a8001e00fb0000004000ae009000808040005d
:1014b8001e00fb00000040002e01900000004100cb
:1014c800100178001e00fb00000040009e01900003
:1014d800008041001000780000004100800878007a
:1014e8001e4fe8001e407800e24f5000ecff340029
:1014f80025c8bf00ea4f500019003a000040eb0031
:10150800004f7800120037001e00fb00000040006a
:10151800ae00900080804000310798001e00fb005c
:10152800000040002e0190000000410010017800ea
:1015380025c8bf000080fb00800178001100090069
:101548000381d800be009000800878001e4fe80094
:101558001e407800e24f5000ebff34002568ef0092
:101568000080fa00000006000200fa00000f780070
:1015780024c8bf000080fb00e10f500013003200b8
:10158800e10f500003003c000000e00006003200bc
:1015980028003700e20f500014003200e30f50001b
:1015a8001b0032002300370041e3a900411a8000e4
:1015b80000fe2f00008060000010a000401a880084
:1015c80041e3a800001a80001a00370041e3a9008f
:1015d800411a800000fe2f0000806000401a880039
:1015e80041e3a800001a80001200370041e3a90077
:1015f800411a800000fe2f00008060005000b300f8
:10160800401a880041e3a800001a8000090037004a
:1016180041e3a900411a800000fe2f00008060000d
:101628003000b300401a880041e3a800001a800087
:10163800000000004023a80000e82300010020006b
:10164800fa0107004023a90000000000001a8000ea
:10165800610060000000e000fcff320024c8bf0009
:101668000080fb00e10f50000e003200e10f500037
:1016780003003c000000e0000600320017003700bd
:10168800e20f50000b003200e30f50000e00320052
:1016980012003700011880001e0078000108780049
:1016a8000e0037001e80e80001188000010878004d
:1016b8000a0037009e00780064804000011880000e
:1016c80001087800050037001e0178006600410017
:1016d80001188000010878000000000024c8bf003d
:1016e8000080fb008000e800400020000001780036
:1016f800110009008200d8008000fd000040780039
:1017080024e8b7000080fa00000006000600fa008e
:10171800200798002e0090008000eb006afc07006c
:101728000200200003052400bcfc070002002c0076
:10173800f347240003fc0700008fbe0032c0b3004b
:101748001e00be0059fe07000080fa0000000600d7
:101758000000fa006481a900200b80000000a000ae
:101768000010a1000020a0000030a100200b88007c
:1017780064a1a9006561a900200b80000080a10078
:101788000090a10000a0a100200b8800200b800081
:101798000060a1000070a100200b880066e1a9008c
:1017a800310b800000fe2f0000806000300b8800a5
:1017b8006b01a8006b21a800700b80000080a100bd
:1017c8000090a10000a0a100700b88006ea1a900e4
:1017d8006e81a9007421ef0080012000c00b8800f1
:1017e8007c21ef008021ef0065e1a8000080fa006d
:1017f800000006000000fa00900120004011880057
:10180800aa40a800aa20a900aa00a900a9c0a80067
:10181800a9a0a900a980a9002222ef0000002800a1
:101828000011880021e2a8002342a8009560a800c2
:101838000080fa00000006000000fa000402a80078
:101848000000000020108000610060000000e0003f
:10185800fcff3a00c00120000010880000000000d2
:101868002110800000022000008060000000e000dd
:10187800fbff32002000200000108800000000005c
:101888002110800000022000008060000000e000bd
:10189800fbff3200100020000010880000702700b5
:1018a8001100200061010700290007000080fb00eb
:1018b8004800dd0000418800250007008080fb000b
:1018c8000041800000804000004188000402a80018
:1018d8000000000020108000610060000000e000af
:1018e800fcff3a00c0012000001088000000000042
:1018f8002110800000022000008060000000e0004d
:10190800fbff32006000200000108800000000008b
:101918002110800000022000008060000000e0002c
:10192800fbff32000a0007000080fb004800dd00d2
:1019380010418800060007008080fb0010418000ed
:1019480000804000104188000080fa000000060076
:101958000000fa000402a800000000002010800027
:10196800610060000000e000fcff3a00d0012000a8
:1019780000108800000000002110800000042000f2
:10198800008060000000e000fbff32001000200033
:1019980000108800000000002110800000042000d2
:1019a800008060000000e000fbff320000108000b3
:1019b800004078000080fa00000006000000fa00ed
:1019c8000080fa00000006000000fa0002a2a90048
:1019d800101080000000a1000010a1000020a1004c
:1019e8000030a00010108800f0c9b3000ae2b70068
:1019f80008e2a80002a2a8000402a8000000000053
:101a080020108000610060000000e000fcff3a0048
:101a1800c001200000108800000000002110800094
:101a280000042000008060000000e000fbff32009e
:101a38000022ef00000000002110800000042000b8
:101a4800008060000000e000fbff3200100720006b
:101a58000010880000000000211080000004200011
:101a6800008060000000e000fbff32000402a800d4
:101a7800c001200000108800000000002110800034
:101a880000042000008060000000e000fbff32003e
:101a980010002000001088000000000021108000c5
:101aa80000042000008060000000e000fbff32001e
:101ab800000a2000001088000000000021108000ab
:101ac80000042000008060000000e000fbff3200fe
:101ad800c0012000001088000402a80000000000d7
:101ae8002110800000042000008060000000e00059
:101af800fbff3200200020000010880000000000da
:101b08002110800000042000008060000000e00038
:101b1800fbff320010002000001088000080fa004f
:101b2800000006001200fa00881f7800db0007009a
:101b380028fe070049fe070005ff070064fc0700b0
:101b48000e80e800820020008000eb0044fc0700c3
:101b58006a004700820020008000eb0040fc07007c
:101b68000040eb00104798000f0037000040eb00e2
:101b7800004f7800030037000e80e8007afe070067
:101b88001e4fe8001e407800e34f5000faff360071
:101b9800ea0047000e80e80038fe07001e4090006b
:101ba8000040e800104798001e409000e94f5000a0
:101bb800eeff3600fdfc07006e009000d3fe070024
:101bc8000088230011002000980007006e00900094
:101bd8008000eb003cfb0700020020000305240006
:101be8008efb070002002c00f3472400d5fa0700fb
:101bf80018c0b300d2cc2c00c3ec230015fb07009f
:101c08000000e00001003d000044eb000804e00093
:101c18001a0032006e0090008000eb002afb0700db
:101c280002002000030524007cfb070002002c00b2
:101c3800f3472400c3fa070018c0b30002002000cd
:101c480003f8230001fb07000000e0000100340056
:101c58000044eb000804e0000800320021c0b30093
:101c680010c0b300f4fc070020642800d7fc07006c
:101c780010c0b30022000700b9ff37006e009000c3
:101c88008000eb0010fb0700020020000305240081
:101c980062fb070002002c00f3472400a9fa0700a2
:101ca80018c0b3000200200003f82300e9fa070077
:101cb8000000e00001003d000044eb000804e000e3
:101cc8000700320021c0b30010c0b300dafc0700df
:101cd800a0642800bdfc07003b000700a0ff3700f8
:101ce80021c0b30010c0b300d3fc07001065280062
:101cf800b6fc070020c0b3000100070098ff3700ba
:101d08000200fa00004f78006b01a8006b21a900bf
:101d18001e80fb00e20f500007003200e30f500066
:101d280008003200e10f500009003a00f0002000de
:101d3800e00b880007003700c0002000e00b880097
:101d48000400370050002000e00b88000100370035
:101d580000000000c4e2a80065e1a8000080fa00c5
:101d6800000006000200fa00004f78006b01a9008d
:101d78006b21a8001e80fb00e20f50000700320014
:101d8800e30f500008003200e10f500009003a004c
:101d9800f0002000000c880007003700c000200079
:101da800000c88000400370050002000000c880058
:101db8000100370000000000c4e2a80065e1a800a7
:101dc8000080fa00000006000000fa00c4e2a80043
:101dd80065e1a9006b21a9006b01a9000080fa0048
:101de800000006000200fa0030118000004f780061
:101df8001e4078000080fa00000006000200fa0089
:101e0800004f780000000000111180000020200021
:101e1800008060000000e000fbff3a001e00fb00ad
:0c1e2800201188000080fa000000060075
:020000040000fa
:101e3400f03fb1000180b10006003500ee03090057
:101e440000000000403fb1000180b100fbff3d00f5
:101e54001000b000203fb0000200350000800900ef
:081e6400000000000000060070
:020000040000fa
:101e6c00240800000200000000000000260800000a
:101e7c000200000002000000608600000008000064
:101e8c0020000000000000002008000004000000fa
:081e9c0000000000580f800057
:020000040000fa
:0c1ea4000000fa000080fa0000000600b8
:020000040000fa
:041eb000000000002e
:020000040000fa
:0200000401f009
:04000000ffff0000fe
:020000040000fa
:0200000401f009
:04000800ffff0000f6
:020000040000fa
:0200000401f009
:04000c0059ff000098
:020000040000fa
:0200000401f009
:04001000bbff000032
:020000040000fa
:0200000401f009
:040014005fff00008a
:020000040000fa
:0200000401f009
:04001800ffff0000e6
:020000040000fa
:0200000401f009
:04001c00fdff0000e4
:00000001FF
