:020000040000fa
:080000000002040000000000f2
:020000040000fa
:040008005c03000095
:020000040000fa
:04000c0044030000a9
:020000040000fa
:040010004a0300009f
:020000040000fa
:040014005003000095
:020000040000fa
:04001800560300008b
:020000040000fa
:04001c005c03000081
:020000040000fa
:040020005c0300007d
:020000040000fa
:040024005c03000079
:020000040000fa
:040028005c03000075
:020000040000fa
:04002c005c03000071
:020000040000fa
:040030005c0300006d
:020000040000fa
:0400340016030000af
:020000040000fa
:040038005c03000065
:020000040000fa
:04003c005c03000061
:020000040000fa
:040040005c0300005d
:020000040000fa
:040044005c03000059
:020000040000fa
:040048005c03000055
:020000040000fa
:04004c005c03000051
:020000040000fa
:040050005c0300004d
:020000040000fa
:04005400a8020000fe
:020000040000fa
:040058005c03000045
:020000040000fa
:04005c005c03000041
:020000040000fa
:040060005c0300003d
:020000040000fa
:040064005c03000039
:020000040000fa
:040068005c03000035
:020000040000fa
:04006c005c03000031
:020000040000fa
:040070005c0300002d
:020000040000fa
:040074005c03000029
:020000040000fa
:040078005c03000025
:020000040000fa
:04007c005c03000021
:020000040000fa
:040080005c0300001d
:020000040000fa
:040084005c03000019
:020000040000fa
:040088005c03000015
:020000040000fa
:04008c005c03000011
:020000040000fa
:040090005c0300000d
:020000040000fa
:040094005c03000009
:020000040000fa
:040098005c03000005
:020000040000fa
:04009c005c03000001
:020000040000fa
:0400a0005c030000fd
:020000040000fa
:0400a4005c030000f9
:020000040000fa
:0400a8005c030000f5
:020000040000fa
:0400ac005c030000f1
:020000040000fa
:0400b0005c030000ed
:020000040000fa
:0400b4005c030000e9
:020000040000fa
:0400b8005c030000e5
:020000040000fa
:0400bc005c030000e1
:020000040000fa
:0400c0005c030000dd
:020000040000fa
:0400c4005c030000d9
:020000040000fa
:0400c8005c030000d5
:020000040000fa
:0400cc005c030000d1
:020000040000fa
:0400d0005c030000cd
:020000040000fa
:0400d4005c030000c9
:020000040000fa
:0400d8005c030000c5
:020000040000fa
:0400dc005c030000c1
:020000040000fa
:0400e0005c030000bd
:020000040000fa
:0400e4005c030000b9
:020000040000fa
:0400e8005c030000b5
:020000040000fa
:0400ec005c030000b1
:020000040000fa
:0400f0005c030000ad
:020000040000fa
:0400f4005c030000a9
:020000040000fa
:0400f8005c030000a5
:020000040000fa
:0400fc005c030000a1
:020000040000fa
:040100005c0300009c
:020000040000fa
:040104005c03000098
:020000040000fa
:040108005c03000094
:020000040000fa
:04010c005c03000090
:020000040000fa
:040110005c0300008c
:020000040000fa
:040114005c03000088
:020000040000fa
:040118005c03000084
:020000040000fa
:04011c005c03000080
:020000040000fa
:040120005c0300007c
:020000040000fa
:040124005c03000078
:020000040000fa
:040128005c03000074
:020000040000fa
:04012c005c03000070
:020000040000fa
:040130005c0300006c
:020000040000fa
:040134005c03000068
:020000040000fa
:040138005c03000064
:020000040000fa
:04013c005c03000060
:020000040000fa
:040140005c0300005c
:020000040000fa
:040144005c03000058
:020000040000fa
:040148005c03000054
:020000040000fa
:04014c005c03000050
:020000040000fa
:040150005c0300004c
:020000040000fa
:040154005c03000048
:020000040000fa
:040158005c03000044
:020000040000fa
:04015c005c03000040
:020000040000fa
:040160005c0300003c
:020000040000fa
:040164005c03000038
:020000040000fa
:040168005c03000034
:020000040000fa
:04016c005c03000030
:020000040000fa
:040170005c0300002c
:020000040000fa
:040174005c03000028
:020000040000fa
:040178005c03000024
:020000040000fa
:04017c005c03000020
:020000040000fa
:040180005c0300001c
:020000040000fa
:040184005c03000018
:020000040000fa
:040188005c03000014
:020000040000fa
:04018c005c03000010
:020000040000fa
:040190005c0300000c
:020000040000fa
:040194005c03000008
:020000040000fa
:040198005c03000004
:020000040000fa
:04019c005c03000000
:020000040000fa
:0401a0005c030000fc
:020000040000fa
:0401a4005c030000f8
:020000040000fa
:0401a8005c030000f4
:020000040000fa
:0401ac005c030000f0
:020000040000fa
:040208005c03000093
:020000040000fa
:04020c005c0300008f
:020000040000fa
:040210005c0300008b
:020000040000fa
:040214005c03000087
:020000040000fa
:040218005c03000083
:020000040000fa
:04021c005c0300007f
:020000040000fa
:040220005c0300007b
:020000040000fa
:040224005c03000077
:020000040000fa
:040228005c03000073
:020000040000fa
:04022c005c0300006f
:020000040000fa
:040230005c0300006b
:020000040000fa
:040234005c03000067
:020000040000fa
:040238005c03000063
:020000040000fa
:04023c005c0300005f
:020000040000fa
:040240005c0300005b
:020000040000fa
:040244005c03000057
:020000040000fa
:040248005c03000053
:020000040000fa
:04024c005c0300004f
:020000040000fa
:040250005c0300004b
:020000040000fa
:040254005c03000047
:020000040000fa
:040258005c03000043
:020000040000fa
:04025c005c0300003f
:020000040000fa
:040260005c0300003b
:020000040000fa
:040264005c03000037
:020000040000fa
:040268005c03000033
:020000040000fa
:04026c005c0300002f
:020000040000fa
:040270005c0300002b
:020000040000fa
:040274005c03000027
:020000040000fa
:040278005c03000023
:020000040000fa
:04027c005c0300001f
:020000040000fa
:040280005c0300001b
:020000040000fa
:040284005c03000017
:020000040000fa
:040288005c03000013
:020000040000fa
:04028c005c0300000f
:020000040000fa
:040290005c0300000b
:020000040000fa
:040294005c03000007
:020000040000fa
:040298005c03000003
:020000040000fa
:04029c005c030000ff
:020000040000fa
:0402a0005c030000fb
:020000040000fa
:0402a4005c030000f7
:020000040000fa
:0402a8005c030000f3
:020000040000fa
:0402ac005c030000ef
:020000040000fa
:0402b0005c030000eb
:020000040000fa
:0402b4005c030000e7
:020000040000fa
:0402b8005c030000e3
:020000040000fa
:0402bc005c030000df
:020000040000fa
:0402c0005c030000db
:020000040000fa
:0402c4005c030000d7
:020000040000fa
:0402c8005c030000d3
:020000040000fa
:0402cc005c030000cf
:020000040000fa
:0402d0005c030000cb
:020000040000fa
:0402d4005c030000c7
:020000040000fa
:0402d8005c030000c3
:020000040000fa
:0402dc005c030000bf
:020000040000fa
:0402e0005c030000bb
:020000040000fa
:0402e4005c030000b7
:020000040000fa
:0402e8005c030000b3
:020000040000fa
:0402ec005c030000af
:020000040000fa
:0402f0005c030000ab
:020000040000fa
:0402f4005c030000a7
:020000040000fa
:0402f8005c030000a3
:020000040000fa
:0402fc005c0300009f
:020000040000fa
:040300005c0300009a
:020000040000fa
:040304005c03000096
:020000040000fa
:040308005c03000092
:020000040000fa
:04030c005c0300008e
:020000040000fa
:040310005c0300008a
:020000040000fa
:040314005c03000086
:020000040000fa
:040318005c03000082
:020000040000fa
:04031c005c0300007e
:020000040000fa
:040320005c0300007a
:020000040000fa
:040324005c03000076
:020000040000fa
:040328005c03000072
:020000040000fa
:04032c005c0300006e
:020000040000fa
:040330005c0300006a
:020000040000fa
:040334005c03000066
:020000040000fa
:040338005c03000062
:020000040000fa
:04033c005c0300005e
:020000040000fa
:040340005c0300005a
:020000040000fa
:040344005c03000056
:020000040000fa
:040348005c03000052
:020000040000fa
:04034c005c0300004e
:020000040000fa
:040350005c0300004a
:020000040000fa
:040354005c03000046
:020000040000fa
:040358005c03000042
:020000040000fa
:04035c005c0300003e
:020000040000fa
:040360005c0300003a
:020000040000fa
:040364005c03000036
:020000040000fa
:040368005c03000032
:020000040000fa
:04036c005c0300002e
:020000040000fa
:040370005c0300002a
:020000040000fa
:040374005c03000026
:020000040000fa
:040378005c03000022
:020000040000fa
:04037c005c0300001e
:020000040000fa
:040380005c0300001a
:020000040000fa
:040384005c03000016
:020000040000fa
:040388005c03000012
:020000040000fa
:04038c005c0300000e
:020000040000fa
:040390005c0300000a
:020000040000fa
:040394005c03000006
:020000040000fa
:040398005c03000002
:020000040000fa
:04039c005c030000fe
:020000040000fa
:0403a0005c030000fa
:020000040000fa
:0403a4005c030000f6
:020000040000fa
:0403a8005c030000f2
:020000040000fa
:0403ac005c030000ee
:020000040000fa
:100400000f8320000eff20000e0188000000000076
:10041000000020000000e000020032000001200087
:10042000200288000c00070040c3210001002000ca
:1004300011000700000020000000e0000200320070
:100440000000020000000000181b02000000000075
:100450000040da000000fe004440a900a024200073
:100460000000e0000300320000002000a00188002e
:100470004440a80000000600910188008000780038
:100480000000eb0015003700e280400032a0b4000d
:100490009101ba00e280400032a0b4009102ba009b
:1004a000e280400032a0b4000002eb00472bde00e7
:1004b000f507b200602ce10004003a000059eb009f
:1004c0008301e900fdff3e00040037006128e100e0
:1004d000010032000082eb000b00070011c3ba00dc
:1004e0001101ba000604e00003003a000200e00037
:1004f000e5ff3a0000000600f607b200960188000a
:1005000082007800f5ff37003159ba008301e90015
:100510000c0032002159ba008301e90008003200c2
:100520000400e00003003a00e280400032a0b40082
:10053000f5ff370011d9ba008301e900faff3a004c
:100540008100e800e180400032a0b4000000060015
:100550003600f800809fbe00829fbe00849fbe00d0
:10056000869fbe003400f80000002000a001880033
:100570000000fa0021048000f07f2f00008060005e
:10058000200488000000000021048000008020007a
:10059000008060000000e000fbff3a005f0c0700f5
:1005a00020e8b70028c8bf000004e0000a003a00b5
:1005b00020c8bf000080fb0010418800104180006f
:1005c0004800dd001041880028c8bf000040e80056
:1005d00028e8b7000900370028c8bf00e14f5000e5
:1005e00006003a0020c8bf008080fb001041800058
:1005f00000804000104188002868ef00210480003e
:10060000f07f2f0000806000200488000080fa0046
:100610003400f9004f03be004f02be004f01be0080
:100620004f00be003600f90000400600809fbe006b
:100630003400f80000002000a00188000000fa004b
:1006400020168000620060000000e00004003a0014
:10065000c422a8006041800010088800050037000f
:10066000c422a9006041800031c9290000805000e7
:10067000100888008460a9000080fa003400f900a6
:100680004f00be00004006000000fa008020a900d4
:10069000ffff37000000fa008060a900ffff37006d
:1006a0000000fa008040a900ffff37000000fa00b8
:1006b0008080a900ffff37000000fa00ffff37002d
:1006c00003f0a200889fbe008a9fbe008c1f7800a6
:1006d0007c010700830133006450e1004f003200c9
:1006e0006420e1005200320003826c0007003b00ee
:1006f0000905d0000306d000820f54000c065d00ef
:1007000002003900020032008901780003067800f7
:100710008582550004003d000003fd008103fd00bb
:100720008502ea008b854200840f720002003b00c4
:1007300060001000e08018006011b8000005eb00b8
:100740007a28e1000a00390006007800c75ddd0064
:10075000f707b200878075002d0037008281710095
:100760000a017800610560008180d1000080d3001b
:100770008502e900f9ff3b00060440008784480039
:1007800002003b0060041400e0841c000988a30000
:10079000070032008a81710082817100610164006a
:1007a0008904d1000884d3008b05e80017003700c6
:1007b0000978a30013003a000b00e0001300340096
:1007c0008b05e9000804440089844c000a44740045
:1007d0000978a3000d003a000b00e0000700340088
:1007e0008b05e9000804440089844c0001003a00ac
:1007f0000b0020000978a300f7ff32000001eb0096
:1008000002003700828171000a017800f2000700bf
:100810000cf0a70001f0a0003b0137006420e100cc
:1008200002003a00838f6c003b0133000801be00d8
:100830000200be0034013700889fbe008a9fbe00c0
:100840008c1f78001f0107001002200002003b00ef
:1008500070418800230137008a0062006408e100cb
:1008600002003a00704188002b0137006108e10066
:10087000fcff32000800be0003047800700007008f
:1008800001f0a1000900070008f0a60004003700ed
:100890000001be0091042400b0fd200088ff070085
:1008a00009f0a70001f0a20017013700889fbe00e1
:1008b0008a9fbe008c9fbe000004be00ec000700b3
:1008c0000800be00890678006420e10008003900b5
:1008d000040032000160a000120220007241880072
:1008e0005300370091fc2300b0fd20004e0037007c
:1008f0000006eb0009f0a10003f82300020020002d
:100900000800be00900007000600340001f8230034
:10091000000020000801be00490007000004be00de
:100920002c0020000800be0093e82300320a2300b8
:1009300085000700120034000801be00d1fd23002d
:10094000703d2b005fff07000005be00b3f32300de
:10095000f27a26000800be00f200070003f8230028
:100960000200200056ff07000801be0055ff0700e7
:100970000a01be00320007000004be000c06e800b9
:100980000800be0001f0a10002002000039823002f
:100990006d0007000800be00160035000801be000b
:1009a000e00007000005be0032cd2c0043fb230011
:1009b00044ff0700809fbe001269280003d52b006a
:1009c0000a00be00d7000700620f210013ef2b00c2
:1009d0003cff07000a01be00d20007004f01be0025
:1009e000170007000801be00ce0007000801be0086
:1009f00034ff07000c00e0000b0032000c10a700d1
:100a000001f0a200b2fd200093fc23006260e1002f
:100a10000400320022a9200063f023000c10a7007c
:100a200063f8230027ff07000df0a70001f0a200e4
:100a30004f06be004f05be004f04be00000006007a
:100a4000889fbe008a9fbe008c1f78009d00070013
:100a5000a400330003866c006450e1002e003200d5
:100a60006420e100330032006150e1002f003200c9
:100a70006120e1003100320085855500eb07b000b0
:100a80000900200008042000050037000804440085
:100a900089844c000a0031000603430087834b0021
:100aa0000001530081815b00f8ff33000203be00a8
:100ab0000800a0000804440089844c00f6ff3900b7
:100ac000c639dd00830173000100320013002000ed
:100ad0008904d1000884d3000998a30005003200de
:100ae0000800a7000300a0008904d1000884d300f7
:100af0008b05e8008904d1000884d3000001eb00d5
:100b00000281d2003400070001f0a1000cf0a70020
:100b100001f0a0007c0037006420e1007e0032007c
:100b20000801be000200be00f7ff37006120e100af
:100b3000790032006000b800f3ff370000002000a9
:100b400001f82700f0ff370014002000bc00370038
:100b5000f4ff2f00ba0037000001be004400070078
:100b60000470a70003f0a10003f8a30013003a00eb
:100b70006509b10010003200090035006928e10064
:100b800002003500010028000000050000004000c0
:100b9000818048008502e900fcff3a000000060061
:100ba000f88f4200050035008100d1000080d3009d
:100bb0008502e800fcff3a00000006008000eb0020
:100bc000000005004f89de0082017800b700370081
:100bd0006011b800c5003700810020006180550019
:100be0000b003d000b00200061fe2f000100e10022
:100bf0001d00340082817100610164008904d1000c
:100c00000884d3000000e800faff3a0071002000d9
:100c100061006400030070000200600009003200ff
:100c200061044400e0844c000988a50005003200fe
:100c30008b05e8006808e10002003a008904d10051
:100c40000884d300f20f20000258e10005003d00a7
:100c5000c75ddd00f907b2008980750008007800e3
:100c6000000006000bf827008b007800000005004c
:100c7000c70ade00f107b200f50fb200080032002b
:100c8000e1cf4200020032000170a0002400050004
:100c9000810f7000010032000408050044000500c7
:100ca000810f700002003a00140005008502e9007f
:100cb0000000400081c04800fcff3b000170a00024
:100cc000240005000004be00e9ff07000003be0089
:100cd0000405be000200be00e5ff0700844f75005a
:100ce000000006000200be006450e100050036006e
:100cf0006420e100020036000968a30001003a0008
:100d00000800be000160a0004f0678004f05be003d
:100d10004f04be0000000600f0ff2f00f1ff270087
:100d2000f9ff3700889fbe008a9fbe008c1f7800a5
:100d3000e4ff0700ebff330003866c006450e10022
:100d4000240032006420e100270032006150e100fd
:100d5000220032006120e100210032008b85420038
:100d6000eb07b1000134b800003ab80008044200b3
:100d700089844a00013ab8000030b80088804000f9
:100d800009014a000400330000004000818048004f
:100d9000020149008b05e900c909dd0083017000eb
:100da0000100320013002000c814de004814dd00ea
:100db0004709de001200b200c808de000884700097
:100dc00085ff070001f0a1000cf0a70001f0a000d2
:100dd000cdff37006120e100cfff32000801be00e7
:100de0000200be00f7ff37006150e100fcff3a004f
:100df000c9ff37006022b800060220000000d000c2
:100e00008180d2000482d2008582d2000000a0003e
:100e10000202520083825a000300310002024200a3
:100e200083824a000000a1000603e900f3ff3a00b4
:100e300000000600efff07000400be0000000600ef
:100e4000889fbe008a9fbe00841f78009dff070018
:100e50004f00780011003300f0ff2f00838f6c00eb
:100e600006003b00040565000a00a70008003700e3
:100e700009f0a6001000200008003700820f54007f
:100e8000838f5c00030039001000200001003e0049
:100e90000000200009f0a7000000ea004f05be0096
:100ea0004f04be000000e00000000600881f78002c
:100eb000030478000300e00007003d00600010001c
:100ec000e080180060011900e081190002003b0079
:100ed00001f02d00030037000400070008f0a70010
:100ee00001f0a0004f04780000000600889fbe00bb
:100ef0008a9fbe00008270000402710004827100ab
:100f0000260032000004be000200be006011b800de
:100f10006b092000950220000182cf000a003900f1
:100f20000541b1000082cf00070039000541b10042
:100f30000982cf00040039000541b1000882cf00ca
:100f4000010039000541b100054252001200320093
:100f50000a003b0082817100610164008100d100c0
:100f60000080d3008984d3000884d3008b05e80077
:100f70000442e800f7ff3a00070037000804440085
:100f800089844c0000004800818048008b05e900fe
:100f90000442e900f9ff3a000fff07004f05be00c9
:100fa0004f04be00000006008001780002003700f8
:100fb000815978000201e9000200e000fcff3a00dc
:040fc0000000060027
:020000040000fa
:100fc40045760000657200007974000068690000cd
:100fd4006e67000020690000730d0000204f0000c0
:100fe4004b41000059200000210000004f62000026
:100ff40073740000616300006c650000206f0000e2
:101004006e20000074680000650d0000207200006e
:101014006967000068740000004f000062730000fc
:1010240074610000636c0000652000006f6e0000b6
:1010340020740000686500000d2000006c6500004d
:1010440066740000004c0000657400002773000003
:10105400206600006f7500006e64000020610000cf
:1010640020770000617900000d2000006f6e000001
:1010740020740000686500002072000069670000a9
:1010840068740000004c00006574000027730000c1
:10109400206600006f7500006e640000206100008f
:1010a40020770000617900000d2000006f6e0000c1
:1010b4002074000068650000206c00006566000074
:1010c400740000004e6f000020720000756e000076
:1010d40061770000617900002021000000570000c2
:1010e4006527000072650000207300006372000031
:1010f40065770000656400002e2e0000004f00009c
:101104006273000074610000636c000065200000dd
:10111400696e000020660000726f00006e740000ab
:101124002021000000410000766f00006964000087
:10113400696e0000672000006f620000732e0000db
:10114400003f00003f3f0000004300006c650000ca
:1011540061720000203a0000205000006c6500001d
:1011640061730000652000000d6d00006f760000c3
:1011740065200000666f0000727700006172000055
:1011840064000000536f00006d6500007468000087
:10119400696e0000672000006f6e0000207400007c
:1011a400686500000d200000726900006768000097
:1011b40074000000536f00006d6500007468000047
:1011c400696e000067000000536f00006d65000049
:1011d40074680000696e0000672000006f6e0000f4
:1011e40020740000686500000d2000006c6500009c
:1011f400667400000077000065200000736800003a
:101204006f7500006c6400002063000068610000da
:101214006e670000650d000077610000792c000006
:10122400206900006e200000666f0000726e0000ee
:101234007421000000500000726f0000746500000b
:1012440063740000696e000067200000796f00007d
:10125400750d000020730000686f0000756c0000bd
:1012640064200000776100006974000000500000f1
:10127400726f00007465000063740000696e000002
:1012840067200000796f0000750d000063610000a5
:1012940072650000667500006c2000006f6e00002f
:1012a400206c000065660000740000007765000093
:1012b40020630000616e0000207000006174000073
:1012c4006820000074720000756500000d63000062
:1012d4006172000065660000756c0000206f0000fc
:1012e4006e20000073690000646500007300000054
:1012f4007765000020730000686f0000756c0000c3
:101304006465000020730000746f0000700d00001d
:10131400007700006865000020730000686f00001b
:10132400756c000064200000737400006f7000008e
:101334000d0000007765000020730000686f000056
:10134400756c000064200000737400006f7000006e
:101354000d000000507200006f740000656300000f
:10136400746900006e670000207900006f7500004a
:101374000d2000007765000020730000686f0000f6
:10138400756c000064200000737400006f7000002e
:1013940000630000616e0000206e00006f740000a6
:1013a4002068000061700000706500006e65000038
:1013b400640d0000495200005f6300003d320000ec
:1013c400007900006f75000020680000617600005d
:1013d40065200000746f00000d720000657000004d
:1013e40061690000722000006d6500000077000054
:1013f40065200000736300007265000077650000db
:101404006420000075700000004c000000430000e0
:101414000052000000750000733a00002000000034
:1014240077680000617400002074000068650000a3
:1014340020680000656c00006c0000003031000082
:1014440032330000343500003637000038390000ec
:041454000000000094
:020000040000fa
:101458000000fa0024c8bf006c4060000004e000ef
:101468000f003a0024c8bf00634060000004e00099
:101478000b003a0024c8bf000043b2000004e0009b
:1014880007003a0010c0b300fd0707000000eb009a
:10149800d6080700207e2800c90507006500370028
:1014a80024c8bf006c4060000004e0000f003a0050
:1014b80024c8bf00634060000004e0000b003a004d
:1014c80024c8bf000043b2000004e0000700320057
:1014d80010c0b300ea07070040ff2f00c308070049
:1014e800807f2800b60507005200370024c8bf00d7
:1014f8006c4060000004e0000f003a0024c8bf0000
:10150800634060000004e0000b00320024c8bf0004
:101518000043b2000004e00007003a0010c0b30026
:10152800d7070700c0002000b0080700f080280097
:10153800a30507003f00370024c8bf006c406000c7
:101548000004e0001200320024c8bf0063406000bd
:101558000004e0000e00320024c8bf000043b200bf
:101568000004e0000a003a0010c0b300f4070700c6
:10157800c0fe2f009d080700508228009005070034
:1015880000d0220011132000cc08070029003700e2
:1015980024c8bf006c4060000004e0001200320064
:1015a80024c8bf00634060000004e0000e003a0059
:1015b80024c8bf000043b2000004e0000a00320063
:1015c80010c0b300de0707004001200087080700ad
:1015d800508428007a05070000d02200111320004b
:1015e800b60807001300370024c8bf006c4060002d
:1015f8000004e0000c00320024c8bf006340600013
:101608000004e0000800320024c8bf000043b20014
:101618000004e00004003200fc07070040862800b0
:101628006705070003003700f80707001087280040
:10163800630507000080fa00000006000000fa00b9
:1016480024c8bf006c4060000004e0000b003a00b2
:1016580024c8bf000043b2000004e00007003a00bd
:1016680010c0b300860707000000eb005f08070002
:10167800207e2800520507002d00370024c8bf002f
:101688006c4060000004e0000b003a0024c8bf0072
:101698000043b2000004e0000700320010c0b300ad
:1016a8007707070010ff2f0050080700807f2800e9
:1016b800430507001e00370024c8bf006c406000c7
:1016c8000004e0000800320024c8bf000043b20054
:1016d8000004e00004003200cc070700108828004e
:1016e800370507001200370024c8bf006c406000af
:1016f8000004e0000b00320024c8bf000043b20021
:101708000004e00007003a00400120003708070005
:1017180010c0b3005a0707005089280028050700a1
:1017280003003700b9070700308a2800240507009e
:101738000080fa00000006000000fa0024c8bf007c
:101748006c4060000004e00022003a0024c8bf009a
:10175800634060000004e0001e003a0024c8bf0097
:101768000043b2000004e0001a003a0024c8bf0099
:101778000080fb004600de00004078000080fb008f
:10178800e10f500008003200e20f50000b00320059
:101798000000e0007d013a009c070700708a2800dd
:1017a800070507000a00370010c0b30064070700e8
:1017b800708a2800020507000500370010c0b30032
:1017c8002f070700708a2800fd04070000000000aa
:1017d8008101370024c8bf006c4060000004e000ad
:1017e8000400320024c8bf006c406000e44f500081
:1017f80022003a0024c8bf00634060000004e000f3
:101808001e003a0024c8bf000043b2000004e000f4
:101818001a00320024c8bf000080fb004600de002a
:10182800004078000080fb00e10f50000800320003
:10183800e20f50000b0032000000e00055013a00b2
:1018480072070700408c2800dd0407000a003700f3
:1018580010c0b3003a070700408c2800d8040700de
:101868000500370010c0b30005070700c08d280029
:10187800d3040700000000005701370024c8bf0048
:101888006c4060000004e0000400320024c8bf007f
:101898006c406000e44f500022003a0024c8bf00aa
:1018a800634060000004e0001e00320024c8bf004e
:1018b8000043b2000004e0001a003a0024c8bf0048
:1018c8000080fb004600de00004078000080fb003e
:1018d800e10f500008003200e20f50000b00320008
:1018e8000000e0002d013a0048070700608e28003c
:1018f800b30407000a00370010c0b3001007070040
:10190800608e2800ae0407000500370010c0b30041
:10191800db060700608e2800a9040700000000000d
:101928002d01370024c8bf006c406000e44f500010
:1019380022003a0024c8bf00634060000004e000b1
:101948001e003a0024c8bf000043b2000004e000b3
:101958001a003a0024c8bf000080fb004600de00e1
:10196800004078000080fb00e10f500008003200c2
:10197800e20f50000b0032000000e00009013a00bd
:1019880022070700d08f28008d0407000a003700bf
:1019980010c0b300ea060700d08f280088040700ab
:1019a8000500370010c0b300b5060700d08f280027
:1019b80083040700000000000701370024c8bf00a7
:1019c8006c406000ec4f500022003a0024c8bf0071
:1019d800634060000004e0001e003a0024c8bf0015
:1019e8000043b2000004e0001a003a0024c8bf0017
:1019f8000080fb004600de00004078000080fb000d
:101a0800e10f500008003200e20f50000b003200d6
:101a18000000e000e5003a00fc060700d09128002d
:101a2800670407000a00370010c0b300c4060700a7
:101a3800d0912800620407000500370010c0b300e9
:101a48008f060700d09128005d0407000000000001
:101a5800e100370024c8bf006c406000ec4f500024
:101a680022003a0024c8bf00634060000004e00080
:101a78001e00320024c8bf000043b2000004e0008a
:101a88001a003a0024c8bf000080fb004600de00b0
:101a9800004078000080fb00e10f50000800320091
:101aa800e20f50000b0032000000e000c1003a00d5
:101ab800d606070090932800410407000a00370063
:101ac80010c0b3009e060700909328003c0407004e
:101ad8000500370010c0b30069060700909328007e
:101ae8003704070000000000bb00370024c8bf000f
:101af8006c406000ec4f500022003a0024c8bf0040
:101b0800634060000004e0001e003a0024c8bf00e3
:101b18000043b2000004e0001a00320024c8bf00ed
:101b28000080fb004600de00004078000080fb00db
:101b3800e10f500008003200e20f50000b003200a5
:101b48000000e0009d003a00b006070090932800ce
:101b58001b0407000a00370010c0b300780607000e
:101b680090932800160407000500370010c0b30042
:101b780043060700909328001104070000000000a6
:101b88009500370024c8bf006c4060000004e000e6
:101b980022003a0024c8bf00634060000004e0004f
:101ba8001e00320024c8bf000043b2000004e00059
:101bb8001a00320024c8bf000080fb004600de0087
:101bc800004078000080fb00e10f50000800320060
:101bd800e20f50000b0032000000e00079003a00ec
:101be8008a06070080952800f50307000a003700d9
:101bf80010c0b3005206070080952800f0030700c4
:101c08000500370010c0b3001d06070080952800a6
:101c1800eb030700000000006f00370024c8bf0076
:101c28006c406000e44f500022003a0024c8bf0016
:101c3800634060000004e0001e00320024c8bf00ba
:101c48000043b2000004e0001a00320024c8bf00bc
:101c58000080fb004600de00004078000080fb00aa
:101c6800e10f500008003200e20f50000b00320074
:101c78000000e00055003a0064060700a09728001d
:101c8800cf0307000a00370010c0b3002c06070076
:101c9800b0982800ca0307000500370010c0b30039
:101ca800f7050700c0992800c503070000000000d9
:101cb8004900370024c8bf006c406000ec4f50005a
:101cc80023003a0024c8bf00634060000004e0001d
:101cd8001f00320024c8bf000043b2000004e00027
:101ce8001b00320024c8bf000080fb004600de0055
:101cf800004078000080fb00e10f5000080032002f
:101d0800e20f50000b0032000000e00031003a0002
:101d18003e060700c09a2800a90307000a003700fa
:101d280010c0b30006060700c09a2800a4030700e5
:101d38000500370010c0b300d1050700c09a28007d
:101d48009f03070000000000000000002200370089
:101d580024c8bf006c406000e84f500008003a00fb
:101d6800b09c28009603070000402b00414c20003f
:101d7800d2060700309e280091030700ffff3700b6
:101d8800909f28008e030700ffff37000000000027
:101d980011003700000000000f00370000000000ad
:101da8000d003700000000000b00370000000000a5
:101db800090037000000000007003700000000009d
:101dc8000500370000000000030037000000000095
:101dd80001003700000000000080fa000000060043
:101de8000200fa00000f780070a0280074030700b2
:101df80011c0b30030c0b3008c0307001e00780088
:101e080010007800b801070011c0b30090c0b300fb
:101e18008603070090a028006903070011c0b300db
:101e2800b0c0b300810307001e80e80010007800ee
:101e3800ad01070021c0b30010c0b3007b03070049
:101e4800b0a028005e03070021c0b30030c0b30073
:101e5800760307009e007800648040001000780038
:101e6800a10107000080fa00000006000200fa0045
:101e7800000f7800d0a028005103070011c0b3005c
:101e880050c0b300690307009e00780066804000d8
:101e980010007800940107000080fa000000060096
:101ea8000600fa00889fbe00000f7800110798000e
:101eb800220798002e009000cf80de003ffb07002d
:101ec8000004be001e009000cf80de003bfb070030
:101ed8000801be0056fa070001f0a2000200200027
:101ee800433324008dfb0700325c2f008304240059
:101ef800d1fa07000200200043332400eff907005d
:101f080013fb0700800078001e00780001087800a5
:101f18004f04be000080fa00000006000000fa002e
:101f2800c002a800e004a800c802a800e204a800b3
:101f3800c862a800e264a800c822a800e224a80099
:101f4800c982a900e384a900c962a900c0e2a90066
:101f5800c9a2a900e3a4a900c942a900c042a900d6
:101f6800e044a900c062a900e064a900c882a900f1
:101f7800e284a900c082a900e084a900c022a900c7
:101f8800e024a900c902a800e304a900c922a80006
:101f9800e324a900e244a900c842a800e2e4a90099
:101fa800c8e2a9000080fa00000006000000fa005c
:101fb8004023ef005023ef0020002000201a880063
:101fc8004223ef000080fa00000006000800fa0033
:101fd800100798002107980026c8bf000040e800b5
:101fe80026e8b7000040eb00004f780011003700ea
:101ff8001e00fb0000004000ae0090008080400002
:102008001e00fb00000040002e019000000041006f
:10201800100178001e00fb00000040009e019000a7
:10202800008041001000780000004100800878001e
:102038001e4fe8001e407800e34f5000ecff3400cc
:1020480026c8bf00ea4f500019003a000040eb00d4
:10205800004f7800120037001e00fb00000040000f
:10206800ae00900080804000310798001e00fb0001
:10207800000040002e01900000004100100178008f
:1020880026c8bf000080fb0080017800110009000d
:102098000381d800be009000800878001e4fe80039
:1020a8001e407800e34f5000ebff34002668ef0035
:1020b8000080fa00000006000200fa00881f78007d
:1020c800000f78001e007800100078008000eb00f8
:1020d800bdfa070002002000030524000ffb0700db
:1020e80002002c00f347240053fa070018c0b3007d
:1020f800d2cc2c00c3f4230093fa07000000e000c0
:1021080001003d000044eb000804e000020032003a
:102118002408a8002428a9001e00780010007800d0
:102128008000eb00a8fa0700020020000305240045
:10213800fafa070002002c00f34724003efa0700d1
:1021480018c0b300d2cc2c00c3dc23007cfa0700f3
:102158000000e000010034000044eb000804e00047
:10216800020032002408a9002428a9001e80e800e3
:10217800100078008000eb0093fa070002002000ae
:1021880003052400e5fa070002002c00f3472400a9
:1021980029fa070018c0b300d2cc2c00c3f42300de
:1021a80069fa07000000e00001003d000044eb0070
:1021b8000804e000020032002448a8002468a900ae
:1021c8001e80e800100078008000eb007efa07000f
:1021d8000200200003052400d0fa070002002c00aa
:1021e800f347240014fa070018c0b300d2cc2c001f
:1021f800c3e4230052fa07000000e00001003400a5
:102208000044eb000804e0000600320024c8bf00c8
:102218006c406000e44f500002003a002448a800d7
:102228002468a8001e80e800100078008000eb00f9
:1022380065fa07000200200003052400b7fa07002a
:1022480002002c00f3472400fbf9070018c0b30074
:10225800d2cc2c00c3dc230039fa07000000e000d0
:10226800010034000044eb000804e00006003200de
:1022780024c8bf006c406000ec4f500002003a00d8
:102288002448a9002468a9009e00780064804000c2
:10229800100078008000eb004bfa070002002000d5
:1022a800030524009dfa070002002c00f3472400d0
:1022b800e1f9070018c0b300d2cc2c00c3f4230006
:1022c80021fa07000000e00001003d000044eb0097
:1022d8000804e000020032002488a80024a8a9000d
:1022e8009e00780064804000100078008000eb00b9
:1022f80035fa0700020020000305240087fa0700ca
:1023080002002c00f3472400cbf9070018c0b300e3
:10231800d2cc2c00c3dc230009fa07000000e0003f
:10232800010034000044eb000804e0000200320021
:102338002488a90024a8a9004f0478000080fa0086
:10234800000006000200fa00000f780025c8bf0050
:102358000080fb00e10f500013003200e10f500035
:1023680003003c000000e0000600320028003700af
:10237800e20f500014003200e30f50001b0032003f
:102388002300370041e3a900411a800000fe2f0016
:10239800008060000010a000401a880041e3a800f7
:1023a800001a80001a00370041e3a900411a800092
:1023b80000fe2f0000806000401a880041e3a8005a
:1023c800001a80001200370041e3a900411a80007a
:1023d80000fe2f00008060005000b300401a880003
:1023e80041e3a800001a80000900370041e3a90072
:1023f800411a800000fe2f00008060003000b3000a
:10240800401a880041e3a800001a8000000000007c
:102418004023a80000e8230001002000270507004a
:102428004023a90000000000001a8000610060003d
:102438000000e000fcff320025c8bf000080fb0060
:10244800e10f50000e003200e10f500003003c0085
:102458000000e0000600320017003700e20f5000cd
:102468000b003200e30f50000e003200120037005c
:10247800011880001e007800010878000e0037005f
:102488001e80e80001188000010878000a00370063
:102498009e007800648040000118800001087800e0
:1024a800050037001e017800660041000118800011
:1024b800010878000000000025c8bf000080fb006c
:1024c8008000e800400020000001780011000900a9
:1024d8008200d8008000fd000040780025e8b700a1
:1024e8000080fa00000006000600fa0020079800a5
:1024f8002e0090008000eb00b3f9070002002000d6
:102508000305240005fa070002002c00f347240005
:1025180049f90700008fbe0022c0b3001e00be00ac
:10252800df0107000080fa00000006000000fa0042
:102538006481a900200b80000000a0000010a10009
:102548000020a0000030a100200b880064a1a90091
:102558006561a900200b80000080a1000090a10007
:1025680000a0a100200b8800200b80000060a100c3
:102578000070a100200b880066e1a900310b8000e3
:1025880000fe2f0000806000300b88006b01a8005f
:102598006b21a800700b80000080a1000090a100b2
:1025a80000a0a100700b88006ea1a9006e81a9008f
:1025b8007421ef00800c2000c00b88007c21ef0004
:1025c8008021ef0065e1a8000080fa000000060005
:1025d8000000fa000421ef000021ef00200880002d
:1025e8000040a0000050a1002008880030c9290040
:1025f80010088800e0bb20006041880020058000aa
:1026080000c0a00000d0a10000e0a10020058800c3
:102618008460a9009460a80005e1a8000080fa0081
:10262800000006000200fa00881f7800000f7800fa
:1026380024c8bf006c4060000004e00051003a006c
:102648001e0078008000eb005ff907000200200000
:1026580003052400b1f9070002002c00f347240009
:10266800f5f8070018c0b300323323003301240003
:1026780033f907000000e000010035000044eb00da
:102688000804e000150032001e0078008000eb000e
:102698004df9070002002000030524009ff90700f8
:1026a80002002c00f3472400e3f8070018c0b30029
:1026b800a299290093fd230023f907000000e000f8
:1026c80001003c000044eb000804e0000300320075
:1026d80024c8a90024e8a900630037001e00780078
:1026e8008000eb0038f907000200200003052400f1
:1026f8008af9070002002c00f3472400cef80700ef
:1027080018c0b3006266260063fe23000cf90700b8
:102718000000e000010035000044eb000804e00080
:102728000300320024c8a80024e8a9004e0037009e
:102738001e0078008000eb0023f90700020020004b
:102748000305240075f9070002002c00f347240054
:10275800b9f8070018c0b3000200200003002400e5
:10276800f9f807000000e00001003c000044eb001d
:102778000804e0003b00320024c8a90024e8a800af
:102788003900370024c8bf006c406000e44f500097
:102798000400320024c8bf006c406000ec4f5000b9
:1027a8002d003a001e0078008000eb0006f90700b3
:1027b800020020000305240058f9070002002c003d
:1027c800f34724009cf8070018c0b300020020005b
:1027d80003002400daf807000000e00001003500db
:1027e8000044eb000804e0000300320024c8a800fd
:1027f80024e8a9001c0037001e0078008000eb00c8
:10280800f1f80700020020000305240043f907003f
:1028180002002c00f347240087f8070018c0b30013
:102828006266260063022400c7f807000000e00083
:1028380001003c000044eb000804e0000300320003
:1028480024c8a90024e8a8000700370024c8a90064
:1028580024e8a9000400370020a12800d8000700b8
:1028680001003700000000004f0478000080fa00e3
:10287800000006000000fa009001200040118800c6
:10288800500580000000a1000010a1000020a00059
:10289800500588004005800000c0a10000d0a100bc
:1028a80000e0a000400588002222ef002022ef006f
:1028b80021e2a8002342a8009560a8000080fa0041
:1028c800000006000000fa00cda2a90000982a0026
:1028d80031002000f9030700c482a900cc82a900b6
:1028e800c462a800c442a800cd42a800cd42a900f5
:1028f8000088230011002000f0030700cd42a80043
:10290800cd42a9000064200001002000eb0307006d
:10291800cd42a800cd42a900008823001100200064
:10292800e6030700c482a900cc82a900c462a800fb
:10293800c442a900cd42a800cd42a90000402c0005
:1029480091002000dd03070080c2b30008000700e3
:1029580080c0b30006000700c0c0b3000400070031
:1029680060c0b300020007000080fa000000060003
:102978000200fa00004f7800cda2a9001e4078009e
:102988000004e00002003d00c482a80001003700f6
:10299800c482a9009e80fb00000420000080600023
:1029a8000000e00002003200cc82a80001003700dd
:1029b800cc82a9009e80fb000002200000806000fd
:1029c8000000e00002003200c462a80001003700e5
:1029d800c462a9001e80fb00700060000000e000d7
:1029e80002003200c442a80001003700c442a90016
:1029f800cd42a800cd42a9001e80fb0068006000ff
:102a08000000e00002003200c482a8000100370084
:102a1800c482a9001e80fb00640060000000e00082
:102a280002003200cc82a80001003700cc82a90045
:102a38001e80fb00620060000000e000020032001f
:102a4800c462a80001003700c462a9001e80fb0010
:102a580061006000004078000004e00002003200dd
:102a6800c442a80001003700c442a900cd42a80012
:102a7800cd42a90000282000010020008f03070094
:102a88000080fa00000006000200fa00004f7800fb
:102a9800cda2a8001e4078000004e00002003d001e
:102aa800c482a80001003700c482a9009e80fb00f0
:102ab80000042000008060000000e00002003200f6
:102ac800cc82a80001003700cc82a9009e80fb00c0
:102ad80000022000008060000000e00002003200d8
:102ae800c462a80001003700c462a9001e80fb0070
:102af800700060000000e00002003200c442a8003c
:102b080001003700c442a900cd42a800cd42a90067
:102b18001e80fb00680060000000e0000200320038
:102b2800c482a80001003700c482a9001e80fb00ef
:102b3800640060000000e00002003200cc82a800bf
:102b480001003700cc82a9001e80fb0062006000f3
:102b58000000e00002003200c462a8000100370053
:102b6800c462a9001e80fb0061006000004078007c
:102b78000004e00002003200c442a800010037004f
:102b8800c442a900cd42a800cd42a90000282000d7
:102b980001002000490307000080fa000000060039
:102ba8000000fa0010c0b30071ff070000d0270032
:102bb80001002000410307000080fa000000060021
:102bc8000200fa00000f78000c0037001e007800a1
:102bd80010407800ed4f500004003a0021c0b300c7
:102be80010c0b30011000700030037001e00780072
:102bf80010407800a4ff07001e0fe8001e007800b0
:102c0800104078000004e000f0ff3a000080fa006d
:102c1800000006000200fa00004f78001e4078000d
:102c280099ff07000080fa00000006000200fa0081
:102c3800004f7800114798001e409000e14f500067
:102c480003003a00f1c7b3001ec0400048ff070068
:102c58001e409000e24f500003003a00f0cbb30052
:102c68001e40400042ff07000080fa0000000600f6
:102c78000200fa00004f78001e407800e14f500033
:102c880003003a00c0c0b30039ff07000200370054
:102c980080c0b30036ff07000080fa00000006007d
:102ca8001000fa00889fbe0050079800610798003e
:102cb800624f9800a0002000010020003007980013
:102cc8004107980018c0b3006011b8005e0090007a
:102cd800ee0090009af707000000e00001003500c0
:102ce8000044eb000804e00007003200d0c2b30043
:102cf800c8ff07005e009000ee00900001f0a200ff
:102d080050079800610798000040eb00004f7800da
:102d1800110037004e0090006a00b90000017800e9
:102d28003e0090006000b9000000780000014100fa
:102d3800be009000a00020000008b800010141007a
:102d48008200780030079800410798003007980003
:102d5800410798001e4fe8006e4890009e4078009a
:102d680080cf5000ebff39003e009000ce0090006d
:102d780095f707000004be005e009000ee0090008a
:102d880073f7070090f707000001be005e0090008f
:102d9800ee00900048f607000001be000800be00e3
:102da800def707006af70700100798002107980068
:102db8001e009000ae009000a2002000030020003a
:102dc8001af807000001be004000200001002000a2
:102dd800800f5100818f5900060036001e009000b8
:102de800ae0090006a004000e0804800100798009c
:102df800210798003e009000ce009000610150002d
:102e0800e08158001e009000ae009000800f510035
:102e1800818f59000a0031000200200003f82300c6
:102e28005e009000ee00900024f60700500798001e
:102e3800610798006000b800100798002107980003
:102e48005e009000ee00900041f707003100070097
:102e58006e4890000004e0002b003200c0c2b300ae
:102e68006cff07003e009000ce0090004206200054
:102e780003002000ddf7070030079800410798009d
:102e88001e009000ae009000a20020000300200069
:102e9800d6f7070010079800210798000c003700a4
:102ea80000c3b3005bff07003e009000ce00900017
:102eb800a200200003002000ccf70700300798008c
:102ec800410798006e4890000040e900604f980064
:102ed8003e019000ce0190001e009000ae009000d0
:102ee800c2f70700e00f5000e08f580003003a00d7
:102ef8006e489000e14f5000e9ff3e001e00900030
:102f0800ae009000030007004f04be000080fa00e6
:102f1800000006000600fa00889fbe00100798000f
:102f2800210798000040eb00004f78001e84fb004a
:102f3800594180001e009000ae009000a2002000c1
:102f480003002000b9f70700000078000080440063
:102f58001040780080407800008020000000440085
:102f6800014878001e009000ae009000a2002000ea
:102f7800030020009df7070010079800210798001c
:102f88001e4fe8001e009000ae009000e00f5000b9
:102f9800e08f5800e5ff3a001e4fe9009e80fb00d5
:102fa80000802000008040001040780019ff0700d2
:102fb8001e4078000004e000f7ff3a004f04be000e
:102fc8000080fa00000006000a00fa0030079800a6
:102fd80041079800620020008000eb000e00780096
:102fe800eff70700210007000070270011002000fc
:102ff800320207000e007800480007001e407800e3
:103008000080fb008000ea003e0090000108780084
:103018003e00900010007800c800dd001e409000bf
:103028000080fb00808050003e009000010878007e
:103038004e4090000080fb008000ea004e009000a7
:10304800010878004e00900010007800c800dd00ec
:103058005e4090000080fb00808050004e00900091
:10306800010878000080fa00000006000000fa005d
:103078007d000700c0032000001088008600a9001a
:103088000000000030048000610060000000e000e3
:10309800fcff32009b0007000004e00018003a0023
:1030a80020002000001088008600a9000000000011
:1030b80030048000610060000000e000fcff320086
:1030c800900007000004e0000f003a001000200004
:1030d800001088008600a90000000000300480006d
:1030e800610060000000e000fcff3200850007007e
:1030f8000004e00006003a006700070005003700fa
:103108000000000003003700000000000100370045
:10311800000000000080fa00000006000400fa0029
:103128001007980050000700d00320000010880006
:103138008600a900000000003004800061006000e3
:103148000000e000fcff32006e0007000004e00011
:1031580036003a000040eb00004f78002e003700a0
:10316800350007008600a9000462a80000000000de
:1031780030048000610060000000e000fcff3200c5
:103188000000000040108000610060000000e000c6
:10319800fcff32001e407800e54f500009003a005d
:1031a8002500070004a2a8000482a800000000006f
:1031b80020108000700060000000e000fcff3a0072
:1031c8000e0037001c00070004a2a9000482a80012
:1031d8000000000020108000700060000000e00087
:1031e800fcff3a00000000001110800000042000dd
:1031f800008060000000e000fbff3a001e80fb003a
:103208009e009000008040000110800081407800fe
:10321800014878001e4fe8001e407800e54f500036
:10322800cfff36001c000700010037000000000037
:103238000080fa00000006000000fa00000000000c
:10324800201080007f0060000000e000fcff3a00d2
:1032580040108000640060000000e000f8ff3a00c1
:103268000080fa00000006000000fa0002e2a9004f
:10327800f1ff07008600a9000402a8000000000072
:1032880020108000610060000000e000fcff3a00b0
:103298000080fa00000006000000fa000442a800be
:1032a8000000000020108000640060000000e000c2
:1032b800fcff3a000080fa00000006000000fa0057
:1032c800f0c9b3000ae2b70002e2a90002c2a900ed
:1032d8000282a900101080000000a1000010a100c7
:1032e8000020a1000030a0001010880002a2a80051
:1032f8000422ef000822ef0008e2a8000080fa008c
:10330800000006000000fa002110800000042000e0
:10331800008060000000e0000200320010c0b3002e
:10332800010037000040eb000080fa0000000600b2
:103338000000fa00ccff0700c0032000001088003e
:103348008600a900000000003004800061006000d1
:103358000000e000fcff3200eaff07000004e00084
:103368003a003a000022ef008600a90000000000a1
:1033780030048000610060000000e000fcff3200c3
:10338800e0ff07000004e00032003a0000072000d8
:10339800001088008600a9000000000030048000aa
:1033a800610060000000e000fcff3200d5ff07006c
:1033b8000004e00029003a00b7ff0700aaff070051
:1033c800c0032000001088008600a900000000004b
:1033d80030048000610060000000e000fcff320063
:1033e800c8ff07000004e0001e003a00100020009b
:1033f800001088008600a90000000000300480004a
:10340800610060000000e000fcff3200bdff070023
:103418000004e00015003a000002200000108800b7
:103428008600a900000000003004800061006000f0
:103438000000e000fcff3200b2ff07000004e000db
:103448000c003a0094ff07000b0037000000000052
:1034580009003700000000000700370000000000e6
:1034680005003700000000000300370000000000de
:1034780001003700000000000080fa00000006008c
:103488000200fa00004f78008021ef0065e1a900f2
:103498006b01a8006b21a9001e80fb00e20f500001
:1034a8000e003200e30f500016003200e10f50000a
:1034b8001e003a00c00b80008000eb00c2f5070038
:1034c80022ae270043f1230014f60700a0f50700f9
:1034d80000007800e00b880015003700c00b800062
:1034e8008000eb00b8f50700a299290093f12300aa
:1034f8000af6070096f5070000007800e00b880040
:103508000b003700c00b80008000eb00aef5070011
:103518003233230033f3230000f607008cf507004d
:1035280000007800e00b8800010037000000000070
:10353800c4e2a80065e1a8000080fa0000000600c7
:103548000200fa00004f78007c21ef0065e1a90035
:103558006b01a9006b21a8001e80fb00e20f500040
:1035680011003200e30f500019003200e10f500043
:1035780021003a00c00b80008000eb0092f50700a4
:10358800d2a3200073ed2300e4f50700a2992900d7
:1035980093f92300e1f507006df5070000007800b6
:1035a800000c880015003700c00b80008000eb007d
:1035b80085f50700c21e250083f32300d7f5070011
:1035c80063f5070000007800000c88000b00370046
:1035d800c00b80008000eb007bf50700e2a3200011
:1035e80073f52300cdf5070059f5070000007800b2
:1035f800000c88000100370000000000c4e2a800a9
:1036080065e1a8000080fa00000006000000fa004a
:10361800c4e2a80065e1a9006b21a9006b01a9001b
:103628000080fa00000006001e00fa00b100070042
:103638003afa07008ffc070020ff07003cff07004d
:103648005afa0700b9fb07009efc0700e0fb0700d9
:103658000000eb00100798000000eb00200798001e
:103668000000eb0030079800680047008200200047
:103678008000eb004af60700700047008200200037
:103688008000eb0046f6070045fd07000040eb0010
:10369800104798000f0037000040eb00004f7800fb
:1036a800030037006800470026fb07001e4fe800ac
:1036b8001e407800e34f5000faff3600f000470044
:1036c8006800470041fa07001e4090000040e800eb
:1036d800104798001e409000e94f5000eeff36005a
:1036e8002ffd0700000c80008000eb0036f5070076
:1036f8000041eb006afd070029fd07007000470044
:103708006dfa07003e089000c6fb07000af807009c
:10371800deff37000200fa0030118000004f780009
:103728001e4078000080fa00000006000200fa003f
:10373800004f7800000000001111800000202000d8
:10374800008060000000e000fbff3a001e80fb00e4
:10375800201188000080fa00000006000400fa002a
:10376800100798000000eb00000f780007003700f2
:103778001e009000104078009e0090008100e80034
:1037880011079800e9ff07001e0fe8001e009000cf
:103798000000e000f6ff3a000080fa000000060092
:1037a8000400fa00100798001e009000004f7800ef
:1037b8009e00900000f02f00008060001007980025
:1037c8001e0090004800de00100798001e009000c0
:1037d800104798001e409000d4ff07001e40780054
:1037e800d2ff07000080fa00000006000200fa007d
:1037f800000f780005e1a900400b20009e0078002a
:10380800808f5000010034001e0fea001e0078006f
:10381800f40f500003003400e0d420006041880019
:103828000c0037001e007800f40f400003003d0034
:10383800e0a2200060418800060037001e007800e2
:103848007400b90080007800e0bb200000804000d0
:103858006041880005e1a8000080fa000000060029
:020000040000fa
:1038680028080000020000000000000020080000f6
:10387800040000000000000024080000040000000c
:10388800000000002a0800000200000002000000fa
:10389800208a00000008000020000000000000004e
:1038a8002c08000002000000000000002e080000a4
:0c38b80002000000000000008e1c8000d8
:020000040000fa
:1038c400f03fb1000180b10006003500ee030900ad
:1038d40000000000403fb1000180b100fbff3d004b
:1038e4001000b000203fb000020035000080090045
:0838f4000000000000000600c6
:020000040000fa
:1038fc000000fa00203a80000080a1000090a10096
:10390c0000a0a100203a88000080fa000000060008
:020000040000fa
:04391c0000000000a7
:020000040000fa
:0200000401f009
:04000000ffff0000fe
:020000040000fa
:0200000401f009
:04000800ffff0000f6
:020000040000fa
:0200000401f009
:04000c0059ff000098
:020000040000fa
:0200000401f009
:04001000bbff000032
:020000040000fa
:0200000401f009
:040014005fff00008a
:020000040000fa
:0200000401f009
:04001800ffff0000e6
:020000040000fa
:0200000401f009
:04001c00fdff0000e4
:00000001FF
