:020000040000fa
:080000000002040000000000f2
:020000040000fa
:10000800b20200009a020000a0020000a60200004e
:10001800ac020000b2020000b2020000b20200000e
:10002800b2020000b2020000b2020000b2020000f8
:10003800b2020000b2020000b2020000b2020000e8
:10004800b2020000b2020000b2020000b2020000d8
:10005800b2020000b2020000b2020000b2020000c8
:10006800b2020000b2020000b2020000b2020000b8
:10007800b2020000b2020000b2020000b2020000a8
:10008800b2020000b2020000b2020000b202000098
:10009800b2020000b2020000b2020000b202000088
:1000a800b2020000b2020000b2020000b202000078
:1000b800b2020000b2020000b2020000b202000068
:1000c800b2020000b2020000b2020000b202000058
:1000d800b2020000b2020000b2020000b202000048
:1000e800b2020000b2020000b2020000b202000038
:1000f800b2020000b2020000b2020000b202000028
:10010800b2020000b2020000b2020000b202000017
:10011800b2020000b2020000b2020000b202000007
:10012800b2020000b2020000b2020000b2020000f7
:10013800b2020000b2020000b2020000b2020000e7
:10014800b2020000b2020000b2020000b2020000d7
:10015800b2020000b2020000b2020000b2020000c7
:10016800b2020000b2020000b2020000b2020000b7
:10017800b2020000b2020000b2020000b2020000a7
:10018800b2020000b2020000b2020000b202000097
:10019800b2020000b2020000b2020000b202000087
:1001a800b2020000b2020000b2020000b202000077
:1001b800b2020000b2020000b2020000b202000067
:1001c800b2020000b2020000b2020000b202000057
:1001d800b2020000b2020000b2020000b202000047
:1001e800b2020000b2020000b2020000b202000037
:0801f800b2020000b202000097
:020000040000fa
:10020800b20200009a020000a0020000a60200004c
:10021800ac020000b2020000b2020000b20200000c
:10022800b2020000b2020000b2020000b2020000f6
:10023800b2020000b2020000b2020000b2020000e6
:10024800b2020000b2020000b2020000b2020000d6
:10025800b2020000b2020000b2020000b2020000c6
:10026800b2020000b2020000b2020000b2020000b6
:10027800b2020000b2020000b2020000b2020000a6
:10028800b2020000b2020000b2020000b202000096
:10029800b2020000b2020000b2020000b202000086
:1002a800b2020000b2020000b2020000b202000076
:1002b800b2020000b2020000b2020000b202000066
:1002c800b2020000b2020000b2020000b202000056
:1002d800b2020000b2020000b2020000b202000046
:1002e800b2020000b2020000b2020000b202000036
:1002f800b2020000b2020000b2020000b202000026
:10030800b2020000b2020000b2020000b202000015
:10031800b2020000b2020000b2020000b202000005
:10032800b2020000b2020000b2020000b2020000f5
:10033800b2020000b2020000b2020000b2020000e5
:10034800b2020000b2020000b2020000b2020000d5
:10035800b2020000b2020000b2020000b2020000c5
:10036800b2020000b2020000b2020000b2020000b5
:10037800b2020000b2020000b2020000b2020000a5
:10038800b2020000b2020000b2020000b202000095
:10039800b2020000b2020000b2020000b202000085
:1003a800b2020000b2020000b2020000b202000075
:1003b800b2020000b2020000b2020000b202000065
:1003c800b2020000b2020000b2020000b202000055
:1003d800b2020000b2020000b2020000b202000045
:1003e800b2020000b2020000b2020000b202000035
:0803f800b2020000b202000095
:020000040000fa
:100400000f8020000eff20000e0188000000000079
:10041000000020000000e000020032000001200087
:10042000200288000c000700205920000100200055
:1004300011000700000020000000e0000200320070
:100440000000020000000000400502000000000063
:100450000040da000000fe004440a9000000200037
:100460000000e0000300320000002000a00188002e
:100470004440a80000000600910188008000780038
:100480000000eb0015003700e280400032a0b4000d
:100490009101ba00e280400032a0b4009102ba009b
:1004a000e280400032a0b4000002eb00472bde00e7
:1004b000f507b200602ce10004003a000059eb009f
:1004c0008301e900fdff3e00040037006128e100e0
:1004d000010032000082eb00040007001101ba00a5
:1004e0000200e000e8ff3a00000006003159ba00bf
:1004f0008301e9000c0032002159ba008301e900b0
:10050000080032000400e00003003a00e2804000ee
:1005100032a0b400f5ff370011d9ba008301e90019
:10052000faff3a008100e800e180400032a0b40008
:10053000000006000000fa008020a900ffff37003d
:100540000000fa008060a900ffff37000000fa00f9
:100550008040a900ffff37000000fa008080a9005a
:0c056000ffff37000000fa00ffff37002b
:020000040000fa
:10056c000000fa000080fa00000006000000fa000b
:10057c00c002a800c802a800c822a800e004a80075
:10058c00e204a800e224a800c862a800e264a80063
:10059c004023ef005023ef0020002000201a880099
:1005ac004223ef000080fa00000006001200fa005f
:1005bc005007980061079800720798007e00900021
:1005cc000000e800700798000000eb00000f7800b6
:1005dc00110037001e00780000004000ee00900073
:1005ec00808040001e007800000040006e019000ea
:1005fc0000004100100178001e007800000040004f
:10060c00de019000008041001000780000004100e5
:10061c00800878001e0fe8001e007800e20f5000e2
:10062c00ecff34007e009000f40f50007e003a0086
:10063c000000eb00000f7800110037001e0078005e
:10064c0000004000ee00900080804000010f9800f8
:10065c001e007800000040006e0190000000410078
:10066c00100178007e0090008001780011000900d4
:10067c000301d8008e089000800878001e0fe80057
:10068c001e007800e30f5000ecff34006000b8004f
:10069c006011b800100798002107980032079800e5
:1006ac00430798000000eb00000f7800590037005a
:1006bc001e00780000004000ee009000008040001a
:1006cc0090007800e0072000808f50000e003c0066
:1006dc001e00780000004000ee00900000804000fa
:1006ec0090007800c00b2000808f50000600340072
:1006fc001e00780000004000000047000080e80069
:10070c0011002000010878001e0078000000400055
:10071c00ee0090000080400090007800c00b20009c
:10072c00808f50000e003c001e007800000040003e
:10073c00ee0090000080400090007800b00e200089
:10074c00808f5000060034001e007800000040002e
:10075c00000047000080e80021002000010878001c
:10076c001e00780000004000ee0090000080400069
:10077c0090007800b00e2000808f50000e003c00de
:10078c001e00780000004000ee0090000080400049
:10079c0090007800a0112000808f500006003400db
:1007ac001e00780000004000000047000080e800b8
:1007bc0031002000010878001e0078000000400085
:1007cc00ee0090000080400090007800a011200006
:1007dc00808f50000e003c001e007800000040008e
:1007ec00ee0090000080400090007800801a2000fd
:1007fc00808f5000060034001e007800000040007e
:10080c00000047000080e80041002000010878004b
:10081c001e0fe8001e007800e30f5000a4ff340008
:10082c000000eb00700798000080fa000000060042
:10083c000400fa00000f7800110798001e009000c9
:10084c00100078000000e00008003a0041e3a90025
:10085c00411a800000fe2f00008060000010a000f4
:10086c00401a880041e3a800001a80001e00900086
:10087c0010007800e10f500007003a0041e3a90096
:10088c00411a800000fe2f0000806000401a880092
:10089c0041e3a800001a80001e00900010007800b0
:1008ac00e20f500008003a0041e3a900411a800011
:1008bc0000fe2f00008060005000b300401a88003a
:1008cc0041e3a800001a80001e0090001000780080
:1008dc00e30f500008003a0041e3a900411a8000e0
:1008ec0000fe2f00008060003000b300401a88002a
:1008fc0041e3a800001a80004023a80000fa200061
:10090c0001002000730007004023a9000000000034
:10091c00001a8000610060000000e000fcff320063
:10092c001e009000100078000000e00004003a0067
:10093c0000188000800078001e0078000108780004
:10094c001e00900010007800e10f500003003a00e8
:10095c001e80e80001188000010878001e0090003d
:10096c0010007800e20f500004003a009e0078005e
:10097c006480400001188000010878001e0090007f
:10098c0010007800e30f500004003a001e017800bc
:10099c006600410001188000010878001e009000dc
:1009ac00100078008000e800400020000001780072
:1009bc00110009008200d8008000fd008000780042
:1009cc001e009000010878000080fa00000006006c
:1009dc000000fa006481a900200b80000000a00038
:1009ec000010a1000020a0000030a100200b880006
:1009fc0064a1a9006561a900200b80000080a10002
:100a0c000090a10000a0a100200b8800200b80000a
:100a1c000060a1000070a100200b880066e1a90015
:100a2c00310b800000fe2f0000806000300b88002e
:100a3c006b01a800700b80000080a1000090a10049
:100a4c0000a0a100700b88006ea1a9007421ef001a
:100a5c000080eb00c00b880000002100e00b880038
:100a6c0000002800000c880065e1a8000080fa0056
:100a7c00000006000c00fa0024000700b8fe070076
:100a8c00bafe0700d2ff07006000b8006011b80082
:100a9c001007980021079800320798004307980028
:100aac000000eb00500798000000eb00000f7800ee
:100abc0004003700ea0047000e80e8005cff0700e6
:100acc001e0fe8001e007800e30f5000f9ff340001
:040adc00f5ff3700eb
:020000040000fa
:100ae000f03fb1000180b10006003500ee030900bf
:100af00000000000403fb1000180b100fbff3d005d
:100b00001000b000203fb000020035000080090056
:080b10000000000000000600d7
:020000040000fa
:0c0b18000000fa000080fa000000060057
:020000040000fa
:040b240000000000cd
:020000040000fa
:0200000401f009
:04000000ffff0000fe
:020000040000fa
:0200000401f009
:04000800ffff0000f6
:020000040000fa
:0200000401f009
:04000c00ffff0000f2
:020000040000fa
:0200000401f009
:04001000bfff00002e
:020000040000fa
:0200000401f009
:04001400ffff0000ea
:020000040000fa
:0200000401f009
:04001800ffff0000e6
:020000040000fa
:0200000401f009
:04001c00fdff0000e4
:00000001FF
