:020000040000fa
:080000000002040000000000f2
:020000040000fa
:04000800c002000032
:020000040000fa
:04000c00a802000046
:020000040000fa
:04001000ae0200003c
:020000040000fa
:04001400b402000032
:020000040000fa
:04001800ba02000028
:020000040000fa
:04001c00c00200001e
:020000040000fa
:04002000c00200001a
:020000040000fa
:04002400c002000016
:020000040000fa
:04002800c002000012
:020000040000fa
:04002c00c00200000e
:020000040000fa
:04003000c00200000a
:020000040000fa
:04003400c002000006
:020000040000fa
:04003800c002000002
:020000040000fa
:04003c00c0020000fe
:020000040000fa
:04004000c0020000fa
:020000040000fa
:04004400c0020000f6
:020000040000fa
:04004800c0020000f2
:020000040000fa
:04004c00c0020000ee
:020000040000fa
:04005000c0020000ea
:020000040000fa
:04005400c0020000e6
:020000040000fa
:04005800c0020000e2
:020000040000fa
:04005c00c0020000de
:020000040000fa
:04006000c0020000da
:020000040000fa
:04006400c0020000d6
:020000040000fa
:04006800c0020000d2
:020000040000fa
:04006c00c0020000ce
:020000040000fa
:04007000c0020000ca
:020000040000fa
:04007400c0020000c6
:020000040000fa
:04007800c0020000c2
:020000040000fa
:04007c00c0020000be
:020000040000fa
:04008000c0020000ba
:020000040000fa
:04008400c0020000b6
:020000040000fa
:04008800c0020000b2
:020000040000fa
:04008c00c0020000ae
:020000040000fa
:04009000c0020000aa
:020000040000fa
:04009400c0020000a6
:020000040000fa
:04009800c0020000a2
:020000040000fa
:04009c00c00200009e
:020000040000fa
:0400a000c00200009a
:020000040000fa
:0400a400c002000096
:020000040000fa
:0400a800c002000092
:020000040000fa
:0400ac00c00200008e
:020000040000fa
:0400b000c00200008a
:020000040000fa
:0400b400c002000086
:020000040000fa
:0400b800c002000082
:020000040000fa
:0400bc00c00200007e
:020000040000fa
:0400c000c00200007a
:020000040000fa
:0400c400c002000076
:020000040000fa
:0400c800c002000072
:020000040000fa
:0400cc00c00200006e
:020000040000fa
:0400d000c00200006a
:020000040000fa
:0400d400c002000066
:020000040000fa
:0400d800c002000062
:020000040000fa
:0400dc00c00200005e
:020000040000fa
:0400e000c00200005a
:020000040000fa
:0400e400c002000056
:020000040000fa
:0400e800c002000052
:020000040000fa
:0400ec00c00200004e
:020000040000fa
:0400f000c00200004a
:020000040000fa
:0400f400c002000046
:020000040000fa
:0400f800c002000042
:020000040000fa
:0400fc00c00200003e
:020000040000fa
:04010000c002000039
:020000040000fa
:04010400c002000035
:020000040000fa
:04010800c002000031
:020000040000fa
:04010c00c00200002d
:020000040000fa
:04011000c002000029
:020000040000fa
:04011400c002000025
:020000040000fa
:04011800c002000021
:020000040000fa
:04011c00c00200001d
:020000040000fa
:04012000c002000019
:020000040000fa
:04012400c002000015
:020000040000fa
:04012800c002000011
:020000040000fa
:04012c00c00200000d
:020000040000fa
:04013000c002000009
:020000040000fa
:04013400c002000005
:020000040000fa
:04013800c002000001
:020000040000fa
:04013c00c0020000fd
:020000040000fa
:04014000c0020000f9
:020000040000fa
:04014400c0020000f5
:020000040000fa
:04014800c0020000f1
:020000040000fa
:04014c00c0020000ed
:020000040000fa
:04015000c0020000e9
:020000040000fa
:04015400c0020000e5
:020000040000fa
:04015800c0020000e1
:020000040000fa
:04015c00c0020000dd
:020000040000fa
:04016000c0020000d9
:020000040000fa
:04016400c0020000d5
:020000040000fa
:04016800c0020000d1
:020000040000fa
:04016c00c0020000cd
:020000040000fa
:04017000c0020000c9
:020000040000fa
:04017400c0020000c5
:020000040000fa
:04017800c0020000c1
:020000040000fa
:04017c00c0020000bd
:020000040000fa
:04018000c0020000b9
:020000040000fa
:04018400c0020000b5
:020000040000fa
:04018800c0020000b1
:020000040000fa
:04018c00c0020000ad
:020000040000fa
:04019000c0020000a9
:020000040000fa
:04019400c0020000a5
:020000040000fa
:04019800c0020000a1
:020000040000fa
:04019c00c00200009d
:020000040000fa
:0401a000c002000099
:020000040000fa
:0401a400c002000095
:020000040000fa
:0401a800c002000091
:020000040000fa
:0401ac00c00200008d
:020000040000fa
:04020800c002000030
:020000040000fa
:04020c00c00200002c
:020000040000fa
:04021000c002000028
:020000040000fa
:04021400c002000024
:020000040000fa
:04021800c002000020
:020000040000fa
:04021c00c00200001c
:020000040000fa
:04022000c002000018
:020000040000fa
:04022400c002000014
:020000040000fa
:04022800c002000010
:020000040000fa
:04022c00c00200000c
:020000040000fa
:04023000c002000008
:020000040000fa
:04023400c002000004
:020000040000fa
:04023800c002000000
:020000040000fa
:04023c00c0020000fc
:020000040000fa
:04024000c0020000f8
:020000040000fa
:04024400c0020000f4
:020000040000fa
:04024800c0020000f0
:020000040000fa
:04024c00c0020000ec
:020000040000fa
:04025000c0020000e8
:020000040000fa
:04025400c0020000e4
:020000040000fa
:04025800c0020000e0
:020000040000fa
:04025c00c0020000dc
:020000040000fa
:04026000c0020000d8
:020000040000fa
:04026400c0020000d4
:020000040000fa
:04026800c0020000d0
:020000040000fa
:04026c00c0020000cc
:020000040000fa
:04027000c0020000c8
:020000040000fa
:04027400c0020000c4
:020000040000fa
:04027800c0020000c0
:020000040000fa
:04027c00c0020000bc
:020000040000fa
:04028000c0020000b8
:020000040000fa
:04028400c0020000b4
:020000040000fa
:04028800c0020000b0
:020000040000fa
:04028c00c0020000ac
:020000040000fa
:04029000c0020000a8
:020000040000fa
:04029400c0020000a4
:020000040000fa
:04029800c0020000a0
:020000040000fa
:04029c00c00200009c
:020000040000fa
:0402a000c002000098
:020000040000fa
:0402a400c002000094
:020000040000fa
:0402a800c002000090
:020000040000fa
:0402ac00c00200008c
:020000040000fa
:0402b000c002000088
:020000040000fa
:0402b400c002000084
:020000040000fa
:0402b800c002000080
:020000040000fa
:0402bc00c00200007c
:020000040000fa
:0402c000c002000078
:020000040000fa
:0402c400c002000074
:020000040000fa
:0402c800c002000070
:020000040000fa
:0402cc00c00200006c
:020000040000fa
:0402d000c002000068
:020000040000fa
:0402d400c002000064
:020000040000fa
:0402d800c002000060
:020000040000fa
:0402dc00c00200005c
:020000040000fa
:0402e000c002000058
:020000040000fa
:0402e400c002000054
:020000040000fa
:0402e800c002000050
:020000040000fa
:0402ec00c00200004c
:020000040000fa
:0402f000c002000048
:020000040000fa
:0402f400c002000044
:020000040000fa
:0402f800c002000040
:020000040000fa
:0402fc00c00200003c
:020000040000fa
:04030000c002000037
:020000040000fa
:04030400c002000033
:020000040000fa
:04030800c00200002f
:020000040000fa
:04030c00c00200002b
:020000040000fa
:04031000c002000027
:020000040000fa
:04031400c002000023
:020000040000fa
:04031800c00200001f
:020000040000fa
:04031c00c00200001b
:020000040000fa
:04032000c002000017
:020000040000fa
:04032400c002000013
:020000040000fa
:04032800c00200000f
:020000040000fa
:04032c00c00200000b
:020000040000fa
:04033000c002000007
:020000040000fa
:04033400c002000003
:020000040000fa
:04033800c0020000ff
:020000040000fa
:04033c00c0020000fb
:020000040000fa
:04034000c0020000f7
:020000040000fa
:04034400c0020000f3
:020000040000fa
:04034800c0020000ef
:020000040000fa
:04034c00c0020000eb
:020000040000fa
:04035000c0020000e7
:020000040000fa
:04035400c0020000e3
:020000040000fa
:04035800c0020000df
:020000040000fa
:04035c00c0020000db
:020000040000fa
:04036000c0020000d7
:020000040000fa
:04036400c0020000d3
:020000040000fa
:04036800c0020000cf
:020000040000fa
:04036c00c0020000cb
:020000040000fa
:04037000c0020000c7
:020000040000fa
:04037400c0020000c3
:020000040000fa
:04037800c0020000bf
:020000040000fa
:04037c00c0020000bb
:020000040000fa
:04038000c0020000b7
:020000040000fa
:04038400c0020000b3
:020000040000fa
:04038800c0020000af
:020000040000fa
:04038c00c0020000ab
:020000040000fa
:04039000c0020000a7
:020000040000fa
:04039400c0020000a3
:020000040000fa
:04039800c00200009f
:020000040000fa
:04039c00c00200009b
:020000040000fa
:0403a000c002000097
:020000040000fa
:0403a400c002000093
:020000040000fa
:0403a800c00200008f
:020000040000fa
:0403ac00c00200008b
:020000040000fa
:100400000f8020000eff20000e0188000000000079
:10041000000020000000e000020032000001200087
:10042000200288000c000700006520000100200069
:1004300011000700000020000000e0000200320070
:100440000000020000000000c605020000000000dd
:100450000040da000000fe004440a9000000200037
:100460000000e0000300320000002000a00188002e
:100470004440a80000000600910188008000780038
:100480000000eb0015003700e280400032a0b4000d
:100490009101ba00e280400032a0b4009102ba009b
:1004a000e280400032a0b4000002eb00472bde00e7
:1004b000f507b200602ce10004003a000059eb009f
:1004c0008301e900fdff3e00040037006128e100e0
:1004d000010032000082eb000b00070011c3ba00dc
:1004e0001101ba000604e00003003a000200e00037
:1004f000e5ff3a0000000600f607b200960188000a
:1005000082007800f5ff37003159ba008301e90015
:100510000c0032002159ba008301e90008003200c2
:100520000400e00003003a00e280400032a0b40082
:10053000f5ff370011d9ba008301e900faff3a004c
:100540008100e800e180400032a0b4000000060015
:100550000000fa008020a900ffff37000000fa0029
:100560008060a900ffff37000000fa008040a9006a
:10057000ffff37000000fa008080a900ffff37006e
:080580000000fa00ffff370044
:020000040000fa
:100588000000fa000080fa00000006000000fa00ef
:10059800c002a800c802a800c822a800e004a80059
:1005a800e204a800e224a800c862a800e264a80047
:1005b8004023ef005023ef0020002000201a88007d
:1005c8004223ef000080fa00000006001200fa0043
:1005d8005007980061079800624f98006e48900095
:1005e8000040e800604f98000040eb00004f7800a2
:1005f800110037001e00fb0000004000ee009000d4
:10060800808040001e00fb00000040006e0190004a
:1006180000004100100178001e00fb0000004000af
:10062800de019000008041001000780000004100c9
:10063800800878001e4fe8001e407800e24f500006
:10064800ecff34006e489000f44f50007f003a00f1
:100658000040eb00004f7800120037001e00fb003e
:1006680000004000ee00900080804000010f9800dc
:100678001e00fb00000040006e01900000004100d9
:10068800100178006e4890000000fb00800178009f
:10069800110009000301d8008e0890008008780036
:1006a8001e4fe8001e407800e34f5000ebff340077
:1006b8006000b8006011b800100798002107980082
:1006c80032079800430798000040eb00004f78007d
:1006d800590037001e00fb0000004000ee009000ab
:1006e8000080400090007800e0072000808f5000d4
:1006f8000e003c001e00fb0000004000ee009000d1
:100708000080400090007800c00b2000808f5000cf
:10071800060034001e00fb000000400000004700f7
:100728000080e80011002000010878001e00fb008e
:1007380000004000ee00900000804000900078002b
:10074800c00b2000808f50000e003c001e00fb00f4
:1007580000004000ee00900000804000900078000b
:10076800b00e2000808f5000060034001e00fb00f1
:1007780000004000000047000080e8002100200041
:10078800010878001e00fb0000004000ee00900009
:100798000080400090007800b00e2000808f50004c
:1007a8000e003c001e00fb0000004000ee00900020
:1007b8000080400090007800a0112000808f500039
:1007c800060034001e00fb00000040000000470047
:1007d8000080e80031002000010878001e00fb00be
:1007e80000004000ee00900000804000900078007b
:1007f800a0112000808f50000e003c001e00fb005e
:1008080000004000ee00900000804000900078005a
:10081800801a2000808f5000060034001e00fb0064
:1008280000004000000047000080e8004100200070
:10083800010878001e4fe8001e407800e34f500082
:10084800a4ff34000040eb00604f98000080fa00dd
:10085800000006000400fa00000f78001107980055
:100868001e009000100078000000e00008003a0028
:1008780041e3a900411a800000fe2f0000806000bb
:100888000010a000401a880041e3a800001a800068
:100898001e00900010007800e10f500007003a0099
:1008a80041e3a900411a800000fe2f00008060008b
:1008b800401a880041e3a800001a80001e0090003a
:1008c80010007800e20f500008003a0041e3a90048
:1008d800411a800000fe2f00008060005000b30025
:1008e800401a880041e3a800001a80001e0090000a
:1008f80010007800e30f500008003a0041e3a90017
:10090800411a800000fe2f00008060003000b30014
:10091800401a880041e3a800001a80004023a8007c
:1009280000fa200001002000ca0007004023a900a7
:1009380000000000001a8000610060000000e00074
:10094800fcff32001e009000100078000000e0005c
:1009580004003a0000188000800078001e0078002b
:10096800010878001e00900010007800e10f500088
:1009780003003a001e80e800011880000108780092
:100988001e00900010007800e20f500004003a00aa
:100998009e007800648040000118800001087800fb
:1009a8001e00900010007800e30f500004003a0089
:1009b8001e017800660041000118800001087800d7
:1009c8001e009000100078008000e8004000200021
:1009d80000017800110009008200d8008000fd00a5
:1009e800800078001e009000010878000080fa005e
:1009f800000006000000fa006481a900200b8000b6
:100a08000000a0000010a1000020a0000030a100fc
:100a1800200b880064a1a9006561a900200b800053
:100a28000080a1000090a10000a0a100200b880078
:100a3800200b80000060a1000070a100200b88003e
:100a480066e1a900310b800000fe2f0000806000e5
:100a5800300b88006b01a8006b21a800700b800088
:100a68000080a1000090a10000a0a100700b8800e8
:100a78006ea1a9006e81a8007421ef000080eb0030
:100a8800c00b880000002100e00b8800000028004f
:100a9800000c880065e1a8000080fa00000006004c
:100aa8000200fa00004f7800e384a900c982a90077
:100ab800cd82a9006b01a8001e00fb00e20f5000c8
:100ac80008003200e30f50000a003200e10f500026
:100ad8000c003a007421ef000080eb00c00b880086
:100ae800090037007421ef000080eb00c00b88007c
:100af800050037007421ef000080eb00c00b880070
:100b0800010037000000000065e1a8000080fa003d
:100b1800000006000200fa00004f7800c962a90030
:100b2800cd62a9006b21a8001e00fb00e20f500057
:100b380008003200e30f50000a003200e10f5000b5
:100b48000c003a007421ef000080eb00c00b880015
:100b5800090037007421ef000080eb00c00b88000b
:100b6800050037007421ef000080eb00c00b8800ff
:100b7800010037000000000065e1a8000080fa00cd
:100b8800000006000c00fa00400007007cfe070089
:100b98007efe070097ff07006000b8006011b800ec
:100ba800100798002107980032079800430798001b
:100bb8000000eb0050079800030037000000000019
:100bc80001003700000000000040eb00004f7800f3
:100bd80004003700ea0047000e80e8001dff070008
:100be8001e4fe8001e407800e34f5000f9ff340024
:100bf8004e0090000000e00003003d0010c0b3006c
:100c0800a7ff0700f0ff37004e009000ee0f5000de
:100c180006003c004e0090000000e0000300340095
:100c280020c0b3009eff0700e7ff3700ce0090000a
:100c3800e00f2000808f5000e0ff3c004e00900045
:100c4800ef0f5000dfff340030c0b30094ff0700ff
:040c5800ddff370085
:020000040000fa
:100c5c00f03fb1000180b10006003500ee03090041
:100c6c0000000000403fb1000180b100fbff3d00df
:100c7c001000b000203fb0000200350000800900d9
:080c8c0000000000000006005a
:020000040000fa
:0c0c94000000fa000080fa0000000600da
:020000040000fa
:040ca0005206800078
:020000040000fa
:040ca400000000004c
:020000040000fa
:0200000401f009
:04000000ffff0000fe
:020000040000fa
:0200000401f009
:04000800ffff0000f6
:020000040000fa
:0200000401f009
:04000c00ffff0000f2
:020000040000fa
:0200000401f009
:04001000bfff00002e
:020000040000fa
:0200000401f009
:04001400ffff0000ea
:020000040000fa
:0200000401f009
:04001800ffff0000e6
:020000040000fa
:0200000401f009
:04001c00fdff0000e4
:00000001FF
